:10000000011007000500000000200000912F0000F3
:10001000000400204D140000C9130000C9130000A3
:1000200010B572B6102117480160174A82608161CD
:1000300016480C210160164A82608161154803212F
:100040000160642181601449EE200860182000F0EE
:1000500007FE7F221148520202601249104B0B60CA
:1000600042605A1C0A6000228260981C08600E4898
:10007000402181604121416042210160012001F065
:10008000B7FB10BD00000440300018000001044020
:100090003000100000030440000302400003014050
:1000A00040FF00800000014000010140000000000E
:1000B0000000000000000000000000000000000040
:1000C0000000000000000000000000000000000030
:1000D0000000000000000000000000000000000020
:1000E0000000000000000000000000000000000010
:1000F0000000000000000000000000000000000000
:1001000000000000000000000000000000000000EF
:1001100000F002F800F040F80CA030C808382418AD
:100120002D18A246671EAB4654465D46AC4201D12F
:1001300000F032F87E460F3E0FCCB6460126334221
:1001400000D0FB1AA246AB4633431847BC19000047
:10015000EC190000103A02D378C878C1FAD85207D7
:1001600001D330C830C101D504680C60704700006D
:100170000023002400250026103A01D378C1FBD8C3
:10018000520700D330C100D50B6070471FB5C04681
:10019000C0461FBD10B510BD03488546FFF7F6FFEA
:1001A00000F0D5F800F0C5F80004002003B4FFF714
:1001B000F1FF03BC00F0C4F8801C800804D000BF2D
:1001C000401EFDD100BF00BF7047EFF3108072B634
:1001D000704780F310887047002203098B422CD3AC
:1001E000030A8B4211D300239C464EE003460B4387
:1001F0003CD4002243088B4231D303098B421CD3E9
:10020000030A8B4201D394463FE0C3098B4201D3DA
:10021000CB01C01A524183098B4201D38B01C01A12
:10022000524143098B4201D34B01C01A5241030989
:100230008B4201D30B01C01A5241C3088B4201D338
:10024000CB00C01A524183088B4201D38B00C01AE5
:10025000524143088B4201D34B00C01A5241411A0C
:1002600000D201465241104670475DE0CA0F00D0EF
:100270004942031000D34042534000229C460309E8
:100280008B422DD3030A8B4212D3FC22890112BA6E
:10029000030A8B420CD3890192118B4208D3890146
:1002A00092118B4204D389013AD0921100E089095E
:1002B000C3098B4201D3CB01C01A524183098B423F
:1002C00001D38B01C01A524143098B4201D34B0128
:1002D000C01A524103098B4201D30B01C01A52418B
:1002E000C3088B4201D3CB00C01A524183088B4212
:1002F00001D38B00C01A5241D9D243088B4201D39B
:100300004B00C01A5241411A00D201466346524185
:100310005B10104601D34042002B00D54942704784
:1003200063465B1000D3404201B50020C046C04682
:1003300002BD0446C046C0462046FFF737FF000016
:1003400001491820ABBEFEE726000200704701F00D
:1003500005FB01F055FBFEE7F0B5114E0023706878
:10036000F7013843706030684008400030601A463A
:100370000021084695012C5C401C091980B24028D8
:10038000F9D3521C5B1892B2802AF1D37068B8433B
:100390007060306801210843306098B2F0BD000001
:1003A0000000104010B50949094B4200094C095C96
:1003B0009B5AA35200230B3C235420460F308352F8
:1003C0000B382246405C0832505410BDC41A00005D
:1003D000B8000020D2000020F8B506468024002096
:1003E00015460F469055A85D2043A855304600F0AD
:1003F0000EF9B84202D2A85DA043A8556408F2D114
:10040000F8BD0000F1B51F4900980C5C1E49600062
:100410000E5A0C310D5A08461B38075D401F0099D3
:1004200000F0EAF80099184A4900121F0028505AB3
:1004300009D0711B88421BDA134800221438009936
:1004400000F07AFA11E0711988420ED30E490B3987
:10045000085D401E0006000E085509D10A48012219
:100460001438009900F068FA02E007480B38075585
:1004700005480099143800F0BFF8002800D001208A
:10048000F8BD0000C41A0000DA00002010B50024F6
:10049000204600F043F8641C022CF9D310BD000084
:1004A00010B5164A10681649C0B20871154B0109FB
:1004B000987809010007000F0843F02188439978D4
:1004C000090909010143116010480F498160104971
:1004D0004160104908680F2212049043032252041D
:1004E00010430860072000F075FB0B49072000F05F
:1004F000A5FB0321072000F081FB10BD00FF084091
:10050000A800002060F1FF0F000200010000084079
:100510000008A0010000024025060000F8B50446CE
:100520001B480025025D801C005D96008100430091
:10053000C018174AC7B2083216489359005D1A68A6
:100540009C460F238B409A4363461A60022801D0D1
:10055000012800D00625FFF738FE03460C48183066
:10056000815908680722BA409043BD4005430D6099
:100570001846FFF72EFE06482830805902680449C5
:10058000891C0B5D012199408A430260F8BD00007F
:10059000C01A0000B600002010B500F0C1F900F04C
:1005A0007FF90021084600F05FF90021084600F0BD
:1005B0009BF9FF2000F066F9402000F0A3F9044900
:1005C0004868044A10434860072000F00DFB10BD46
:1005D000000008400010088010B50446641CE4B216
:1005E000022C05D02146034800F006F80028F5D07B
:1005F000204610BDAB000020CA084B075B0F01214D
:100600009940805CC9B2084000D00120704770B5A5
:10061000002506462C46304600F05AF900F060F8F6
:100620000128FBD0304600F019F94519641CF2D0BE
:10063000A8B270BD70B5072000F0CCFA19490120AE
:100640004861194C207800F053F8184D28780006BE
:1006500004D528784008400028701EE02078FFF775
:10066000BBFF20702078022803D2207800F062F8C7
:1006700013E02878400840002870287840060CD500
:100680000B4900200B4A0C4B0870C0B2145C1C5480
:10069000401C0006000E0870F7D0072000F0A4FAF6
:1006A00070BD000000000840AA000020A900002042
:1006B00004010020AD000020AB00002010B5002098
:1006C000064A01461154401C0228FBD3FFF7E8FEFE
:1006D000002000F053F9FFF7D9FE10BDB60000204E
:1006E00002484078C007C00F70470000A8000020F3
:1006F00010B50C4CE1680C4B42009952FFF70EFF0D
:10070000072000F067FA606808490840052149039E
:1007100008436060A06806490840A060072000F018
:1007200063FA10BD00000840B8000020FF1FDFFF83
:1007300000FF80FFFEB505464248405D8400424808
:100740000059019000F0ECF800F0AAF83E4E0021AC
:10075000083E705D401E80B200F086F8B71E785DDE
:100760000021401E80B200F0BFF8FF2000F08AF8A0
:10077000402000F0C7F8072000F02CFA334840680A
:1007800040210843795D735D0E03711A2E4E80225D
:100790003459904309045C43A14200D210432B4CCE
:1007A0006060072000F020FA072000F013FAA0682C
:1007B0002749254A084024490E390C3A525D495DC3
:1007C000120402431143A160666822480640224891
:1007D0000643072000F008FA1A48001F405D009009
:1007E0001848801E405D410047188500FFF7EDFC6A
:1007F0008446009881001348001D405802680F236A
:10080000AB409A430423AB400E4813431430425884
:1008100015680720B840854315600A48001D4058F8
:1008200003606046FFF7D5FCFFF7CFFC0546666026
:100830001520FFF7C1FC0198E0602846FFF7C9FCCE
:10084000FEBD0000C41A0000BC00002000000840EB
:1008500000FF80FFFF1FDFFF200020000149400054
:10086000085A7047B8000020054B1A68000252076A
:10087000520FC9061043090E084318607047000064
:100880000003014005490A68002AFCDB00024030F1
:100890000122D207104308607047000000000140A9
:1008A000034801680029FCDB024901607047000031
:1008B000000001404000004003484068002802DA80
:1008C000024901200870704700000840C400002061
:1008D00010B5044900224A70887081224A70FFF7DF
:1008E00029FF10BDA8000020054B5A6800025207DE
:1008F000520FC9061043090E0843586070470000A4
:100900000003014005490A68002AFCDB000241306F
:100910000122D20710430860704700000000014028
:10092000034801680029FCDB0249016070470000B0
:10093000000001404100004030B5CC084D076D0F6C
:100940000123AB40C908415CDBB2002A01D0194346
:1009500000E09943015530BD014A11547047000031
:10096000B0000020014A400011527047DA00002018
:10097000014A115470470000AE000020034A81076D
:100980005068490D01435160704700000000084065
:1009900010B5FFF791FF072000F01CF907484168E8
:1009A0008122120391434160416849004908416036
:1009B000FFF7B6FFFFF774FF10BD0000000008400E
:1009C000F8B51E4C2078002803D1FFF777FE0120F0
:1009D0002070FFF7E1FD1A4DA8680321090688433E
:1009E000A860164F0024174E1437305D5521800043
:1009F0003858000C48436421FFF7EEFB0F4A0146CC
:100A0000921D2046FFF7E8FC641C022CEDD30B4A34
:100A10000020921D931C115C4C1C64081C54490856
:100A20001154401C0228F6D3A86801210906084386
:100A3000A8606868891008436860F8BDA8000020B5
:100A400000000840C41A000010B5072000F0C2F8EA
:100A5000074841688122120391434160416849007F
:100A600049084160FFF75CFFFFF71AFF10BD000067
:100A700000000840F8B5044629486600005D4200C1
:100A80002848805A00902848815B26480C38805BB3
:100A9000884207D8234D0023113D2B550B1A9DB2D8
:100AA000012714E0431A9DB21E4B00271B1D9B5AC1
:100AB000AB420CD21B481138005D0C2803D32046F2
:100AC000FFF770FC1BE017491139401C1AE0009B2E
:100AD0009D4206D9134B1B1D9A5AAA4213D9002FC7
:100AE00011D1104A0302173A125D1A435118081A1D
:100AF00001020A0C0B490C398A530B390855094974
:100B0000002011390855074900980839854203D952
:100B1000002F01D08D53F8BD00208853F8BD000090
:100B2000C41A0000DE000020B800002010B5002428
:100B300021460648FFF760FD002802D02046FFF757
:100B400099FF641C022CF3D310BD0000AB00002001
:100B500000B5FFF78FFF00BD10B5FF20FFF7D2FEF5
:100B6000FF20FFF78FFE03480078002801D0FFF731
:100B700013FD10BDC400002010B500F08BFE084A24
:100B80000849012806D001209071C879FB22104045
:100B9000C87110BD00209071C87904221043F7E796
:100BA000680000200801002070B501260446074DAA
:100BB000F60303E0E868FFF7FFFAA41BB442F9D894
:100BC000A8686043FFF7F8FA70BD000098000020A5
:100BD00000BE7047C106C90E012088400149086067
:100BE0007047000080E100E0C106C90E0120884086
:100BF000014908607047000000E100E070B50E4652
:100C00000546032900D900BE092D00D300BEA80760
:100C1000C40EA41DFFF7D9FA0246A90806488900A8
:100C2000081801680323A3409943A6400E430660B9
:100C30001046FFF7CEFA70BD00E400E00122520733
:100C4000092800D300BE80008218106C1164704720
:100C50000248C16AC2031143C162704700000340E9
:100C600070B50446182805D0202C03D0302C01D0B4
:100C700000BE70BDFFF7A9FA1D4D0646A868C00862
:100C8000C000A860E8681B49000A00026118497B9F
:100C90000843E8602869C008C0002861A8691549B0
:100CA000C009C00120396118097D4906490E084371
:100CB000A8613220FFF780FA182C15D90120E4062C
:100CC00040072018A968400FC908C9000843A86058
:100CD0003220FFF771FA012080072018A968400F21
:100CE000C908C9000843A8603046FFF772FA70BD12
:100CF000000F0340C0F1FF0F10B5FFF766FA064979
:100D0000498A064A516006490A6904231A430A615E
:100D100030BFFFF75EFA10BD40F1FF0F0000034047
:100D200000ED00E002484168012211434160704734
:100D30004000034002490148886370476588EDAC74
:100D4000000003400248C16849084900C16070477B
:100D5000400003400148C06B7047000000000340A2
:100D60000248C16801221143C1607047400003403E
:100D7000034600B50648C06A002801DBFFF768FF9C
:100D8000034940310A68120C12041A430A6000BD7C
:100D900000000340F8B59B480068002800D0804759
:100DA000994804889948056899480668FF200230E8
:100DB000984F05422ED097494039086840004008B6
:100DC000086095480278DF231A40027002781023E9
:100DD0001A4302708D4A40329368DB0617D48F4D58
:100DE0002D78AC4203D0037808252B430370386A72
:100DF00005235B0398433862844B0020803398605E
:100E00009060874A107008685A061043F6E003782D
:100E10000225EAE7F00603D57D490020803188608D
:100E20000A20064213D079488030C0687D4B4007C5
:100E300047D518687A4B1978002916D0012907D0B0
:100E40000020FFF7C5FE71490420803108606EE084
:100E5000754B1988002931D00122FA62734A126851
:100E60001055641C491E1980EDE7714909888842B4
:100E700024D20122FA626F4904460988884201D2CD
:100E8000081B00E0002080B267490828088001D2D2
:100E90001A700AE00828386A0AD001214903084379
:100EA000386208205949803188605C480470CAE77C
:100EB00005214903084338620020F3E70220F86265
:100EC000C1E7386A800432D5B0070BD555484038A1
:100ED0008068396A0007000F052252039143396286
:100EE000012107E050490888083880B208800828A6
:100EF0000DD80021002807D04C4A1268494B1B68C6
:100F00001355641C401EF9D1002903D00BE00820C2
:100F10000121F1E7386A0121C903084338623B49DE
:100F200000208031886039480C2180300160B00792
:100F300047D5E8062026002814DA344800218030FE
:100F40008160324840308160344A022012789442F5
:100F500000D00A20304A284013781843B04310705C
:100F60002F48017068062AD52B480178314301705B
:100F70002A480478786AC00611D52D482A49008885
:100F8000001B08802C484268012109040A43426082
:100F900042688A4342601D491020403102E01B49EB
:100FA0000420803188601A4801228030026017488E
:100FB000224901608168102319438160FA62134855
:100FC000056013480068400719D518481A4B164A9F
:100FD0004033194D0168FF271088002805D00E5DA9
:100FE0001E60641C401E108000E01F60A86800079F
:100FF000000F0828F0D10549102040310860024850
:101000000480F8BDF0000020FC000020400F0640E6
:10101000000E064040000640F4000020F6000020CC
:10102000F5000020400306400601002000010020DA
:10103000F8000020FA00002000020640FF0F000028
:1010400010B5044801688203114301600520FFF7D1
:10105000CBFD10BD0000064010B50520FFF7BAFD1E
:101060000548047801784909490101700520FFF716
:10107000BBFD204610BD0000F400002010B5FF208D
:10108000184901300860174917484031086218486C
:101090001649016000244460164A02611648016046
:1010A00044600520FFF796FD03210520FFF7A6FD0C
:1010B00012490520FFF7C2FD11488460FF20104946
:1010C0005230C03188600E48803084600D488460A2
:1010D0000C48403884600C4844700470048184706B
:1010E00010BD00000000064000080040070100801D
:1010F000000306404000FE0000020640850D00008F
:10110000800E0640C00F0640F40000200149002078
:1011100088607047800E0640014901208860704752
:10112000800E0640002A03D0024BDA609880D980F6
:1011300070470000F400002010B5FFF7EDFF10BD70
:1011400010B5054C2078002803D1FFF797FF012048
:101150002070FFF775FF10BDEC00002010B5FFF701
:10116000D5FF10BD03498A6838239A43C000024363
:101170008A60704700030440044A1168FD23C007D9
:101180001940800F084310607047000000030440BE
:1011900003498A68D208D20002438A60704700007F
:1011A00000030440044A1168FE23C0071940C00F21
:1011B000084310607047000000030440F8B5544E27
:1011C000544F307875783021EF2301401D40B478BA
:1011D000BA78102902D0202906D00CE0002A0AD1C2
:1011E0000121F970184005E0002A04D10021F970AE
:1011F000DF2108403070A8060ED54548DF21407831
:101200000840AA2C02D0BB2C03D005E0707000204F
:1012100001E07070012078713D48E909C0790CD077
:10122000AA2C1BD10021802239721043F0717078F2
:101230004006400E7070B1700EE069060ED5AA2C03
:101240000CD1012140063972400EF0717078BF2137
:10125000084070700020B07000F006F9082D11D021
:10126000012D18D0042D2ED0402D46D0802D43D1F5
:10127000772C41D10120B870F07940210843F071FA
:10128000002042E0AA2C37D10820F871F079C5215E
:1012900008401021F2E7AA2C2ED10120F87100F0AD
:1012A00053F8F079C521084002210843F07100206D
:1012B000B0703C2070722D20B0723C210020FFF7EE
:1012C00051FB2D2115E0AA2C16D10420F87100F055
:1012D0003BF8F079C521084008210843F07100204F
:1012E000B07019207072B07201460020FFF73AFB0F
:1012F00019210120FFF736FBF8BD462CFCD1002058
:10130000B870F179BF221140F171B070F8BD0000E2
:10131000080100206800002004498A6807239B0414
:101320009A43800402438A60704700000001044031
:10133000044A1168BF23C0071940400E08431060DB
:101340007047000000010440F8B500F045F900F0D6
:10135000ADF80D4D00210A4C0A4B2E1F4800225AB1
:101360001A52094F2A523252083F3A523F1F491C23
:10137000C9B23A520229F1D3FFF7D8FBF8BD0000F9
:10138000B8000020D20000208C00002070B5FFF7CC
:1013900017FB0F48007A01280ED10E4D0024AE1C19
:1013A000295D2046FFF7E4FA315D2046FFF7D4FAC5
:1013B000641CE4B2022CF3D33C210020FFF7D2FAE4
:1013C0002D210120FFF7CEFAFFF7BEFF70BD000010
:1013D00068000020BC1A0000FEE70000044A116803
:1013E000BF23C0071940400E08431060704700003B
:1013F00000000440044A1168FD23C0071940800F13
:1014000008431060704700000001044070B5114EA1
:101410000125F1783046104C0079012901D10128CD
:101420000DD001430AD10120FFF7D8FF0120FFF7BB
:10143000E1FF3571E07940084000E07170BD0020A7
:10144000FFF7CCFF0020FFF7D5FF00203071E079D7
:101450002843F2E7680000200801002010B5FFF7DC
:1014600069FCFEF755FE10BD70B5FFF7EDFA0120DF
:10147000FFF79AFBFFF7A4FA0A48007A01280ED179
:10148000094D0024AE1C295D2046FFF771FA315D3D
:101490002046FFF761FA641CE4B2022CF3D3FFF795
:1014A00053FF70BD68000020BC1A0000F8B5094F5A
:1014B000094E00246500395D705BFEF78DFE05491D
:1014C000891E095D641C4843E4B27053022CF1D3B9
:1014D000F8BD0000BA1A0000B8000020F8B539487D
:1014E000C079082861D000F077F8FFF7DFFF364EAB
:1014F000364F00256C00305B395B884201D9411AB8
:1015000000E0091A324A914204DD2E49487A401C13
:10151000487236E02B4B1C331A5B191D0A530839ED
:10152000095B19531B1F185310331A805980988078
:10153000184600F001FA234A014630532432105B6A
:1015400088420BD9491C89B23153884206D9491CBB
:1015500089B23153884201D9491C315389B288423A
:101560000BD2491E89B23153884206D2491E89B234
:101570003153884201D2491E315311532846FFF797
:10158000E7FA1448005BB4280BD90E490878401CD0
:10159000C0B208700F2804D100200870385B401CCE
:1015A00038536D1CEDB2022DA4D3064841790129B0
:1015B00006D1417A012903D900214172FFF7C4FE07
:1015C000F8BD000068000020B8000020D200002014
:1015D000DC050000D6000020FEB5002001466E4666
:1015E0008200401CC0B2B1500228F9D3114F00252F
:1015F00000242046FFF76CF9FFF772F80028FBD1B2
:10160000A00062003158BA5A641C8918E4B2315003
:10161000022CEED36D1CEDB2042DE9D30020810025
:10162000715842008903090C401CC0B2B95202280B
:10163000F5D3FEBDB800002010B5FFF70DFD00206A
:10164000FFF776FE0024FFF707FD800606D4012091
:10165000FFF7AAFA641CA4B20F2CF4D30024FFF7FE
:10166000FBFC800606D50120FFF79EFA641CA4B29D
:10167000032CF4D30120FFF75BFE10BDF8B500206A
:10168000FEF7C0FE0125564E0028307B01D02843CE
:1016900001E04008400030730120FEF7B3FE022253
:1016A0000028307B01D0104301E0FD210840307359
:1016B000C1B2B07A0027814200D0F772F07A401CA4
:1016C000C0B2F072B172B379002B01D0012B04D1FA
:1016D000002802D0F772757302E0707B002831D0C9
:1016E000404877730446203401290AD002292AD0C1
:1016F00003294AD037827782B782717801295BD07B
:1017000061E07178002903D1C570FFF795FF75700E
:10171000B078012800D1F570308A401C80B2308248
:101720007782B782A075F782B773C8280AD92E4A84
:101730002E4B378200204100401C545AC0B25C52EC
:101740000228F8D3F8BD7178002903D1C270FFF7E1
:1017500073FF7570B078012800D1F570708A401C55
:1017600080B270823782B782A075F782B773C828BB
:10177000E8D91D4A1D4B778200204100401C545A75
:10178000C0B25C520228F8D3F8BDB08A401C80B2C7
:10179000B08237827782A075F782B773C828F3D9F1
:1017A000114A124BB78200204100401C545AC0B26B
:1017B0005C520228F8D3F8BDC17808221143C170E9
:1017C000FFF73AFF7770F08A401C80B2F082DC2885
:1017D00001D1F782B573B0780128ECD1F770F8BD6C
:1017E0006800002008010020B8000020D20000207E
:1017F000094A1168002802D09304194301E0490006
:1018000049081160054B996A2022002801D0114334
:1018100000E09143996270470020024000000340BD
:1018200070B51B4D6879012803D00120FFF7BCF982
:1018300070BD0024FFF710FC800606D50120FFF7DD
:10184000B3F9641CE4B21E2CF4D3FFF77BFAA87B37
:10185000002806D0FFF77EFA4B2180B2C90040185D
:1018600004E0FFF777FA80B2FF302D30FFF780FAFF
:10187000FFF776FAFFF78CF8FFF75EFCFFF73CFA0C
:10188000FFF76CFCFFF768F9FFF75CFA70BD00002A
:1018900068000020024840684007C00F7047000001
:1018A00000030440FEB572B600241D486500465B87
:1018B0001C48005D009001463046FEF78DFC19493A
:1018C000891C095D0191484381B20802090A084355
:1018D00015496F18F88315480099455B2846FEF7AF
:1018E0007BFC0199484380B20102000A0143F9845C
:1018F000AE4201D9701B00E0002080B20102000A54
:101900000143F98208480A490019095D41730949F0
:10191000095D641CE4B24174022CC6D362B6FEBDFC
:10192000B8000020B81A000008010020D2000020F2
:10193000AE000020B00000208288418800888A42E2
:1019400007D3814201D3084670479042FCD310462A
:1019500070478242FBD28842F5D2704770B50F4C77
:10196000206840084000206000200D4B0D4A01E037
:10197000042802D28100595800E00B498500401C20
:1019800051511928F4D3FEF74BFB08490020086099
:10199000206801210843206070BD00000000104055
:1019A0000000000000000020C913000064000020B7
:1019B00010B5FFF7B7F910BD10B50446FEF705FCEA
:1019C00004494A68C0239A43A3011A434A60FEF7B8
:1019D00000FC10BD00E400E010B5064810240460CF
:1019E0000649054808650320FFF7E6FF01488038EF
:1019F000046010BD80E100E0A1190000000000209B
:101A00000120FFF7EBFC0120FFF7F4FC2B4D012731
:101A10002F710420FFF780FC0120FFF789FC284C80
:101A20000026267041206070A6700820E070072014
:101A30002071052060714020A0718220E0713C205F
:101A400060722D20A072267266751E48E085FEF732
:101A500083FC2086224603213820FFF763FBFFF733
:101A60006FFB0220FFF77EFB0220FFF791FB0120B6
:101A7000FFF782FB0120FFF795FB62B6FFF75AF9EB
:101A80001E20FFF791F8AE70EF712E726F71AF717B
:101A9000FFF7A2FFFFF77AFCFFF720FDFFF7EEFD4F
:101AA000FFF78CFB6879002801D1FFF7FBFEFFF7F9
:101AB000ADFCFFF7B5FEFFF75FF8EDE7680000202B
:101AC00008010020080A0000030104020E0B0F0B9E
:101AD0000101030200010000000002400001024079
:101AE00000020240000302400800044008010440D4
:101AF00008020440080304400000044000010440C0
:101B00000002044000030440281B000000000020E5
:101B100064000000440100008C1B000068000020ED
:101B2000A0000000440100002C1C0000080100205F
:101B3000380000006001000000000000000000000C
:101B40000000000000000000000000000000000095
:101B50000000000000000000000000000000000085
:101B60000000000000000000000000000000000075
:101B70000000000000000000000000000000000065
:101B80000000000000000000000000000000000055
:101B90000000000000000000000000000000000045
:101BA0000000000000000000000000000000000035
:101BB0000000000000000000000000000000000025
:101BC000000000000000000000000000060000000F
:101BD000808D5B00701700000000B80B0000000350
:101BE00000004040404004040202000000000000E9
:101BF0000000FF1F0000FF1F00000000000C0C0190
:101C000001000000000000000000000000003200A1
:101C10003200140014000A000A0002000200000052
:101C200000000000000000000000000000000000B4
:101C300000000000000000000000000000000000A4
:101C40000000000000000000000000000000000094
:101C50000000000000000000000000000000000084
:00000001FF
