:10000000FF004C6174746963650069434563756200
:10001000653220323031342E30342E3235383130A2
:1000200000506172743A20694345354C50344B2D71
:10003000535747333600446174653A204A756E2041
:10004000323420323031342031333A35323A00FF05
:100050003238007EAA997E5100010592002062028A
:10006000B37200B082000011000101000000000026
:100070000000000000001000000000000040000030
:10008000000000010000000000000400000000006B
:100090000010000000000000400000000010000000
:1000A000000000004000000000000100000000000F
:1000B00000040000000000001000000000000040EC
:1000C000000000000000000000000000020000002E
:1000D00000000008000000000000200000000000F8
:1000E0000080000000000002000000000000080086
:1000F00000000002000000000000000000000000FE
:10010000002000000000000080000000000002004D
:1001100000000000000800000000000000000000D7
:1001200000000000000000000000000000000000CF
:1001300000000000000000000000000000000000BF
:1001400000000000000000000000000000000000AF
:10015000000000000000000000000000000000009F
:10016000000000000000000040000000000000004F
:10017000000000000000000000000000000000007F
:10018000000000000000000000000000000000006F
:10019000000000000000000000000000000000005F
:1001A000000000000000000000000000000000004F
:1001B000000000000000000000000000000000003F
:1001C000000000000000000000000000000000002F
:1001D000000000000000000000000000000000001F
:1001E000000000000000000000000000000000000F
:1001F00000000000000000000000000000000000FF
:1002000000000000000000000000000000000000EE
:1002100000000000000008000000000000000000D6
:1002200000000000000000000000000000000000CE
:1002300000000000000000000000000000000000BE
:1002400000000000000000000000000000000000AE
:10025000000000000000000000000000000000009E
:1002600000000000000000000000000000904000BE
:10027000000000000000000000000000000000007E
:10028000000000000000000000000000000000006E
:10029000000000000000000000000000000000005E
:1002A000000000000000000000000000000000004E
:1002B000000000000000000000000000000000003E
:1002C000000000000100000000000000000000002D
:1002D000000000000000000000000000000000001E
:1002E000000000000000000000000000000000000E
:1002F00000000000000000000000000000000000FE
:1003000000000000000000000000000000000000ED
:1003100000000000000000000000000000000000DD
:1003200000000000000000000000000000000000CD
:1003300000000000000000000000000000000000BD
:1003400000000000000000000005000000000000A8
:10035000000000000000000000000000000000009D
:10036000000000000000000000000000000000008D
:100370000002040000000000000000000000000077
:10038000000000000000000000000000000000006D
:10039000000000000000000000000000000000005D
:1003A000000000000000000000000000000000004D
:1003B000000000000000000000000000000000003D
:1003C000000000000000000000000000000000002D
:1003D000000000000000000000000000000000001D
:1003E000000000000000000000000000000000000D
:1003F00000000000000000000040000000000000BD
:100400000000008007000000000000000000000065
:1004100000000000000000000000000000000000DC
:10042000800000000000000000000000000000004C
:1004300000000000000000000000000000000000BC
:100440000000000000000000000000000000000CA0
:1004500000000000000000040050008000000000C8
:10046000000000000000000000000000000000008C
:100470000000000000000C00000000000000000070
:10048000000000000000000000000000000000006C
:10049000000000000000000000000000000000005C
:1004A000000000000000000000000000000000004C
:1004B000000000000000000000000000000000003C
:1004C00000000000000180000000000000000000AB
:1004D000000000000000000000000000000000001C
:1004E000000000000000000000000000000000000C
:1004F00000000000000000000000000000000000FC
:10050000000000000400D000000000000000000017
:1005100000000000000000000000000000000000DB
:1005200000000000000000000000000000000000CB
:1005300000000000000000000000000000000000BB
:1005400000000000000000000000000000000000AB
:10055000000000000000000000000000000100009A
:10056000000000000000000000000000000000008B
:10057000000000000000000000000000000000007B
:10058000000000000000000000000000000000006B
:10059000000000000000000000000000000000005B
:1005A000000000000000000000000000000000004B
:1005B0000008000000000000000000000000000033
:1005C000000000000000000000000000000000002B
:1005D000000000000000000000000000000000001B
:1005E000000000000000000000000000000000000B
:1005F0000000000000000000000000000140760044
:10060000000000003AA940000000000000000000C7
:1006100000000000000000000000000000000000DA
:1006200000000000000000000000000000000000CA
:1006300000000000000000000000000000000000BA
:1006400000000000000000000000000000000000AA
:1006500000000903C33400000000E9015404000055
:10066000000000000000000000000000000000008A
:10067000000000000000000000000000000000007A
:10068000000000000000000000000000000000006A
:10069000000000000000000000000000000000005A
:1006A0000000000000000000020000000000000048
:1006B000000000000000000000000000000000003A
:1006C000000000000000000000000000000000002A
:1006D0000000040000000000000000000000000016
:1006E000000000000000000000000000000000000A
:1006F00000000000000000000000000000000000FA
:1007000000002400000010000000000000000000B5
:1007100000000000000000000000000000000000D9
:10072000000000000000000002C000000000000007
:1007300000000000000000000000000000000000B9
:1007400000000000000000000000000000000000A9
:1007500000000000000080002000002000000000D9
:100760000000000000000000000000000000000089
:100770000000000000000000000000000000003148
:100780005D8100000000000000000000000000008B
:100790000000000000000000000000000000000059
:1007A00000000000000000000000000000A2400463
:1007B00000000090000000000000000000000000A9
:1007C0000000000000000000000000000000000029
:1007D0000000000000067694A00000000000000069
:1007E0000000000000000000000000000000000009
:1007F00000000000000000000000000000000000F9
:1008000000000000202200010001000000000000A4
:1008100000000000000000000000000000000000D8
:1008200000000000000000000000000000000000C8
:1008300000000000000000000000000000000000B8
:1008400000000000000000000000000000000000A8
:100850000000000000000000000000C414001000B0
:100860000800000000000000000000000000000080
:100870000000000000000000000000000000000078
:100880000000000000000000000000000000000068
:100890000000000000000000000000000000000058
:1008A0000000000000000000000000000000000048
:1008B000001E00000000000000000000000000001A
:1008C0000000000000000000000000000000000028
:1008D0000000000000000000000000000000000018
:1008E0000000000000000000000000000000000008
:1008F00000000000000000000000000000000000F8
:1009000000000000000000000034000000000000B3
:1009100000000000000000000000000000000000D7
:1009200000000000000000180000000000000000AF
:1009300000000000000000000000000000000000B7
:1009400000000000000000000000000000000000A7
:100950000000000000000000000000000000000097
:100960000000000500000000000000000000000082
:100970000000000000000000000000000000000077
:1009800000000000000C000000000000000000005B
:100990000000000000000000000000000000000057
:1009A0000000000000000000000000000000000047
:1009B000000000000000140000000800000000001B
:1009C0000000000000000000000000000000000027
:1009D00000000000000000000000000020000000F7
:1009E0000000000000000000000000000000000007
:1009F00000000000000000000000000000000000F7
:100A000000000000000000000000000000000400E2
:100A100000000000000000000000000004000000D2
:100A200000000000000000000000000000000000C6
:100A300000000000000000000000000000000000B6
:100A400000000000000000000000000000000000A6
:100A50000000000000000000000000000000000096
:100A60000000002400000000000000000000000062
:100A70000000000000000000000000000000000076
:100A80000000000000000000000000000000000066
:100A90000000000000000000000000000000000056
:100AA0000000000000000000000000000000000046
:100AB0000000000000000C00040000000000005EC8
:100AC0003D40004000000000000000000000000069
:100AD0000000000000000000000000000000000016
:100AE0000000000000000000000000000000000006
:100AF00000000000000000000000000000000000F6
:100B000000000000000000000000000000C0000025
:100B10000C010000000003D4000A000000000000E7
:100B200000000000000000000000000000000000C5
:100B300000000000000000000000000000000000B5
:100B400000000000000000000000000000000000A5
:100B50000000000000000000000000000000000095
:100B600000000000408000000408081D0000000094
:100B7000000005D8E54080000000000000000000F3
:100B80000000000000000000000000000000000065
:100B90000000000000000000000000000000000055
:100BA0000000000000000000000000000000000045
:100BB0000000000000000000000000000000000134
:100BC0002830D0000000000003E4D804000000003A
:100BD0000000000000000000000000000000000015
:100BE0000000000000000000000000000000000005
:100BF00000000000000000000000000000000000F5
:100C000000000000000000000000000000000000E4
:100C100000000000000000000000000002000E00C4
:100C200000000000000000000000000000000000C4
:100C300000000000000000000000000000000000B4
:100C400000000000000000000000000000000000A4
:100C50000000000000000000000000000000000094
:100C60000000000000000000000000000010000074
:100C70000000000000200000000000000000000054
:100C80000000000000000000000000000000000064
:100C90000000000000000000000000000000000054
:100CA0000000000000000000000000000000000044
:100CB000040000000000000000000000000C000024
:100CC00000000020159A5F29400C0000040000007D
:100CD0000000000000000000000000000000000014
:100CE0000000000000000000000000000000000004
:100CF00000000000000000000000000000000000F4
:100D000000000000000000000000000000000000E3
:100D100000000000C00000000400000001015400B9
:100D2000C000128000000000000000000000000071
:100D300000000000000000000000000000000000B3
:100D400000000000000000000000000000000000A3
:100D50000000000000000000000000000000000093
:100D60000000000000000000000000800000000003
:100D7000000B80D2280000000000000000000000EE
:100D80000000000000000000000000000000000063
:100D90000000000000000000000000000000000053
:100DA0000000000000000000000000000000000043
:100DB0000000000000000000000000000000000033
:100DC00000000000000000005003C3D40100000038
:100DD0000000000000000000000000000000000013
:100DE0000000000000000000000000000000000003
:100DF00000000000000000000000000000000000F3
:100E000000000000000000000000000000000000E2
:100E100000000000000000000000000000001000C2
:100E200000000000000000000000000000000000C2
:100E300000000000000000000000000000000000B2
:100E400000000000000000000000000000000000A2
:100E50000000000000000000000000000000000092
:100E60000000000000000000000000000000000082
:100E7000000000001800000000000003C3C00000D4
:100E80000000000000000000000000000000000062
:100E90000000000000000000000000000000000052
:100EA0000000000000000000000000000000000042
:100EB0000000000000000000000000000000000032
:100EC0000000000000000000000000010000000021
:100ED0000000000000000000000000000000000012
:100EE000000000000003800000000000000000007F
:100EF00000000000000000000000000000000000F2
:100F000000000000000000000000000000000000E1
:100F100000000000000000000000000000000000D1
:100F200000000000000000000000000000000000C1
:100F300000000000000000000000000000000000B1
:100F400000000000000000000000000000000000A1
:100F50000000000000000000000000000000000091
:100F60000000000000000000000000000000000081
:100F7000000000003800040007801729400000200E
:100F80007958E5410000000000000000000000006A
:100F90000000000000000000000000000000000051
:100FA0000000000000000000000000000000000041
:100FB0000000000000000000000000000000000031
:100FC00000000000000000000000040000002800F5
:100FD0000582A80100024026C804000000000000AD
:100FE0000000000000000000000000000000000001
:100FF00000000000000000000000000000000000F1
:1010000000000000000000000000000000000000E0
:1010100000000000000000000000000000000000D0
:1010200000000004000000F6A8000400000000001A
:1010300000000000000000000008000000000000A8
:1010400000000000000000000000000000000000A0
:101050000000000000000000000000000000000090
:101060000000000000000000000000000000000080
:10107000000000000000000000000000000303D496
:1010800020800000000000000000000000000001BF
:101090000000000000000000000000000000000050
:1010A0000000000000000000000000000000000040
:1010B0000000000000000000000000000000000030
:1010C000000000000000000000000000040002001A
:1010D000000805011F795000C14003CBE540000026
:1010E00000000000000000E0000000000000000020
:1010F00000000000000000000000000000000000F0
:1011000000000000000000000000000000000000DF
:1011100000000000000000000000000000000000CF
:1011200000000100003400000008E9B601000000E2
:101130000036E80400000000000000000C00000081
:10114000000000000000000000000000000000009F
:10115000000000000000000000000000000000008F
:10116000000000000000000000000000000000007F
:101170000000000000000000020000780000800075
:101180000AB2315002400078000000000000000068
:1011900000002000002DCA06000020000000000012
:1011A000000000000000000000000000000000003F
:1011B000000000000000000000000000000000002F
:1011C000000000000000000000000000000000001F
:1011D00000042C0000380103630100020004000039
:1011E000000000000000000000000002C8D1400024
:1011F00004000000000000000000000000000000EB
:1012000000000000000000000000000000000000DE
:1012100000000000000000000000000000000000CE
:101220000000000000004080220000000800577904
:1012300050100036034CA04000000000000000C029
:10124000000000000000000000000000000000009E
:10125000000000000000000000000000000000008E
:10126000000000000000000000000000000000007E
:101270000000000000000000000000000000443CEE
:10128000000000B0893A01000000C035FD140000E4
:10129000000000000004000000000000000000004A
:1012A000000000000000000000000000000000003E
:1012B000000000000000000000000000000000002E
:1012C000000000000000000000000000000000001E
:1012D00000000000002000000000000000000000EE
:1012E0000678000000000000000000000000000080
:1012F00000000000000000000000000000000000EE
:1013000000000000000000000000000000000000DD
:1013100000000000000000000000000000000000CD
:101320000009000000000000000000000C000000A8
:1013300000000000000000040000000000000000A9
:10134000000000000000000000000000000000009D
:10135000000000000000000000000000000000008D
:10136000000000000000000000000000000000007D
:10137000000000000000000000000000000000006D
:10138000000E700000000000000000000000635C20
:10139000A04100000000000000000000400000002C
:1013A000000000000000000000000000000000003D
:1013B000000000000000000000000000000000002D
:1013C000000000000000000000000000000000001D
:1013D00000000000000000000034000008D0A00061
:1013E000000000000435ED140000000000000000C3
:1013F000003C34000000000000000000000000007D
:1014000000000000000000000000000000000000DC
:1014100000000000000000000000000000000000CC
:1014200000000000000000000000000000000004B8
:10143000000000078037831400001464FDE44000BE
:101440000000000000000002078000000003000010
:10145000000000000000000000000000000000008C
:10146000000000000000000000000000000000007C
:10147000000000000000000000000000000000006C
:101480000000000000031400000000B7EC11010090
:101490000046559C040003000000000000003C4092
:1014A000000000000000000000000000000000003C
:1014B000000000000000000000000000000000002C
:1014C000000000000000000000000000000000001C
:1014D00000000000000000000000000002000810F2
:1014E000000000000000001C3FFC8800000000001D
:1014F00000000000000000000000000000000000EC
:1015000000000000000000000000000000000000DB
:1015100000000000000000000000000000000000CB
:1015200000000000000000000000000000000000BB
:101530000000002C00028010000000000000265671
:10154000A1100000000000000000000000000000EA
:10155000000000000000000000000000000000008B
:10156000000000000000000000000000000000007B
:10157000000000000000000000000000000000006B
:101580000000000000000C000472000500050800C7
:10159000000004001C00000000002000000000000B
:1015A0004000000000000003800000000000000078
:1015B000000000000000000000000000000000002B
:1015C000000000000000000000000000000000001B
:1015D00000000000000000000000000000C000202B
:1015E000240020000800000000800022800000008D
:1015F00000000000000008000000000000000000E3
:1016000000000000000000000000000000000000DA
:1016100000000000000000000000000000000000CA
:10162000000000000000000800000000000000189A
:1016300000000000000000000000080000000000A2
:10164000008000CE88000000000F21430000000051
:10165000000000000000000000000000000000008A
:10166000000000000000000000000000000000007A
:10167000000000000000000000000000000000006A
:10168000000000000000000000000000000000005A
:1016900000B00000000000054287911000038000A8
:1016A00090015080000000000000000000E00000F9
:1016B000000000000000000000000000000000002A
:1016C000000000000000000000000000000000001A
:1016D000000000001000000000008000000000007A
:1016E0000000000000008007005069400000240353
:1016F0007C020208000017214300000000000000E7
:101700000080000000000000000000000000000059
:1017100000000000000000000000000000000000C9
:101720000000000000000000000000800000000039
:1017300000000000000000000000000400000003A2
:101740003198000001628E04000001000A3001504F
:101750000000000000000000000000000000000089
:101760000000000000000000000000000000000079
:101770000000000000000000000000000000000069
:10178000000000000000000007000000000C000046
:1017900000002000038E3FE818000160037C8002F7
:1017A0000000019D21430000000000000001000135
:1017B0000000000000000000000000000000000029
:1017C0000000000000000000000000000000000019
:1017D0000000000000000000000000000000000801
:1017E0000000000040000000000000790D7F45006F
:1017F000000AC3E500010000000898015000000045
:1018000000000000100008000000000000000000C0
:1018100000000000000000000000000000000000C8
:1018200000000000000000000000000000000000B8
:101830000000000000001E56941800000000002068
:101840000000001069400000202000000000001887
:1018500015214300000000000000001000000000FF
:101860000000000000000000000000000000000078
:101870000000000000000000000000000000000068
:10188000000000000000000000000000010943E922
:101890000000000000010000000731980100204412
:1018A00000000000000008380150000000000000A7
:1018B00000028000000000000000000000000000A6
:1018C0000000000000000000000000000000000018
:1018D0000000000000000000000000000000000008
:1018E00000000000000000000000000030000700C1
:1018F00057205080003E6AD9CC000000700FA143F1
:1019000000000000000000000000000000000000D7
:1019100000000000000000000000000000000000C7
:1019200000000000000000000000000000000000B7
:101930000000000000000000400000000000010066
:1019400003C0000040000D0389000101403C8000FD
:1019500000040080900150001000000000000040D2
:101960000000000000000000000000000000000077
:101970000000000000000000000000000000000067
:101980000000000000000000000000000000000057
:101990000000000000000000002000010000000026
:1019A00000002E6000000000000005A143000000C0
:1019B000000000000028000002BC104000000000F1
:1019C0000000000000000000000000000000000017
:1019D0000000000000000000000000000000000007
:1019E00000000000004000000000000000000000B7
:1019F0000040080000000001014000000000040059
:101A000000300150001000000000000140040003FD
:101A1000C100000000000000000000000000000005
:101A200000000000000000000000000000000000B6
:101A300000000000000000000000000000000000A6
:101A40000000000000000000000000000000003660
:101A5000040A0F000000980DA143000000000000E0
:101A60000000000000000000000000000000000076
:101A70000000000000000000000000000000000066
:101A80000000000000000000000000000000000056
:101A90000000000000000000000000000000407096
:101AA000000000000042428100F2000001009801A5
:101AB00050000000000000000000000000000000D6
:101AC0000000000000000000000000000000000016
:101AD0000000000000000000000000000000000006
:101AE00000000000000000010000000000000000F5
:101AF00000000001000398F86940200C0069CC88C0
:101B00000010008187A143000000000000000100D8
:101B100000000000000000000000000000000000C5
:101B200000000000000000000000000000000000B5
:101B30000000000000000000000000000000200085
:101B40000000000000000000000020000991326445
:101B5000000000001CA1100200010038015000002C
:101B60000000000000200000000000000000000055
:101B70000000000000000000000000000000000065
:101B80000000000000000000000000000000000055
:101B900000000000000000000000000000243800E9
:101BA000000000017F820000000005EC88000000BA
:101BB000180F214300000000000000000000000397
:101BC000BC18000000000000000000000000000041
:101BD0000000000000000000000000000000000005
:101BE00000000000000000000000000000000000F5
:101BF00000000123C40400000010897C00010000E3
:101C00000315E11000000000B001530000000000C7
:101C100000000000000043C10000000000000000C0
:101C200000000000000000000000000000000000B4
:101C300000000000000000000000000000000000A4
:101C40000000000000000000020000040000800905
:101C50001813388002204037E9A04008000003A193
:101C600041002080000000000082800006BC1802B5
:101C70000000000000000000000000000000000064
:101C80000000000000000000000000000000000054
:101C90000000000000000000000000000000000044
:101CA0000002E4000000B8006F8800040803E5CDDE
:101CB0001410000000180292000000000000000054
:101CC00000000003C1000000000000000000000050
:101CD0000000000000000000000000000000000004
:101CE00000000000000000000000000000000000F4
:101CF00000000000000000BC02000100051FDE2003
:101D0000508C002E0000000000000000000000C009
:101D100000038000000100000C000000000000042F
:101D200000000000000000000000000000000000B3
:101D300000000000000000000000000000000000A3
:101D40000000000000000000000000000415E03466
:101D5000003100D1DF0345004402E0000000000034
:101D600000000000000400004000000030000000FF
:101D7000000000000003C0000000000000000000A0
:101D80000000000000000000000000000000000053
:101D90000000000000000000000000000000000043
:101DA000000000000068000000000ABFE81000000A
:101DB0000000000000000200000000000000000021
:101DC000AF0500000300000000000000000000005C
:101DD0000000000000000000000000000000000003
:101DE00000000000000000000000000000000000F3
:101DF00000000000000000000000000414000000CB
:101E00003105A345000000000000000000100000A4
:101E1000000000A0000010F05000000000000000D2
:101E20000A000000000000000000000000000000A8
:101E300000000000000000000000000000000000A2
:101E40000000000000000000000000000000000092
:101E500020007A000000000ADB28100000002C009F
:101E60000000000000000000000000000000000072
:101E700000001A033C1200000004000000000000F3
:101E80000000000000000000000000000000000052
:101E90000000000000000000000000000000000042
:101EA00000000000000001E0002400004070E16339
:101EB000890001000780000000040000000000000D
:101EC0001000200000000078010043C10001000361
:101ED000C000000000000000000000000000000042
:101EE00000000000000000000000000000000000F2
:101EF00000000000000000000000000000000000E2
:101F0000000000001BB6E20000015C07FC814100FC
:101F100000001000000000080000000000000000A9
:101F200007BC1800000004000000000000000000D2
:101F300000000000000000000000000000000000A1
:101F40000000000000000000000000000000000091
:101F500000000000000004000040009978440001E7
:101F60000A6224AE240004000900000000B0400012
:101F70000000000078000043C104010002000000DE
:101F80000000000000000000000000000000000051
:101F90000000000000000000000000000000000041
:101FA0000000000000000000000000000000080029
:101FB00028185700C08000063E6FA0400000800037
:101FC0000000000140000000000000000007BC12FB
:101FD00040100003EA8550000000000000000000EF
:101FE00000000000000000000000000000004000B1
:101FF00000000000000000000000000000000000E1
:102000000000001400000590094000000000031FBC
:102010009E240000010000000000040000000000F9
:102020000008008043C1240000002DDDA400000052
:1020300000000000000000000000000000000000A0
:102040000000000000000000000000000000000090
:102050000000000000000C0004000001000B191239
:10206000F91044000E00EE550010000400000000BE
:1020700040C0000000000100000E0000000400004D
:102080000000000000000000000000000000000050
:102090000000000000000000000000000000000040
:1020A00000000000000000000000000000C0000070
:1020B0002C00604011A72B0100801740030550023F
:1020C00000000000000008000000000000200001E7
:1020D000F00000008002400000000000000000004E
:1020E00000000000000000000000000000000000F0
:1020F00000000000000000000000000000000000E0
:10210000000000000000000008002000F214300071
:102110000000040000000000800000000000000239
:10212000808F0602400000367F80000080000000A3
:10213000000000000000000000000000000000009F
:10214000000000000000000000000000000000008F
:10215000000000000000000000000000000000007F
:1021600004000700150800000280000000000D00B8
:102170000000000000004010F04804000003FB9441
:102180000000240200000000000000000000000029
:10219000000000000000000000000000000000003F
:1021A000000000000000000000000000000000002F
:1021B000000000000000800000F214300000147DD8
:1021C0007D800000050000000000200000000000ED
:1021D0000080000E7EA800020040000CF04080004D
:1021E00000000000000000000000000000000000EF
:1021F00000000000000000000000000000000000DF
:102200000000000000000000000000004000000B83
:1022100000150000000317C00010000000000000BF
:10222000000000000000000000010F43E80000086B
:1022300000010F040000000000000000000000008A
:10224000000000000000000000000000000000008E
:10225000040000000000000000000000000C40002E
:10226000000000000019D214300000160000000029
:1022700000000000000000C0000000000003000893
:10228000185AB9008C0000000CF0408000000000DB
:10229000000000000000000000000000000000003E
:1022A000000000000000002000000000000000000E
:1022B00000000000C2000000004000008780150000
:1022C00000014000000000000000000000000000CD
:1022D0000000000010001000039000000000010F3B
:1022E00004000000000000000000000000000000EA
:1022F00000000000000000000000000000000000DE
:1023000000000000000000000000000000000000CD
:10231000000181D2143000000E67DAA500040080AD
:10232000093BD4A10000000000000000080ED3907B
:1023300010A200606200A5408000000000000000C4
:10234000000000000000000000000000000000008D
:10235000000000000000000000000000000000007D
:102360000000000000004000008B801500000022EB
:10237000A6055080400D00503FC0500000000000F6
:102380000000001003C2150000E9C01C05A40000F5
:10239000000000000000000000000000000000003D
:1023A000000000000000000000000000000000002D
:1023B00000000000000000000000000000004000DD
:1023C000FA1430010000600000000000000000006E
:1023D000000000000000000000000E366900000050
:1023E000002800A5400000000000000000000000E0
:1023F00000000000000000000000000000000000DD
:1024000000000000000000000000000000000000CC
:10241000000000400200070015001000040000004A
:1024200000000000000000000000000000000000AC
:10243000F0F3F90000008006FC05A4100000000085
:10244000000000000000000000000000000000008C
:10245000000000000000000000000000000000007C
:1024600000000000000000000000000008DA14383E
:10247000000006044A880000000000000000000080
:102480000000000000000118FB3BC0000000777C4A
:10249000F701000000000000000000000000000044
:1024A000000000000000000000000000000000002C
:1024B000000000000000000000000000000000001C
:1024C0004000010B0015000000026EE1100000004A
:1024D00000000000000000000000000000080935B6
:1024E0003C000000062FEFF000000000000000009C
:1024F00000000000000000000000000000000000DC
:1025000000000000000000000000000000000000CB
:1025100000000000380000000980DA1430000000DC
:10252000387A550000007000000000001000000024
:10253000000000001C3FB140C00020281AF040807D
:10254000000000000000000000000000000000008B
:10255000000000000000000000000000000000007B
:102560000000000000000000000004000040001017
:10257000078015000000C6010550000000000000A3
:102580000000008000000000000001E08314000053
:1025900003C0000F04000000000000000000000065
:1025A000000000000000000000000000000000002B
:1025B000000000000000000000000000000000001B
:1025C00000000009000918FA1430002000787E206D
:1025D00002000000000000004000000000000100B8
:1025E0000100FB38000401400008F04080000000BA
:1025F00000000000000000000000000000000000DB
:1026000000000000000000000000000000000000CA
:10261000000000000000000000002000180B8015E2
:10262000000400003F00400000000000000008001F
:10263000000000000020005809350000800840011B
:102640000F04000000000000000000000000000077
:10265000000000000000000000000000000000007A
:10266000000000000000000000000000000000006A
:10267000000001807214300000000400000000001F
:1026800001F0000000800003A68DB002000001767A
:1026900041D02000007A19B10000000000000000C5
:1026A000000000000000000000000000000000002A
:1026B000000000000000000000000000000000001A
:1026C0000000000000000000000089001530040038
:1026D000034000000000001B0000000000007DDF40
:1026E000F5000000F0F5240902000003E4D7200003
:1026F00000000000000000000000000000000000DA
:1027000000000000000000000000000000000000C9
:102710000000000000000000000000000000800039
:1027200000121410100000000000000018800000CB
:1027300000002001E0641A500080011F564D102057
:1027400046167C5D810000000000000000000000D3
:102750000000000000000000000000000000000079
:102760000000000000000000000000000000000069
:1027700000000000000000018029000000000000AF
:10278000000000070F0000000006003CE8660000A3
:1027900080F8A7A08102080027EFC4100000000005
:1027A0000000000000000000000000000000000029
:1027B0000000000000000000000000000000000019
:1027C0000000000000000000000000000000000009
:1027D0000000010E06EE08000000000000000040AE
:1027E000E20796AE402100010876CD1000000002FD
:1027F00009B100000000000000000000000000001F
:1028000000000000000000000000000000000000C8
:1028100000000000000000000000000000000000B8
:102820000000000000000000000022F69000000000
:1028300000000000000C00040000E4001000000B89
:102840006841000000001DD72000000000000000CB
:102850000000000000000000000000000000000078
:102860000000000000000000000000000000000068
:102870000000000000000000000000000000000058
:1028800014216A800A00007001E294000A82000F9D
:1028900085062000010073CD1000015E00FEE200FD
:1028A0000000000000000000000000000000000028
:1028B0000000000000000000000000000000000018
:1028C0000000000000000000000000000000000008
:1028D00000000000000000200008000003878B3487
:1028E0001540004E0401F04240000008B7A08100EE
:1028F000002823029E2010000000000000000000BD
:1029000000000000000000000000000000000000C7
:1029100000000000000000000000000000000000B7
:1029200000000000000000000000000000000000A7
:102930000000000078000000000060002688100001
:102940000000011829400000003A19E200000000D0
:102950000000000000000000000000000000000077
:102960000000000000000000000000000000000067
:102970000000000000000000000000000000000057
:102980000000000000000000000000000000000047
:10299000000001DF500000009081B19800000000AD
:1029A0002DFD1000000000000000000000000000ED
:1029B0000000000000000000000000000000000017
:1029C0000000000000000000000000000000000007
:1029D000000000000000000000000068000000008F
:1029E00000000DA3D4000001E67DEEF000280000F9
:1029F00093294040400400FFD10080000000000007
:102A000000000000000000000000000000000000C6
:102A100000000000000000000000000000000000B6
:102A200000000000000000000000000000000000A6
:102A3000014400000000000000D414000000003039
:102A4000698F000100000902A8000A0022439D10BE
:102A50000000000000000000000000000000000076
:102A60000000000000000000000000000000000066
:102A70000000000000000000000000000000000056
:102A8000080000000000002003EAF5000000000933
:102A90006A0C080000020FEC50200003991829402E
:102AA00000001C07C1A5000000000000000000009D
:102AB0000000000000000000000000000000000016
:102AC0000000000000000000000000000000000006
:102AD0000000000000000010000000000000C00D19
:102AE0000500000000005838C00000044020C50068
:102AF000002098E1B19801000002D6D660000000E5
:102B000000000000000000000000000000000000C5
:102B100000000000000000000000000000000000B5
:102B200000000000000000000000000100000000A4
:102B3000000000006000000000020500000000002E
:102B40004002403DEE0001B800400328020000169C
:102B50007A0EAF000000000000000000000000003E
:102B60000000000000000000000000000000000065
:102B70000000000000000000000000000000000055
:102B80000000200000000000000009C0000000005C
:102B900013200000000008001600698000230000D8
:102BA0000F0140400000203405F004000000000048
:102BB0000000000000000000000000000000000015
:102BC0000000000000000000000000000000000005
:102BD00000000000000000000000000000000000F5
:102BE0000020000000002000001000000080000312
:102BF0008000000201818000000008000000FDFB51
:102C000000000000000000000000000000000000C4
:102C100000000000000000000000000000000000B4
:102C200000000000000000000000000000000000A4
:102C30000000000000000003C00000000000000FC2
:102C400000000000000038000000000008F0000054
:102C500000000040058A7000000000000000000035
:102C60000000000000000000000000000000000064
:102C70000000000000000000000000000000000054
:102C80000000000000000000000000000000000044
:102C900000000008005805ABD40020020015FFE03A
:102CA0000090200077A94002800E03EAF5000000A2
:102CB0000000000000000000000000000000000014
:102CC0000000000000000000000000000000000004
:102CD00000000000000000000000000000000000F4
:102CE0000000000000000000000000078A302800FB
:102CF00000001C034BDA00008100F782A80000E10D
:102D0000E02C0A00000000000000000000000000AD
:102D100000000000000000000000000000000000B3
:102D200000000000000000000000000000000000A3
:102D30000000000020000000000000000000000073
:102D40001000780F2A0C084000464DAD10210040BD
:102D50001916B9008C0016616EE402000000000034
:102D60000000000000000000000000000000000063
:102D70000000000000000000000000000000000053
:102D8000000000000000000000000500000000003E
:102D90000000000000000100000FFC38C004000229
:102DA0003820D10010000090039000400360000E16
:102DB00040000000000000000000000000000000D3
:102DC0000000000000000000000000000000000003
:102DD00000000000000000000000000000000000F3
:102DE00000000000000000002070000000028019B8
:102DF000E3EA840000034055840420000800D61054
:102E000010A00020034E024200000000000000005D
:102E100000000000000000000000000000000000B2
:102E200000000000000000000000000000000000A2
:102E3000000000000000000000000000000000C0D2
:102E400000000000138010DF2D400000063E60856A
:102E50005000001093C21500000042870A141000B1
:102E60000000000000000000000000000000000062
:102E70000000000000000000000000000000000052
:102E80000000000000000000000000000000000042
:102E900000000000040E000000000000709BE1092B
:102EA0000800000635A810000008007EFF80010021
:102EB0000004FDA100000000000000000000000070
:102EC0000000000000000000000000000000000002
:102ED00000000000000000000000000000000000F2
:102EE00000000000000000000000000020000000C2
:102EF0000000001818281040000041FA41000000AE
:102F0000B003FB94001000030580200000000000C7
:102F100000000000000000000000000000000000B1
:102F200000000000000000000000000000000000A1
:102F30000000000000000000000000000000000091
:102F4000000000025A0800000031DB6405000000A8
:102F50001600000000204118FB7BC000000C2A591D
:102F6000A1000000000000000000000000000000C0
:102F70000000000000000000000000000000000051
:102F80000000000000000000000000000000000041
:102F90000000000000000000000015C0000000005C
:102FA00019BB01D8000000000000000000000D3D2A
:102FB0003C000000000CD2000000000000000000F7
:102FC0000000000000000000000000000000000001
:102FD00000000000000000000000000000000000F1
:102FE00000000000000000010000000000000000E0
:102FF000000000000280000BB50900000000000086
:1030000000000040083AB140800020716AE20200EE
:1030100000000000000000000000000000000000B0
:1030200000000000000000000000000000000000A0
:103030000000000000000000000000000000000090
:10304000000000000000000000000000000F1E68EB
:10305000104000000000000000009000C3140000B9
:103060000044020E200000000000000000000000EC
:103070000000000000000000000000000000000050
:103080000000000000000000000000000000000040
:1030900000000000000000000000000040000000F0
:1030A00000100000E00000004005E027A3440100FC
:1030B0000100FB780004081663EE404200000000A7
:1030C0000000000000000000000000000000000000
:1030D00000000000000000000000000000000000F0
:1030E00000000000000000000000000000000000E0
:1030F00000000800000000020000000000000800BE
:103100008002C910406000009D3D000080F0200753
:1031100008548000000000000000000000000000D3
:10312000000000000000000000000000000000009F
:10313000000000000000000000000000000000008F
:10314000000000000000000000000000000020005F
:10315000000BFEBC00000A002CCA000200001F0386
:103160007140082140786EAF0000000000000000B0
:10317000000000000000000000000000000000004F
:10318000000000000000000000000000000000003F
:10319000000000000000000000000000000000002F
:1031A00000000000000000005A5BC000005403E073
:1031B000FA00000011897328000400042EB6F00004
:1031C00000000000000000000000000000000000FF
:1031D00000000000000000000000000000000000EF
:1031E00000000000000000000000000000000000DF
:1031F000000000000000000000000008020019EFBD
:10320000E8000000003DDE000080580F3638C08224
:10321000001E3ACABD0000000000000000000000CF
:10322000000000000000000000000000000000009E
:10323000000000000000000000000000000000008E
:10324000000000000000000000000000E24000005C
:103250000000281F0E7B79C000000000ED40000038
:1032600006B18B020C000200C427EBE00000000056
:10327000000000000000000000000000000000004E
:10328000000000000000000000000000000000003E
:10329000000000000000000000000000000000002E
:1032A0000000000000000000310050087EC4000053
:1032B00000001CCF500300001E5F10928C014038AC
:1032C00058F50000000000000000000000000000B1
:1032D00000000000000000000000000000000000EE
:1032E00000000000000000000000000000000000DE
:1032F0000000000000000000000000000000030AC1
:10330000008B765C8000A0403BE0A0001000010D27
:10331000028100C00004360A000000000000000026
:10332000000000000000000000000000000000009D
:10333000000000000000000000000000000000008D
:10334000000000000000000000000000000000007D
:1033500000000000000000D995BB90080A00001D85
:10336000EF50000001809668000080A6016EE40224
:10337000000000000000000000000000000000004D
:10338000000000000000000000000000000000003D
:10339000000000000000000000000000000000002D
:1033A000000000000000000000000000000188088C
:1033B000390000000003605000001490ED3D8000D3
:1033C000060440000E400000000000000000000065
:1033D00000000000000000000000000000000000ED
:1033E00000000000000000000000000000000000DD
:1033F00000000000000000000000000000000000CD
:1034000000000000001BE941080C00471DEF5000C0
:1034100008080F86388081A11E02DA5042000000A1
:10342000000000000000000000000000000000009C
:10343000000000000000000000000000000000008C
:10344000000000000000000000000000000000007C
:1034500000000000000000000000000A10205800DA
:103460000D0203D0A0000000F0E743440014002345
:103470003C042500000000000000000000000000E7
:10348000000000000000000000000000000000003C
:10349000000000000000000000000000000000002C
:1034A000000000500000000000A0007BF8F501C003
:1034B0000110832BD40000284744EB102001810A1F
:1034C00056941080010002CA810000000000000034
:1034D00000000000000000000000000000000000EC
:1034E00000000000000000000000000000000000DC
:1034F00000000000000000000002000000000004C6
:1035000000002C0FF100002090D814000001467438
:1035100000B100000491EB81094000484027E820F9
:10352000000000000000000000000000000000009B
:10353000000000000000000000000000000000008B
:10354000000000000000000000000000000000007B
:103550000000000000000000000000000198188B2F
:10356000E9410C004A63ECCF5000000000B708109E
:10357000402006786EA0000000000000000000005F
:10358000000000000000000000000000000000003B
:10359000000000000000000000000000000000002B
:1035A000000000000000000000000000000000001B
:1035B00000000028001014205000803C7EE05000E5
:1035C00000000009ECE1000001402EB60000000000
:1035D00000000000000000000000000000000000EB
:1035E00000000000000000000000000000000000DB
:1035F00000000000000000000000000000000000CB
:10360000000000005E000000001005F009EE8000E0
:103610000009E28000000100011B3F8810450140C5
:1036200020F8A302000000000000000000000000DD
:10363000000000000000000000000000000000008A
:10364000000000000000000000000000000000007A
:103650000000000000000000000008000000000260
:1036600003AB897B508000014278000000200000FD
:10367000FBE4D100901404000A30000000000000B8
:10368000000000000000000000000000000000003A
:10369000000000000000000000000000000000002A
:1036A0000000000000000000000000000000000812
:1036B0000000061EB100200278000000008000001B
:1036C0000DDAF0020000190000000820007400006C
:1036D00000000000000000000000000000000000EA
:1036E00000000000000000000000000000000000DA
:1036F00000000000000000000000000000000000CA
:10370000000000000000000002DCE7200000400E86
:1037100000000000000000C86F00000800800000EA
:10372000000001C3000000000000000000000000D5
:103730000000000000000000000000000000000089
:103740000000000000000000000000000000000079
:103750000000000000008000000683D80200207AEC
:10376000EA83020A8000036200002002038D9810A1
:103770000080281C5E7440030B00627BAF000000D9
:103780000000000000000000000000000000000039
:103790000000000000000000000000000000000029
:1037A0000000000000000000000000000000000019
:1037B000403D0400C0443C0E300000000F1F30406C
:1037C000000E3C40CC8200000110F533C000100810
:1037D00007B696F0000000000000000000000000A6
:1037E00000000000000000000000000000000000D9
:1037F00000000000000000000000000000000000C9
:10380000000000005000003FC40C001C06FC4242B7
:103810005000818933BC00C00162A7CF500300086B
:103820000EDA1090840000717CD1020000000000CC
:103830000000000000000000000000000000000088
:103840000000000000000000000000000000000078
:103850000000000000000000000000000003FC0069
:10386000C00023BE0A04050009009353C004A0024F
:103870002470A000100070F7428104400004000D85
:103880001000000000000000000000000000000028
:103890000000000000000000000000000000000028
:1038A0000000000000000000000000000000000018
:1038B00000000C000000000000276BA500008071D4
:1038C000B5E280000002601DAE40200181001ABDFB
:1038D0004800003C03CA4042000000000000000015
:1038E00000000000000000000000000000000000D8
:1038F00000000000000000000000000000000000C8
:1039000000000000000000000000000000000006B1
:1039100036F6A000100089343D400000040000E4A9
:10392000000000F005C28000001063DF08540400AE
:103930000000000000000000000000000000000087
:103940000000000000000000000000000000000077
:103950000000000000000000000000000000000067
:1039600000000000000072EA42420000380B6BC009
:10397000000013E035A5062000000832A800010071
:103980000001F8A500000000000000000000000099
:103990000000000000000000000000000000000027
:1039A0000000000000000000000000000000000017
:1039B000000000000000000000000000043F0A04B6
:1039C0001000000FB7744000089E30E081400102F3
:1039D00000F9C3E800140000070AA000000000007E
:1039E00000000000000000000000000000000000D7
:1039F00000000000000000000000000000000000C7
:103A000000000000000000000000000000000000B6
:103A100000A006624AA500000000EDA9090D000300
:103A2000C20D9BD0000001189F2F40000016627B42
:103A3000AF000000000000000000000000000000D7
:103A40000000000000000000000000000000000076
:103A50000000000000000000000000000000000066
:103A600000000000000000040043A6055000000014
:103A700008BC281000002E40CCBE0000000093EAD5
:103A8000F8000014003696F000000000000000006E
:103A90000000000000000000000000000000000026
:103AA0000000000000000000000000000000000016
:103AB0000000000000000000000000000000000402
:103AC000720CB1000000100B2B44000000600DDAF6
:103AD00000000040003E314080000060E8C5020068
:103AE00000000000000000000000000000000000D6
:103AF00000000000000000000000000000000000C6
:103B000000000000000000000000000000000000B5
:103B10000000000000000005E72000000000B37C6A
:103B20000000008000C8600000000000C314000016
:103B30000000030C50000000000000000000000026
:103B40000000000000000000000000000000000075
:103B50000000000000000000000000000000000065
:103B60000000000300000000000004800421DC507D
:103B7000001200000F29090840000014AA3021019A
:103B800081009F2040044600027BA000000000004E
:103B90000000000000000000000000000000000025
:103BA0000000000000000000000000000000000015
:103BB00000000000000000000000200000000000E5
:103BC000008400460105000A100000B428104800D7
:103BD000000010A30020000803EA08008801C37653
:103BE000960000000011010101000000000000002B
:103BF0000000000010000000000000400000000075
:103C0000000100000000000004000000000000109F
:103C10000000000000004000000000100000000054
:103C2000000040000000000001000000000000044F
:103C30000000000000001000000000000040000034
:103C40000000000000000000000002000000000072
:103C500000080000000000002000000000000080BC
:103C6000000000000002000000000000080000004A
:103C7000000200000000000008000000000000201A
:103C800000000000000080000000000002000000B2
:103C9000000000080000000000000000000000001C
:103CA0000000000000000000000000000000000014
:103CB0000000000000000000000000000000000004
:103CC00000000000000000000000000000000000F4
:103CD00000000000000000000000000000000000E4
:103CE00000000000000000000000000000000000D4
:103CF00000000000000000000000000000000000C4
:103D000000000000000000000000000000000000B3
:103D100000000000000000000000000000000000A3
:103D20000000000000000000000000000000000093
:103D30000000000000000000000000000000000083
:103D40000000000000000000000000000000000073
:103D50000000000000000000000000000000000063
:103D60000000000000000000000000000000000053
:103D70000000000000000000000000000000000043
:103D80000000000000000000000000000000000033
:103D90000000000000000000000000000000000023
:103DA0000000000000000000000000000000000013
:103DB0000000000000000000000000000000000003
:103DC00000000000000000000000000000000000F3
:103DD00000000000000000000000000000000000E3
:103DE00000000000000000000000000000000000D3
:103DF00000000000000000000000000000000000C3
:103E000000000000000000000000000000000000B2
:103E1000000000000000000000000700000000009B
:103E20000000000000000000000000000000000092
:103E30000000000000000000000000000000000082
:103E40000000000000000000000000000000000072
:103E50000000000000000000000000000000000062
:103E60000000000000000000000000000000000052
:103E700000800000000000000000000000000000C2
:103E80000000000000000000000000000000000032
:103E90000000000000000000000000000000000022
:103EA0000000000000000000000000000000000012
:103EB0000000000000000000000000000000000002
:103EC00000000000000000000000000000000000F2
:103ED00000000000000000000000000000000000E2
:103EE00000000000000000000000000000000000D2
:103EF00000000000000000000000000000000000C2
:103F000000000000000000000000000000000000B1
:103F100000000000000000000000000000000000A1
:103F20000000000000000000000000000000000091
:103F30000000000000000000000000000000000081
:103F4000040000000000000000000000000000006D
:103F50000000000000000000000000000000000061
:103F60000000000000000000000000000000000051
:103F700000000000000000800000000000000000C1
:103F80000000000000000000000000000000000031
:103F90000000000000000000000000000000000021
:103FA0000000000000000000000000000000000011
:103FB0000000000000000000000000000000000001
:103FC00000000000000000000000000000040000ED
:103FD00000000000000000000000000000000000E1
:103FE00000000000000000000000000000000000D1
:103FF000000000000C0000000000000000000000B5
:1040000000000000000000000000000000000000B0
:1040100000000000000000000000000000000000A0
:104020000000000000000000000000000000000090
:104030000000000000000000000000000000000080
:10404000000000000000000003000000000000006D
:104050000000000000000000000000000000000060
:104060000000000000000000000000000000000050
:104070000000000000000000000000000000000040
:104080000000000000000000000000000000000030
:104090000000000000000000000000000000000818
:1040A0000000000000000000000000000000000010
:1040B0000000000000000000000000000000000000
:1040C00000000000000000000000000000000000F0
:1040D00000000000000000000000000000000000E0
:1045F0000000000000000000000000000000028039
:1046000000000000000000000000000000000000AA
:10461000000000000000000000000000000000009A
:10462000000000000000000000000000000000008A
:10463000000000000000000000000000000000007A
:10464000000000000000000000000000000000006A
:10465000000000000000000000000000000000005A
:10466000000000000000000000000000000000004A
:10467000000000000000000000000000000000003A
:10468000000000000000000000000000000000002A
:10469000000000000000000000000000000000001A
:1046A000000000000000000000000000000000000A
:1046B00000000000000000000000000000000000FA
:1046C00000000000000000000000000000000000EA
:1046D00000000000000000000000000000000000DA
:1046E00000000000000000000000000000000000CA
:1046F000000000002000100D801580000000000068
:1047000000000000000000000000000000000000A9
:104710000000000000000000000000000000000099
:104720000000000000000000000000000000000089
:104730000000000000000000000000000000000079
:1047400000000000000000000000010008005A14F2
:104750001000000000000000000000000000000049
:104760000000000000000000000000000000000049
:104770000000000000000000000000000000000039
:104780000000000000000000000000000000000029
:104790000000000000000000000000000000000019
:1047A00000000010898015200000000000000000BB
:1047B00000100000000000000000000000000000E9
:1047C00000000000000000000000000000000000E9
:1047D00000000000000000000000000000000000D9
:1047E00000000000000000000000000000000000C9
:1047F00000000000000000000009815A1430000091
:104800000000000000000000C000000000000000E8
:104810000000000000000000000000000000000098
:104820000000000000000000000000000000000088
:1048300000000000000000000000000000800000F8
:104840000000000000000000000000000000000068
:10485000000D001520000000000000000000000016
:104860000000000000000000000000000000000048
:104870000000000000000000000000000000000038
:104880000000000000000000000000000000000028
:104890000000001400000000000000000000000004
:1048A00000000000000000005A1438000000000062
:1048B00000000000000000000000000000000000F8
:1048C00000000000000000000000000000000000E8
:1048D00000000000000000000000000000000000D8
:1048E00000000000000000000000000000000000C8
:1048F00000000000000800000000000000000900A7
:104900001520000000000000000000000000000072
:104910000C0000000000000000000000000000008B
:104920000000000000000000000000000000000087
:104930000000000000000000000000000000000077
:104940000000000000000000000000001000000057
:1049500000000000007A1438000000000000000091
:104960000000000000000000000000000000000047
:104970000000000000000000000000000000000037
:104980000000000000000000000000000000000027
:104990000000000000000000000000000000000017
:1049A00000000000000000000000008D80152000C5
:1049B00000000000000000000008280000000000C7
:1049C00000000000000000000000000000000000E7
:1049D00000000000000000000000000000000000D7
:1049E00000000000000000000000000000000000C7
:1049F00000000000000000000000000000000000B7
:104A0000019952143000000000000000000000076F
:104A10002A8080000000000000000000000000006C
:104A20000000000000000000000000000000000086
:104A30000000000000000000000000000000000076
:104A40000000000000000000000000000000000066
:104A50000000000000000000998015200000000008
:104A60000000000000000000000040000000000006
:104A70000000000000000000000000000000000036
:104A80000000000000000000000000000000000026
:104A90000000000000000000000000000000000412
:104AA000000000000000000000000001000019727A
:104AB0001430000000000000000000700000000042
:104AC00008000000000000000000000000000000DE
:104AD00000000000000000000000000000000000D6
:104AE00000000000000000000000000000000000C6
:104AF00000000000000000000000000000000000B6
:104B000000000000000D001500000400000000007F
:104B10000000000000000000000000000000000095
:104B20000000000000000000000000000000000085
:104B30000000000000000000000000000000000075
:104B40000000000000000000000000000000000065
:104B50000000000000000000008000007214380017
:104B600000800000000000000000000000000000C5
:104B70000000000000000000000000000000000035
:104B80000000000000000000000000000000000025
:104B90000000000000000000000000000000000015
:104BA00000000020000000000000000000000000E5
:104BB0000000990015100000000000000000000037
:104BC00000000000000000000000000000000000E5
:104BD00000000000000000000000000000000000D5
:104BE00000000000000000000000000000000000C5
:104BF00000000000000000000000000000000000B5
:104C000000000000000000000172143210000000DB
:104C10000000000000000000000000000000000094
:104C20000000000000000000000000000000000084
:104C30000000000000000000000000000000000074
:104C40000000000000000000000000000000000064
:104C50000000000000000000000000002000100F15
:104C6000801504000003C0000000000000000000E8
:104C70000000000000000000000000000000000034
:104C80000000000000000000000000000000000024
:104C90000000000000000000000000000000000014
:104CA0000000000000000000000000000000000004
:104CB0000000010008187A14300000000000000015
:104CC00000000000000000000000000000000000E4
:104CD00000000000000000000000000000000000D4
:104CE00000000000000000000000000000000000C4
:104CF00000000000000000000000000000000000B4
:104D0000000000000000000000000010AB8015044F
:104D1000040000000000000000000000000000008F
:104D20000000000000000000000000000000000083
:104D30000000000000000000000000000000000073
:104D40000000000000000000000000000000000063
:104D50000000000000000000000000000000000053
:104D60000009815A1430000000000000000000001B
:104D70000000000000000000000000000000000033
:104D80000000000000000000000000000000000023
:104D90000000000000000000000000000000000013
:104DA0000000000000000000000000000000000003
:104DB0000000000000000000000F001520000000AF
:104DC00000000000000000000000000000000000E3
:104DD00000000000000000000000000000000000D3
:104DE00000000000000000000000000000000000C3
:104DF00000000000000000000000000000000000B3
:104E000000000000000000000000000000000000A2
:104E10005A143000000000000000000000000000F4
:104E20000000000000000000000000000000000082
:104E30000000000000000000000000000000000072
:104E40000000000000000000000000000000000062
:104E500000000000000000000000000000A00000B2
:104E6000000000000000AB0015200000030000005F
:104E70000000000000000000000000000000000032
:104E80000000000000000000000000000000000022
:104E90000000000000000000000000000000000012
:104EA0000000000000000000000000000000000002
:104EB000000000040000000000000000017A14302F
:104EC00000000004000000000000000000000000DE
:104ED00000000000000000000000000000000000D2
:104EE00000000000000000000000000000000000C2
:104EF00000000000000000000000000000000000B2
:104F000000000000000000000000000000000000A1
:104F10000000008F8015000000000000000000006D
:104F20000000000001000000000000000000000080
:104F30000000000000000000000000000000000071
:104F40000000000000000000000000000000000061
:104F50000000000000000000000000000000000051
:104F600000000000000000000181521430400000E9
:104F70000000000000000000000000100000000021
:104F80000000000000000000000000000000000021
:104F90000000000000000000000000000000000011
:104FA0000000000000000000000000000000000001
:104FB00000000000000000000000000000000000F1
:104FC0008B8015000000002FAA5000000000000098
:104FD00000000000000000000000000000000000D1
:104FE00000000000000000000000000000000000C1
:104FF00000000000000000000000000000000000B1
:1050000000000000000000000000000000000000A0
:105010000000000100001952143040001E005EA480
:105020000000000000000000000000000000000080
:105030000000000000000000000000000000000070
:105040000000000000000000000000000000000060
:105050000000000000000000000000000000000050
:10506000000000000000000000000000000F00151C
:105070000000000000000000000000000000000030
:105080000000000000000000000000000000000020
:105090000000000000000000000000000000000010
:1050A0000000000000000000000000000000000000
:1050B00000000000000000000000000000000000F0
:1050C00000800000721432000000000000000000A8
:1050D00000000000000000000000000000000000D0
:1050E00000000000000000000000000000000000C0
:1050F00000000000000000000000000000000000B0
:10510000000000000000000000000000000000009F
:10511000000000000000000000000B00151000005F
:10512000000000000000000000000000000000007F
:10513000000000000000000000000000000000006F
:10514000000000000000000000000000000000005F
:10515000000000000000000000000000000000004F
:10516000000000000000000000000000000000003F
:10517000007214320000003800000000000000003F
:10518000000000000000000000000000000000001F
:10519000000000000000000000000000000000000F
:1051A00000000000000000000000000000000000FF
:1051B00000000000000000000000000000000000EF
:1051C000000000002000100F801502000000000009
:1051D0000000000000000000080000025C20000049
:1051E00000000000000000000000000000000000BF
:1051F00000000000000000000000000000000000AF
:10520000000000000000000000000000000000009E
:1052100000000000000000000000010008187A14DF
:10522000300000000000000000000000000000400E
:10523000000025C000800000000000000000000009
:10524000000000000000000000000000000000005E
:10525000000000000000000000000000000000004E
:10526000000000000000000000000000000000003E
:1052700000000010AB8015200A00000000000000B4
:10528000000000000000000022C8400000000000F4
:10529000000000000000000000000000000000000E
:1052A00000000000000000000000000000000000FE
:1052B00000000000000000000000000000000000EE
:1052C00000000000000000000009805A1430004077
:1052D00000000000000000000000000000000021AD
:1052E0008800000000000000000000000000000036
:1052F00000000000000000000000000000000000AE
:10530000000000000000000000000000000000009D
:10531000000000000000000000000000000000404D
:10532000000F001502000000000000000000000057
:105330000000001004300000000000000000000029
:10534000000000000000000000000000000000005D
:10535000000000000000000000000000000000004D
:10536000000000000000000000000000000000003D
:1053700000000000000000005A143040000000004F
:1053800000000000040000000000000040000000D9
:10539000000000000000000000000000000000000D
:1053A00000000000000000000000000000000000FD
:1053B00000000000000000000000000000000000ED
:1053C0000000000000000000000000004000AB00F2
:1053D00015000000000000000000000000000000B8
:1053E00010000000000000000000000000000000AD
:1053F00000000000000000000000000000000000AD
:10540000000000000000000000000000000000009C
:10541000000000000000000000000000000000008C
:1054200000000400007A143050000000000000006A
:105430000000000000000001E0000000000000008B
:10544000000000000000000000000000000000005C
:10545000000000000000000000000000000000004C
:10546000000000000000000000000000000000003C
:1054700000000000000000000000008F8015000008
:105480000000000000000000000000000000140008
:10549000000000000000000000000000000000000C
:1054A00000000000000000000000000000000000FC
:1054B00000000000000000000000000000000000EC
:1054C00000000000000000000000000000000000DC
:1054D00001815214301000000000000000000000A4
:1054E0000000000001C000000000000000000000FB
:1054F00000000000000000000000000000000000AC
:10550000000000000000000000000000000000009B
:10551000000000000000000000000000000000008B
:1055200000000000000000008B801500000000005B
:105530000000000000000000000C008000000000DF
:10554000000000000000000000000000000000005B
:10555000000000000000000000000000000000004B
:10556000000000000000000000000000000000003B
:1055700000000000000000000000000100001952BF
:10558000143010000000000000003800000000008F
:105590004000028000000000000000000000000049
:1055A00000000000000000000000000000000000FB
:1055B00000000000000000000000000000000000EB
:1055C00000000000000000000000000000000000DB
:1055D00000000000000F00150000000000000000A7
:1055E0000000000000000000024000000000000079
:1055F00000000000000000000000000000000000AB
:10560000000000000000000000000000000000009A
:10561000000000000000000000000000000000008A
:105620000000000000000000008000007214320042
:105630000000000000000000000000000020004703
:10564000000000000000000000000000000000005A
:10565000000000000000000000000000000000004A
:10566000000000000000000000000000000000003A
:10567000000000000000000000000000000000002A
:1056800000000B00150800000000000000000000F2
:1056900000000000003C00EACF40000000000000D5
:1056A00000000000000000000000000000000000FA
:1056B00000000000000000000000000000000000EA
:1056C00000000000000000000000000000000000DA
:1056D00000000000000000000072143040000000D4
:1056E000000000000000000000000002003DBC744B
:1056F000800000000000000000000000000000002A
:105700000000000000000000000000000000000099
:105710000000000000000000000000000000000089
:10572000001000000000000024CF0000008400EF03
:10573000B300008000002FBF7C880000803F400045
:1057400000000002EE7F00000000000000000000EA
:105750000000000000000000000000000000000049
:105760000000000000000000000000000000000039
:105770000000000000000001C00000000001C06C3B
:10578000ECC000102001962000040000027AF550C1
:10579000000878012B30800000000F8FF008000017
:1057A00000000000000000000000000000000000F9
:1057B00000000000000000000000000000000000E9
:1057C00000000000000000000000000000000000D9
:1057D00000000000023AFE0000000000E0000000AF
:1057E0000800000000000000018900000000001413
:1057F0004000000000000000000000000000000069
:105800000000000000000000000000000000000098
:105810000000000000000000000000000000000088
:105820000000000079E00000000000601FDCC00004
:105830001020010000000000000000000000407087
:105840000000000001000600000000000000000051
:105850000000000000000000000000000000000048
:105860000000000000000000000000000000000038
:10587000000000000000000000040080370000006D
:10588000100260000000004000C003C001010000E1
:10589000000000000400090000000010003C0000AF
:1058A00000000000000000000000000000000000F8
:1058B00000000000000000000000000000000000E8
:1058C00000000000000000000000000000000000D8
:1058D00040700DEB300001004640000000078001E1
:1058E000023C040000006000000000000000000016
:1058F00000000000000000000000000000000000A8
:105900000000000000000000000000000000000097
:105910000000000000000000000000000000000087
:105920000000000000000407800000000010243C7C
:1059300000F0210040080037C00003000000000014
:10594000000440000000000010044040AF000000D0
:105950000000000000000000000000000000000047
:105960000000000000000000000000000000000037
:1059700000000000000000000000000000007000B7
:10598000000000000200408F0200000100527C2055
:1059900040500000000000000279E000000000021A
:1059A00003A0E5F00000000000000000000000007F
:1059B00000000000000000000000000000000000E7
:1059C00000000000000000000000000000000000D7
:1059D00000000000050000000000000000200000A2
:1059E000000470E028000002000000000000438F67
:1059F0000953C0040000022240F200000000000031
:105A00000000000000000000000000000000000096
:105A10000000000000000000000000000000000086
:105A2000000000000000000000000039C00000007D
:105A30000000000E000800002801004020000000C7
:105A400068000000040080F92B30000001E036CF30
:105A500050200000000000000000000000000000D6
:105A60000000000000000000000000000000000036
:105A70000000000000000000000000000000000026
:105A800000000A7FC0000000140000000000007049
:105A900000800000000003C0000000000D907F4067
:105AA0000400000024580000000000000000000076
:105AB00000000000000000000000000000000000E6
:105AC00000000000000000000000000000000000D6
:105AD000000000000000000000052330000002006C
:105AE00014000800000800700020040000040000FA
:105AF0000000009985E7300000A0007CAA1000009B
:105B00000000000000000000000000000000000095
:105B10000000000000000000000000000000000085
:105B20000000000000000000000000000000000075
:105B300000000000000000200000000050F0800085
:105B400000000002400000000000101BA000000048
:105B50003C400000000000000000000000000000C9
:105B60000000000000000000000000000000000035
:105B70000000000000000000000000000000000025
:105B800000000000005000000000000006040008B3
:105B900000038800180020020140040000000000FB
:105BA0000185F800400000078000000000000000B0
:105BB00000000000000000000000000000000000E5
:105BC00000000000000000000000000000000000D5
:105BD0000000000000000000000000000033C000D2
:105BE00000000028200004000000F08000100200E7
:105BF00000000000004009990417C400002437F990
:105C00000000000000000000000000000000000094
:105C10000000000000000000000000000000000084
:105C20000000000000000000000000000000000074
:105C3000000000A5E73000000000460008002950E1
:105C400000580020000000000000000400F9D521E9
:105C50007C000000005782000000000000000000EF
:105C60000000000000000000000000000000000034
:105C70000000000000000000000000000000000024
:105C80000000000000000000000E002A800000005C
:105C900000200000000008000000000000000000DC
:105CA000000000050000000000003E0000AA000007
:105CB00000000000000000000000000000000000E4
:105CC00000000000000000000000000000000000D4
:105CD00000000000000000000000000000000000C4
:105CE0000122A800000000040008000001807000EC
:105CF0002000001C00000000000080E00000000008
:105D000000C2068AA00000000000000000000000A1
:105D10000000000000000000000000000000000083
:105D20000000000000000000000000000000000073
:105D3000000000000000080B65800000002000004B
:105D40000000000800800000000022400000000069
:105D50000090FF5280100000402D960000000000CF
:105D60000000000000000000000000000000000033
:105D70000000000000000000000000000000000023
:105D80000000000000000000000000000001265A92
:105D900000000000160008000001805000200000F4
:105DA0000E00000000000070EBE91C00000003146E
:105DB00099680000000000000000000000000000E2
:105DC00000000000000000000000000000000000D3
:105DD00000000000000000000000000000000000C3
:105DE0000000000E03E5800000020000000000003B
:105DF00000000000000000C034D0000000001000CF
:105E00000000004003640D96000000000000000048
:105E10000000000000000000000000000000000082
:105E20000000000000000000000000000000000072
:105E30000000000000000000000005265A000001DC
:105E4000400400080000058050002000003C3ADAC1
:105E5000CC00000059800000000201631699680020
:105E60000000000000000000000000000000000032
:105E70000000000000000000000000000000000022
:105E80000000000000000000000000000000000012
:105E90000803658000000000000000000000A00072
:105EA00000000803E4030F508000001F0000000002
:105EB0000000000D9600000000000000000000003F
:105EC00000000000000000000000000000000000D2
:105ED00000000000000000000000000000000000C2
:105EE0000000000000000005A65A00000000140099
:105EF0000800000001180020000004706EF51180F9
:105F00000001A00000000000001E996800000000D1
:105F10000000000000000000000000000000000081
:105F20000000000000000000000000000000000071
:105F30000000000000000000000000000B000BE566
:105F400080000014382000000000700000000000F5
:105F50000023CCD0010000000EB40280000000003D
:105F60002D9600000000000000000000000000006E
:105F70000000000000000000000000000000000021
:105F80000000000000000000000000000000000011
:105F90000000009083265A00000000460008000020
:105FA000000078002000001E03DDCC00000000008F
:105FB0002014000001C01E996800000000000000CD
:105FC00000000000000000000000000000000000D1
:105FD00000000000000000000000000000000000C1
:105FE00000000000000000000000000AE580000042
