:100000005555AAAA4312000000000000000000009D
:100010006682000000000000000000000D8CE8CEA9
:1000200000011000E1070000890200009F020000AB
:10003000B5020000CB020000E10200000000000059
:10004000000000000000000000000000212300006C
:100050002523000000000000F70200002723000015
:100060002923000057210000992300008F21000060
:1000700041230000452300004923000057230000CE
:1000800073230000752300007723000095230000F0
:10009000972300009B2300000000000000000000E8
:1000A0009D2300009F2300000000000000000000CE
:1000B00000000000A1230000A3230000A5210000F0
:1000C000A5230000B323000009030000CB23000098
:1000D000CD23000000000000000000000000000030
:1000E0004312000000F002F800F05AF80AA090E86D
:1000F000000C82448344AAF10107DA4501D100F0E3
:100100004FF8AFF2090EBAE80F0013F0010F18BF55
:10011000FB1A43F0010318472003010040030100CC
:100120000A444FF0000C10F8013B13F0070408BF1D
:1001300010F8014B1D1108BF10F8015B641E05D0BB
:1001400010F8016B641E01F8016BF9D113F0080F70
:100150001EBF10F8014BAD1C0C1B09D16D1E58BF02
:1001600001F801CBFAD505E014F8016B01F8016B39
:100170006D1EF9D59142D6D37047000000230024AC
:1001800000250026103A28BF78C1FBD8520728BFA7
:1001900030C148BF0B6070471FB51FBD10B510BD03
:1001A000DFF80CD0FFF7F8FF02F03EFA0FF034FF53
:1001B0000001100003B4FFF7F1FF03BC0FF034FFA0
:1001C0000A484FF0FF0101704FF0000080F31188E2
:1001D0004FF0000080F3098805484FF002010170DC
:1001E00062B604484FF080510160704722ED00E094
:1001F0000001100004ED00E002484FF08051016062
:100200007047000004ED00E04FF0200080F31188FB
:10021000EFF3098098B112480068124909688842D2
:1002200017D0EFF309800E49096820E9F00F8860C4
:1002300000B50B48006800F0F2F85DF804EB0848E0
:1002400008490A68026000688168B1E8F00F81F32C
:1002500009884EF0040E4FF0000080F311887047BB
:100260000401100008011000EFF311804FF020018D
:1002700081F31188704700004FF0000080F311886F
:100280007047000062B6704772B6704740BA704758
:10029000C0BA7047401E0028FCDC704700BE7047A3
:1002A00040BA7047C0BA70471EF0040F0CBFEFF39E
:1002B0000880EFF309804FF0010101F0A1BF1EF0AB
:1002C000040F0CBFEFF30880EFF309804FF0020139
:1002D00001F096BF1EF0040F0CBFEFF30880EFF3A0
:1002E00009804FF0030101F08BBF1EF0040F0CBF1B
:1002F000EFF30880EFF309804FF0040101F080BFB5
:100300001EF0040F0CBFEFF30880EFF309804FF0ED
:10031000050101F075BF4FF0000000B502F025FEA9
:100320005DF804EBFFF770BF1EF0040F0CBFEFF396
:100330000880EFF309804FF0000101F061BF000079
:10034000194910B5012008701849002008601849A3
:100350000860184908601849086000F0A7F900F023
:1003600039F900F063F8002010BD10B5114800F015
:1003700018F90F4908600D490968884207D00A48F2
:100380000078022803D1BDE81040FFF735BF10BD4B
:1003900010B5FFF7EAFF044902200870FFF710FFCD
:1003A0004FF0FF3010BD00000001100004011000EC
:1003B000080110000C0110001001100070B50D466E
:1003C0000446C1698068CC220FF029FDE169A0686C
:1003D000084440384FF08071C163216A8163002175
:1003E00041630163C1628162C0E908514FF00B3182
:1003F000C1614FF00A3181614FF0093141614FF025
:10040000083101614FF00731C1604FF00631816062
:100410004FF0053141604FF00431016070BD8269D9
:100420008168914201D802F0A8B9704710B54FF425
:10043000B47146480FF01DFD002010BD70B5054693
:1004400000EBC501414800EB8104FFF70DFF0646B4
:10045000207828B13046FFF70FFF6FF0010070BD24
:100460000320207000206560206204F11C0000F071
:1004700071F83046FFF700FF002070BD2DE9F04114
:100480000F463249002500EBC00001EB80042E46E8
:10049000FFF7EAFE8046206A3843206204F11C0020
:1004A000074600F07EF80CE0216A026C114203D08E
:1004B00000F054F9012600E06D1C2946384600F092
:1004C00066F80028F0D1012E01D1FFF74EFF40461B
:1004D000FFF7D2FE0020BDE8F08170B50D461B4944
:1004E00000EBC00001EB8004FFF7BEFE216AA943C8
:1004F0002162FFF7C1FE002070BD2DE9F0410D46DD
:10050000124900EBC0001E46904601EB8004FFF745
:10051000ABFE07460E4800680564216A294203D1F4
:1005200004F11C0100F02CF93846FFF7A5FEFFF797
:100530009BFE216A29403160B8F1010F02D1216A86
:10054000A9432162FFF798FE0020C4E7980310003A
:1005500004011000002101600846704730B50A68A8
:1005600012B10B46C46B09E000220860C0E9032108
:100570000BE000BF02F10C03D26812B1D56BA542AB
:10058000F8DC1A68C0E903211860002030BD00685B
:10059000002201E0C068521C8A4201D00028F9D133
:1005A00070470068704702690AB1116831B96FF08D
:1005B0000400704701F10C02C96839B18142F9D1D8
:1005C000C968116000210161084670476FF003009F
:1005D0007047000010B54FF4C87132480FF049FC65
:1005E000002010BD2DE9F041884605462D4900EB5D
:1005F0008500174601EBC004FFF736FE064620785B
:1006000030B13046FFF738FE6FF00100BDE8F081F1
:1006100002202070E7611422414604F10800656061
:100620000FF0B8FB0020206204F12400FFF792FFD6
:100630003046FFF721FE0020E8E770B5194900EBCE
:10064000800001EBC004FFF70FFE0546D4E9070167
:10065000814205DB144804F12401006800F090F8A1
:10066000206A401C20622846FFF706FE002070BD6D
:1006700070B50C4900EB800001EBC004FFF7F4FDFE
:100680000546206A08B1401E206204F12400FFF7ED
:1006900088FF10B1606A00F011F82846FFF7ECFD02
:1006A000002070BD000510000401100010B54FF4CB
:1006B0002A7140480FF0DDFB002010BD10B5044644
:1006C00090F8380002280BD02046FFF76CFF02207C
:1006D00084F8380038492046FFF740FFFFF745FE11
:1006E000002010BD2DE9F05F8B460646314900EB36
:1006F00006109046DDE90AA911F820201D461AB11E
:100700006FF00100BDE8F09F01EB8004FFF7ACFD46
:10071000074601202070C4E90165C4E90585C4E9E4
:1007200007A91422594604F124000FF033FB0020DE
:1007300084F8370084F838006169E0602061C4E91A
:100740000F1020460C99FFF739FEA0602046FFF7F6
:10075000B5FF3846FFF790FD0020D3E710B50446FB
:1007600090F83800022809D02046FFF71CFF02202D
:1007700084F8380010492046FFF7F0FE002010BD35
:1007800070B5044690F838000D4602280BD120467B
:10079000FFF709FF032084F8380029462046FFF7B9
:1007A000DDFEFFF7E2FD002070BD044800684068F0
:1007B00070470000900610000C01100004011000AA
:1007C000F0B58446002004460C4F14E05CF8246029
:1007D0000323DD0046FA05F280EA026008250028BE
:1007E00002DA87EA400000E040006D1E002DF6DCD2
:1007F0005B1EEED5641C8C42E8DBF0BD1B00008064
:100800001248804712480047FEE7FEE7FEE7FEE792
:10081000FEE7FEE7FEE7FEE7FEE7FEE7FEE7FEE7B0
:10082000FEE7FEE7FEE7FEE7FEE7FEE7FEE7FEE7A0
:10083000FEE7FEE7FEE7FEE7FEE7FEE7FEE7FEE790
:10084000FEE7FEE7FEE7FEE7FEE70000890800009E
:10085000C50000001E4800684FF00051002891F8C4
:10086000210000F01C000DD0042805D0082805D078
:100870000C2805D096200CE011200AE0252008E085
:100880004B2006E0042809D0082809D00C2809D0FC
:100890007020401E01F82C0F087070470C20F8E7FC
:1008A0001B20F6E73720F4E770470A4993200870C9
:1008B000D0E708490B200870CCE70548006818B954
:1008C00004480078932801D0002070470120704729
:1008D000340400222100002070B5042000F037F914
:1008E000052000F034F9062000F031F9072000F06F
:1008F0002EF9082000F02BF9182000F028F9192013
:1009000000F025F91A2000F022F9A2490020086021
:10091000A04A403210609F4B183B18609D4B083333
:1009200018609D4CE0719B4B143B1860994B0C3345
:1009300018602072974B103B1860964B103318606C
:100940006072944B0C3B1860924B14331860A07289
:10095000904B083B18608F4B18331860E0728D4B3A
:1009600028331860A0731E1D3060E073331D1860BB
:10097000207401250D60156025700621042000F00B
:10098000FEF80621052000F0FAF80621084600F0DE
:10099000F6F80621072000F0F2F80621082000F002
:1009A000EEF80621182000F0EAF80621192000F0E0
:1009B000E6F804211A2000F0E2F8042000F0D3F851
:1009C000052000F0D0F8062000F0CDF8072000F058
:1009D000CAF8082000F0C7F8182000F0C4F8192061
:1009E00000F0C1F81A2000F0BEF8042000F0A3F8CF
:1009F000052000F0A0F8062000F09DF8072000F088
:100A00009AF8082000F097F8182000F094F81A20BF
:100A100000F091F8FF20E070356070BD5D49002066
:100A200018390860704700EB80005A4940000022E6
:100A300010390A60584AD21E1070012008607047B1
:100A40005449002010390860704700EB800051497C
:100A5000400000220C390A604F4A921E107001209B
:100A6000086070474B4900200C3908607047494ABC
:100A700010B5283214680123D1065CB1002414603B
:100A800081F8350091F8420091F842408442FBD051
:100A9000136010BD81F83500FAE700EBC00101EBEF
:100AA00000106FF0030101EB800010B53B493C4C96
:100AB0000978B0FBF1F0401E80B2FF280CD9010A82
:100AC0002170494200EB01206070FF20FFF7CFFF4B
:100AD0002078401E207010BD002121706170BDE89B
:100AE0001040C0B2C3E72B4828300168002909D064
:100AF00000210160C10691F8420000BF91F8422038
:100B00008242FBD0704710B5254C2178607851EABD
:100B1000000207D051B1FF20FFF7A9FF2078401E47
:100B2000207010BDBDE8104008F063BEFFF79FFFC6
:100B30000020607010BD00F01F02012191404009AB
:100B40004FF0E02202EB8000C0F80011704700F087
:100B50001F020121914040094FF0E02202EB80008A
:100B6000C0F88011704700F01F0201219140400938
:100B70004FF0E02202EB8000C0F880127047490776
:100B8000090E002803DA00F00F00064A00E0064ACA
:100B9000815470471C05002233000020830110009F
:100BA0001401100014ED00E000E400E059480121B8
:100BB0000160002101607047574801210160002158
:100BC0000160704710B5002000F08BF853480022F8
:100BD0000260FFF7F1FFFFF7E9FF5148026051495A
:100BE000A0200870002000F088F8BDE81040002028
:100BF00000F06BB84A4801211C38016000210160F7
:100C0000704710B50446002000F06BF84348414996
:100C1000046001200860002000F06FF8BDE810407B
:100C2000002000F052B830B53C4889B00468002C70
:100C300011D0202168460FF01CF93B4800783A4B50
:100C400000216A465B1C02E0CD5C5554491C814280
:100C5000FADB1146A04709B030BD2E4901201C39EE
:100C6000086070473048203000782F4921310978DA
:100C7000401A00F03F0070472C4902780A70427811
:100C80004A7082788A70C278CA7002790A71427991
:100C90004A7182798A71C079C871704724480068A6
:100CA000417882784FF00050437A0374214B1B78CF
:100CB000437443891B0A83744389C3740175427565
:100CC000C1798175017AC175704700F01F02012159
:100CD000914040094FF0E02202EB8000C0F8001183
:100CE000704700F01F020121914040094FF0E022BF
:100CF00002EB8000C0F88011704700F01F02012154
:100D0000914040094FF0E02202EB8000C0F88012D1
:100D1000704700005C840022A0000022180110002F
:100D20007C04002200E400E0000400200002002017
:100D3000280110007801100010B5092000F053F8C8
:100D40000A2000F050F8092000F059F80A2000F0BD
:100D500056F80521092000F05EF805210A2000F070
:100D60005AF832487F21417081700171002100F8EA
:100D700048192F490A684FF0010192F8C830DC0782
:100D80000AD09C0708D590F84A40C3F3820301FAC1
:100D900003F39C4380F84A4092F81E31DC0721D0CF
:100DA000C3F34203012B03D0224B4FF480641C6039
:100DB0004830837802F58F721478C4F3420401FA44
:100DC00004F4A343837003791478C4F3420401FA52
:100DD00004F42343037103781278C2F34202914072
:100DE0000B43037010BD00F01F0201219140400928
:100DF0004FF0E02202EB8000C0F88011704700F055
:100E00001F020121914040094FF0E02202EB8000D7
:100E1000C0F8801270474907090E002803DA00F075
:100E20000F00054A00E0054A815470474800002041
:100E30002801100000E100E014ED00E000E400E013
:100E4000704730B5CC4A00245470AA2102F88819A2
:100E5000CA490C60012341F8B43900BFD1F8C05031
:100E6000002DFBD1D2F890500560AB2582F8885058
:100E7000C1F8B440C1F8B430D1F8C050002DFBD156
:100E8000D2F890504560AC2582F88850C1F8B44043
:100E9000C1F8B430D1F8C030002BFBD1D2F890109B
:100EA000816030BD10B5B44C072060700020207008
:100EB00044F2C000608000BF00BF00BF4CF2C00021
:100EC000608000BF00BF00BF4CF2E00060800920DE
:100ED000FFF7E0F944F2E000608000BF00BF00BF10
:100EE0004FF48040608010BDF0B500252E464FF0D5
:100EF0000054E02717E000BF883401F03F01607024
:100F00002170678000BF00BF00BFD4F808C043F85D
:100F100025C06680883C00BF6D1C521E491C3F29BD
:100F200001D9401CC0B2002AE6DCF0BD2DE9F04733
:100F3000914D0026AD1C04462E80DFF84092012121
:100F4000A9F1B409C9F880104FF4C058A5F8008081
:100F500000BF00BF00BF00BF00BF4FF480572F800D
:100F60003520FFF797F92E80FFF79CFF00F0C6F8B9
:100F70005C2000F0D4F82346012208210020FFF76E
:100F8000B3FF231D012209210020FFF7ADFF04F16B
:100F9000080301220A210020FFF7A6FF04F10C0339
:100FA00001220B210020FFF79FFF04F11003012213
:100FB0000C210020FFF798FF04F1140301220D21FA
:100FC0000020FFF791FF00F099F8FFF76BFF2F80EB
:100FD00000BF00BF00BF00BF00BF00BF00BF00BF19
:100FE00000BF00BFA5F8008000BF00BF00BF00BF6A
:100FF00000BF4FF440602880C9F88060BDE8F087EA
:10100000F0B54FF0000C059C0CB14FF0800C5B4C20
:101010000026C5B24FF00057B43C27E087F889504E
:101020004FEAC05EBEF1000F01F03F0E4EEA0C0E1B
:1010300001DA4EF0400E87F888E053F826E0C7F852
:101040008CE04FF0010EC4F8B0E04FF0000EC4F891
:10105000B0E0491CC9B2402902D36D1CEDB2002199
:10106000D4F8C0E0BEF1000FFAD1761C9642D5DB71
:10107000F0BD4FF0005282F88900002309B18020B2
:1010800002E0C00503D5402082F8880001E082F824
:1010900088303A480121B438C0F8AC10C0F8AC3000
:1010A000D0F8C0100029FBD17047F8B50C460546B2
:1010B0004FF4F47600213046FFF7DBFF00200146B5
:1010C00000902B4622463046FFF79AFFF8BDF8B550
:1010D0000C4605464FF4F87600213046FFF7C9FF6D
:1010E00000214FF4FC70FFF7C4FF00200146009080
:1010F0002B4622463046FFF783FFF8BD10B51E4C45
:101100004FF48040A41C20800420FFF7C3F8002087
:10111000208000BF00BF00BF00BF00BF10BD70B582
:10112000154C2126A41C268000BF00BF00BF00BFB5
:1011300000BF40F02105258000BF00BF00BF00BFF9
:1011400000BF44F22101084320800420FFF7A2F8E9
:10115000258000BF00BF00BF00BF00BF268000BFCA
:1011600000BF00BF00BF00BF0020208000BF00BF45
:1011700000BF00BF00BF70BD88000020B410002277
:10118000F8B5FB4C0026354626700120A66000F01D
:1011900050FC0C2000F04DFC032000F04AFC17200E
:1011A00000F047FC012000F050FC0C2000F04DFC4A
:1011B000032000F04AFC172000F047FC00F0D7FDA8
:1011C0006A460221EB4800F0BEFFEB499DF80100A2
:1011D00008709DF80000532800D003260521012047
:1011E00000F03FFC05210C2000F03BFC0621032011
:1011F00000F037FC0621172000F033FC012000F03E
:101200000CFC032000F009FC172000F006FCA57080
:101210006570E5703046F8BD38B50D46009014464F
:101220000421684601F0B0FAD4498978C90602D58C
:10123000062D00D1401C0099A16484F8440038BDFB
:101240002DE9F047CD4C0646CD4D002084F83C00FA
:1012500029684FF002084FF0E90991F845076074DA
:10126000C8484FF0010AC0F30E072046042E806ADA
:1012700006D0032E1DD0022E3DD0052E56D07CE088
:10128000BE4A3146FFF7C8FFE06A2065E787A078CD
:1012900080060028286890F8590703DA20F0060035
:1012A00040F0040084F8420084F8438084F84090C1
:1012B00063E0B24A3146FFF7AFFFE06A2065AF480E
:1012C0000421283001F060FAAE4901EB8000C0F340
:1012D0000E00E087A07880060028286890F859075B
:1012E00003DA20F0060040F0040084F8420084F89D
:1012F0004380ED2017E0A14A3146FFF78DFFE06AF9
:101300002065E787A07880060028286890F85907AC
:1013100003DA20F0060040F0040084F842000420C4
:1013200084F84300E52084F8400026E0A278920685
:1013300023D501F2C9310A7804F8342FCA78A27093
:101340004A7862718978A17184F808A08B4A314685
:10135000FFF762FF8B48F830C0F30E006081286809
:1013600090F8590720F0060040F00200A07384F8BE
:101370000F8084F80C90A4F13404286890F80A17C0
:10138000C90708D08049C1F800A014F8410F40F007
:101390000300207008E0A17890F86C07890701D558
:1013A00020F0030084F8410071484670BDE8F04722
:1013B000724800F0BEBD72487049006890F8002283
:1013C0004A7790F80122CA744A88D20504D490F86A
:1013D000022202F00F028A7400F20320027802F067
:1013E0003F020A75B0F801200A83C2788A76674AFC
:1013F0000079127800F0F00040EA1210C8767047C9
:101400002DE9F0415D4C05464FF000085C4E84F834
:101410003C80E12084F8400030685C4B544F90F8E9
:101420004517617490F80A17CA075949C1F30E01AC
:1014300001D0012D04D0062D1ED0072D30D03CE068
:10144000E27C3A7162887A714FF00A0C84F813C01A
:1014500042F001026280E18790F853171A7801F098
:10146000F00102F00F021143E17690F85507607722
:10147000424A294601200FE0E18790F853171A7875
:1014800001F0F00102F00F021143E17690F85507E8
:1014900060773A4A2946A068FFF7BEFEE0680BE095
:1014A0003C48C0F30E00E087FFF785FF334A29462A
:1014B000206AFFF7B1FE606A20656188C80705D021
:1014C00094F8400040F0020084F84000306890F842
:1014D0000A27D20716D0062D04D0072D02D0012DE1
:1014E00005D017E014F8410F20F0030008E026496A
:1014F000C1F8008014F8410F20F0030000F1020051
:10150000207007E090F86C07890701D520F00300F0
:1015100084F841007D70BDE8F041184800F0C3BC7C
:1015200006280CD007280AD0012808D0042805D0A6
:10153000032803D0052801D0022801D180E65FE707
:1015400070472DE9F8430A4D8146012901D1002059
:10155000A871AC79104F641C094EA7F1240825E04E
:10156000306890F80A07C00718D057F8242017E011
:101570001C01100004100020780110003809100030
:101580002801100080870120280A0022F6FF0100B0
:1015900000800120F08801203800010058F8242044
:1015A000694648469047012805D0641C082CD7D9C5
:1015B0000020BDE8F883AC719DF80000F9E770B534
:1015C0000188002935D001465422FE4801F01AFC5A
:1015D000FD4D286890F80A07C0070AD0F94801882D
:1015E00011F0760F05D08278920702D441F0800185
:1015F0000180F64E707800281BD10121F148FFF7D9
:10160000A0FF040015D0F24901200870286890F866
:10161000181149070ED590F8430780070AD400F047
:1016200070FD0220B07000F070FD192000F081FD07
:10163000747070BD002030702046BDE870406FE7C8
:10164000002070478268120006D00078C00703D0DF
:10165000062008700120704700207047026A1200BF
:1016600006D00078000703D50720087001207047D6
:10167000002070478268120005D00078000602D56D
:1016800001200870704700207047826A120008D05D
:10169000C26A32B10078800603D5022008700120AA
:1016A000704700207047826A120006D00078C0069A
:1016B00003D5052008700120704700207047826A1A
:1016C000120006D00078800703D50420087001209E
:1016D000704700207047C26A32B10078400703D5D6
:1016E0000320087001207047002070470020087018
:1016F000012070472DE9F041B2480421283001F063
:1017000043F80446AF4804212C3001F03DF8AF4FB8
:101710000546DFF8B0827878AE4E04280CD198F8F0
:101720000200800602D5A200314602E0620006EB0C
:101730004401A94801F066FB7878032811D198F894
:101740000200800603D5AA0006EB840104E005EB45
:1017500044006A0006EB4001BDE8F0419F4801F0FB
:1017600051BBBDE8F08100B585B000F0D3FA01208F
:101770008DF800009A4801909648029000F5B871E3
:101780009248C27801EB420103910021C170914857
:10179000F83004908B4841686846884705B000BD22
:1017A0002DE9F05FDFF820928A4D0024D9F800007F
:1017B0004FF0010A90F80017C9072CD0814991F821
:1017C000386006B9012691F83710DFF8008291FBE6
:1017D000F6F10FB298F80110042902D0032903D0C2
:1017E0000BE0407D440021E076484024042128306D
:1017F00000F0CAFF774901EB800598F80100022844
:101800000AD005280BD0042810D003280ED00228B7
:101810000CD005280AD063E07A246E4D06E0D9F892
:1018200000006C4D3A2490F80177F8354046D8F81E
:101830000880B84554DC8346B8F1000F04D14FF45A
:10184000F87168480EF015FB0021664808E000BFFB
:1018500050F8212035F911301A4440F82120491C54
:10186000A142F5DB08F101015A46CBF80810B94254
:1018700030DB002191605178042903D0032901D085
:10188000022914D1D9F80010DFF85CC1D1F804376F
:1018900000210AE030F821707743FF1A25F8117013
:1018A00050F821704CF82170491CA142F2DB9BF8E2
:1018B0000110052914D100214C4A08E030F82130EC
:1018C00025F8113050F8213042F82130491CA1424E
:1018D000F4DB05E09BF80100FFF722FE4FF0000A61
:1018E0005046BDE8F09FF0B585B0FFF703FF354ED9
:1018F000B078400603D4FFF753FF002816D0324FCC
:10190000324C386890F80A07C00708D06078012880
:1019100005D12079F0746079708007F083FF002191
:101920002848FFF70EFE18B1FFF7FAFD05B0F0BD2D
:101930002748002565700570386890F80A17C907B0
:1019400001D02B490D602B4AA421117390F8180186
:10195000400702D5A57000F0D0FB2078012813D0F5
:101960008DF800501E4801901A480290E17800F569
:10197000B87000EB410003901A48E5708C38049071
:10198000716868468847D1E702208DF80000E9E7D2
:1019900070B50D480E4D4FF00004016891F8180124
:1019A00042070A480AD591F84317890706D4817877
:1019B000012923D002292AD003291ED18470FFF7E0
:1019C000D2FE19E038091000280110001C01100097
:1019D0008101100080870120CC8E0120448F0120DE
:1019E0000080012004890120F48A0120E48C012078
:1019F000280A0022001000202C7070BD0221817086
:101A000000F083FBBDE87040322000F092BB032160
:101A100081704078BDE8704082E500F01F0201212E
:101A2000914040094FF0E02202EB8000C0F8001125
:101A3000704700F01F020121914040094FF0E02261
:101A400002EB8000C0F88011704700F01F020121F6
:101A5000914040094FF0E02202EB8000C0F8801274
:101A600070474907090E002803DA00F00F00024A08
:101A700000E0024A8154704714ED00E000E400E009
:101A8000F0B527260022FA4DFA484FF4F8315C27CA
:101A90000C46002303EB000E11F803C05B1C8EF80C
:101AA00060C00C2BF6DB2B68002BFCD18276C7764E
:101AB00004F10C0103EB000E11F803C05B1C8EF85F
:101AC00060C00C2BF6DB29680029FCD1511C817603
:101AD000C776921C04F13001B242D9DBF0BD2DE98A
:101AE000F0479246089E5B1EC6F108010022E14CB9
:101AF00001F0FF0C1546002189469A420BDA00EBF3
:101B00000208875C98F8018027FA06F708FA0CF8B3
:101B100047EA080703E007D1875C27FA06F701EBDD
:101B2000040888F8607003E001EB040888F860900E
:101B300001F1010102F101020C29DEDBCC490F6841
:101B4000002FFCD10AEB0501A1765C21E1766D1C2A
:101B5000022DD0DBBDE8F08718B5002411235C22EC
:101B60002146C5480094FFF7BAFFC34818236222F4
:101B7000002121300094FFF7B2FF18BD2DE9F04796
:101B80000024DFF8EC82BB498246254626464FF00A
:101B90005C0900209C4206DA00EB010C1AF8047084
:101BA0008CF8607002E0471887F86060641C401C85
:101BB0000C28EFDBD8F800000028FBD150198876FC
:101BC00081F81B906D1C032DE3DBC3E7AA4800B529
:101BD00016235E2200216C38FFF7D0FFA648202391
:101BE0006422002140385DF804EBC7E770B500239C
:101BF000A04C05E0CD5C1E195B1C86F860505BB202
:101C00009342F7DB9A490B68002BFCD1A07642F097
:101C10001000E07670BD30B5984C07220220216894
:101C200001F24271FFF7E2FF2168022201F24A71DC
:101C30000920FFF7DBFF2168062201F24D710B201E
:101C4000FFF7D4FF20688E498E4D90F8530709782E
:101C500000F0F00001F00F0108432870012229462E
:101C60001120FFF7C3FF2168072201F254711220EF
:101C7000FFF7BCFF82480122401E007800F00F01F0
:101C8000206890F85B0761F31F102870294619201F
:101C9000FFF7ACFF2168042201F25C711A20FFF704
:101CA000A5FF77480222C01C294600782870744896
:101CB000401C007868701E20FFF798FF21680622FC
:101CC00001F262712020FFF791FF6D480222001D92
:101CD0002946007828706A48801C007868702620A1
:101CE000FFF784FF2168022201F26A712820FFF7C2
:101CF0007DFF2168072201F26C713C20FFF776FF1F
:101D0000206890F8C01760480170332141740B219E
:101D1000817430BD5D48002202605C481C3802605E
:101D20005B480261012101618260816002600160A3
:101D300002604F49A0F574700B68002BFCD14D492F
:101D40000B7B43F020030B730B7B23F040030B73DF
:101D50000B7B23F080030B730B7B23F020030B73AF
:101D6000C0F8D823C0F8E0234A480270704730B565
:101D7000474800247430046045488030046044487B
:101D8000C4600121C160C4600460016004603E4D14
:101D90002020AD1D287068703649593D0873A42075
:101DA00008733348183001680029FCD1FFF7B2FFEF
:101DB000FFF731FFFFF70AFFFFF7CEFEFFF760FEE8
:101DC0003548046085F8344030BD38B50546294CA7
:101DD000806C00906073010AA173010CE173000E26
:101DE0002074042269462A20FFF700FF012205F132
:101DF00044012E20FFF7FAFE95F84400A074286DE8
:101E00000090E074010A2175010C6175000EA07547
:101E1000042269463420FFF7E9FE0098800F84F819
:101E200040001849012208703820FFF7DFFE38BD56
:101E300000EBC00101EB00106FF0030101EB80002B
:101E400010B51649144A0978146890FBF1F0401E49
:101E5000C1B2012358071CB30024146080F8341069
:101E600090F8421090F842408C42FBD0136010BDB5
:101E7000040B002200100020ACF801002801100023
:101E8000F6FF01008C091000530000201C0C0022FA
:101E9000D00300221D011000400500228301100024
:101EA00080F83410E2E770B50446FFF78EFFCA48A9
:101EB000E18F0180217C00F8011C94F840104173EF
:101EC000C64DA07C85F83600042204F111010520DE
:101ED000FFF78CFEC24E02220920316801F24A71DE
:101EE000FFF784FE022204F116010C20FFF77EFEAC
:101EF000022204F118010E20FFF778FE3068052257
:101F000004F11A0190F8540720771020FFF76EFEB5
:101F1000012204F141013C20FFF768FEB14801684D
:101F20000129FCD194F840002873BDE870402320BB
:101F30007EE77CB50446FFF748FFA748E18F0180A4
:101F400094F8351000F8011C94F840104173A44D2A
:101F5000296891F80A07C00715D0B1F80D67B1F8E4
:101F600070078DF80400000A8DF80500022201A90F
:101F70004020FFF73BFE300A8DF800608DF801002D
:101F80000222694602E0022201F24A710920FFF7AB
:101F90002DFE022204F130011A20FFF727FE022253
:101FA00004F132012220FFF721FE012204F1340165
:101FB0000720FFF71BFE012204F139010820FFF77B
:101FC00015FE012204F13A012020FFF70FFE012245
:101FD00004F13B012820FFF709FE012204F1420130
:101FE0001720FFF703FE012204F143011820FFF739
:101FF000FDFD28687C49012290F8540720F0F0008C
:1020000008701220FFF7F2FD94F83C00734EC007F1
:1020100008D0286800F2C67190F8C60786F8360026
:10202000012206E094F8360086F83600012204F119
:1020300036010620FFF7DAFD012204F141013C20C0
:10204000FFF7D4FD674801680129FCD194F84000EE
:102050003073BDE87C402320EAE66149634B0A689F
:1020600092F84D2702700A68B2F85027428009683A
:102070001B7801F2547103F00F0311F8012C02F0E8
:10208000F0021A4302714A89C2804A8A0281CA7BDD
:102090008272CA7DC27249780173704710B50446D6
:1020A000014601220B20FFF7A1FD0222A11C0E20F8
:1020B000FFF79CFD0122211D1120FFF797FD022251
:1020C000A11D1C20FFF792FD022204F1080124202B
:1020D000FFF78CFD012204F10A012120FFF786FDA4
:1020E000012204F10B012920FFF780FD04F10C010E
:1020F0000122BDE81040132078E538490420087318
:10210000704736492020087370473449C02008734F
:1021100070473748016800290AD0002101604FF05C
:10212000005191F8420000BF91F842208242FBD05A
:1021300070472F49002240390A60274A273A107019
:1021400001200860704770B5264C1C342368002BB2
:10215000FCD11D4603E0C6185B1C86F880508B42FC
:10216000F9D32368002BFCD102E0C45CD4545B1C7F
:102170008B42FAD370BD10B500F012FFFFF7C9FF14
:102180001C48007878B11748001D01680029FCD16F
:102190001248C078400602D5174901200870BDE8F2
:1021A0001040FFF7A0BB1549002008705FE610B58E
:1021B00000F0F6FE0E49002040390860BDE81040EE
:1021C000FFF7E6BB10B500F0EBFEFFF7A2FFBDE89E
:1021D0001040FFF7DDBB000054000020001000207D
:1021E00028011000000B00228C091000F6FF0100EE
:1021F000400500221D0110001C011000810110008B
:102200000446012007F03BFC00210F20226807F064
:102210004BFC01210F20626807F046FC02210F20D1
:10222000A26807F041FC03210F20E26807F03CFCA4
:102230000C210F20226907F037FC0E210F20626964
:1022400007F032FC0F210846A26907F02DFC20217F
:102250000F20E26907F028FC3848026821210F208E
:1022600007F022FC35481038026822210F2007F0C1
:102270001BFC32480C38026823210F2007F014FCA5
:102280002E480838026824210F2007F00DFC2B4847
:10229000001D026825210F2007F006FC274834386E
:1022A000026826210F2007F0FFFB2448143802683B
:1022B00027210F2007F0F8FBFEF777FA02463021BE
:1022C0000F2007F0F1FBFEE710B5012805D002282A
:1022D00005D0032809D0032102E0012100E00221FA
:1022E000BDE81040032007F0CABB0021032007F01F
:1022F000C6FBFEE710B504460146042007F0BFFB0D
:10230000012C00D1FEE710BD0146082007F0B7BB45
:102310000146062007F0B3BB10B50446014607206E
:1023200007F0ADFB24B1012C03D0022C02D1FEE753
:10233000FEE7FEE710BD0220EEE7000038ED00E00A
:1023400000F02EBE70477047294810B5016821F093
:102350000401016000F024FEBDE81040FEF763BCFC
:102360000DF0B2BC00F01CBE10B500F019FEBDE8C7
:10237000104007F0FBBD10B500F012FE1D480068CC
:1023800090F82901800703D5BDE8104007F03FBA57
:1023900010BD7047704710B500F002FE1648007877
:1023A000012803D0BDE8104007F041BABDE8104055
:1023B00001F08EBB70477047704770477047704799
:1023C0007047704710B500F0EBFDBDE81040FEF718
:1023D0009ABB10B500F0E4FD07480078012803D14E
:1023E000BDE8104001F051BB10BD704770470000C0
:1023F00010ED00E0280110008001100010B54E2102
:102400009B480DF014FD9A489A499B4A01808280AE
:102410009A4941809A4BC3809A4C04819A4C4481DA
:102420009A4C84819A4CC4819A4C04829A4C44827E
:102430009A4C84829A4CC4829A4C04839A4C448667
:102440009A4C84869A4CC4869A4C0487C3874187E9
:1024500082879949A0F8401098490968B1F862202C
:10246000A0F84220B1F8C621A0F84420B1F8A1207C
:10247000A0F84620B1F8F021A0F84820B1F8542186
:10248000A0F84A20B1F85221A0F84C208A48B1F8AF
:102490004E274280B1F85C27C280B1F864170181F1
:1024A00010BD87481322884903788648552B02D0EF
:1024B000027019200CE0814B1B6893F81E31DB077A
:1024C00002D07F4A521C127802707D48801C00782E
:1024D00008707047FEB5FF220C2168460DF09FFC86
:1024E0006846FEF7AEFC01980E250127072645F247
:1024F000AA54A04202D00298A0422BD10298A04236
:102500000AD10098000E022802D10098C0F30137CA
:102510000098C0F3032602E00120FFF7F9FE0198BE
:10252000A04203D1009800F01F0502E00220FFF74F
:10253000EFFE664907F0030040EA061081F86000EC
:10254000012088761120C8766148017865F304017E
:102550000170FEBD0120FFF7DBFEE7E770B5FEF777
:10256000A4F9FEF72FFB554D28680078A52802D066
:102570000120FFF7BFFE28684FF000064FF001046E
:1025800090F829118A074FF0085104D5C1F89863D3
:10259000C1F8804301E0C1F8984390F828114D4AF2
:1025A00001F00101116090F82811121DC1F34001E2
:1025B000116049490C60091F0C60091F0C6090F8FC
:1025C000C800C1070BD0810709D5C0F382000128DC
:1025D00005D13F483130017821F007010170FEF745
:1025E0002FFCFEF779F9FEF7CBFD032801D1FFF7A9
:1025F0006BFEFEF753FBFEF79FFB3448802180F80B
:102600006010042181761121C176FFF763FFFFF787
:1026100048FF286890F829018107304801D50460F7
:1026200000E00660046070BD10B54FF0005141F24B
:1026300043204881FFF792FFFFF7E0FE28493F2043
:10264000086028490020086028482749016001F5F2
:10265000086027490860274800F0A4FAFDF714FE37
:1026600000F04AF8FDF70EFEFDF792FE012010BDC6
:10267000000001200080012010B7012090AF012050
:102680004E000120808701203E2E01207A2E01205D
:10269000C02E0120FC2E0120AC340120E8340120A2
:1026A000DA290120162A0120322E0120B8A70120A4
:1026B000C4A70120CE2901203023100028011000DA
:1026C000F2FF0100840110008301100000100020BF
:1026D0002000002088040022280A00227C04002216
:1026E000BC2E0120740110001C11100054011000B8
:1026F000580110001C2210007FB5FDF721FE204D6F
:10270000002400BF05EB441000F11002017F4CCA09
:10271000CDE90261CDE900230FC8FDF7E3FF10B159
:102720000120FFF7F9FD641C072CEBDB144D00249E
:1027300015F1E00504EB440005EB8001091D55F897
:10274000200006C9FDF74EFF10B10120FFF7E4FDA0
:10275000641C072CEEDB0B4D002400BF05EBC4000E
:10276000416855F83400FDF769FE10B10120FFF70C
:10277000D3FD641C062CF1DB7FBD4068FFF7DBBD99
:102780005C0001009001010070B503460020024684
:10279000FE4C09E09D5C521C05F00F0604EB15157C
:1027A000A65D2D78304428448A42F3DB70BD884210
:1027B00000D308467047884200D8084670478842D0
:1027C00000D30846904200D3104670472DE9F047E9
:1027D000D0F810C00568046A85FB0C12A1FB041236
:1027E00042694368914683FB02628269E246A6FB26
:1027F00002677618D0E9021781FB07C8C069ACFBF5
:1028000000C81CEB060682FB0A2CA2FB011280FB0F
:102810000902A0FB0502401884FB0712A1FB03126A
:102820000818301A4FEAE071BDE8F0872DE9F0434F
:1028300089B00446006800906068019020690290A9
:102840006068039020690490A06905902069069053
:10285000A0690790E06908900D466846FFF7B6FF4B
:102860008046A0680190E0680490606907908946FE
:102870006846FFF7ABFF064660680190A0680290CB
:1028800020690490E0680590A0690790606908904D
:102890000F466846FFF79AFFC5E90401C5E90267DC
:1028A000C5E9008909B0BDE8F0832DE9FF4F4FF07D
:1028B000000A89B09B465746D146D04656465546F3
:1028C0005446202168460DF0D4FA0B9810E009997F
:1028D000824431F9102000FB00F102FB01668844BC
:1028E000414302FB009901FB004417440D44401C86
:1028F0005845ECDD0B99ABEB0100401CCDE9000A1B
:10290000CDE90654CDE90486CDE9027968460A99F5
:10291000FFF78CFF0DB0BDE8F08F9D480068017B8C
:10292000427B41EA0221827BC07B41EA024141EACB
:10293000006040007047964800680179427941EA9A
:1029400002218279C07941EA024141EA0060704780
:1029500000B5FFF7E2FF4008400000BDF8B50E46A5
:102960000446FFF7F5FF0090FFF7D7FF0546042167
:102970006846FFF709FF04EB40070024DDF800106C
:10298000204623464FF0010C0CFA03F20A4207D00E
:102990002A4204D037F8102026F81420641C401C6A
:1029A0005B1C1E2BF0DBF8BDC5E7FCB50E460746E9
:1029B000FFF7CEFF0190FFF7BEFF0090FFF7BBFFD0
:1029C0000546042101A8FFF7DFFE044604216846FE
:1029D000FFF7DAFE00EB440007EB40070020009908
:1029E000044603464FF0010C0CFA03F20A4207D0EA
:1029F0002A4204D037F8142026F81020401C641C0A
:102A00005B1C202BF0DBFCBD70B561490020096820
:102A100001F5F57491F8E8518DB191F8E6214FF088
:102A20000103D2070DD0002203FA02F6354203D08B
:102A3000A65C03FA06F10843521C062AF4DB4000A8
:102A400070BD91F8E91103FA01F0F8E770B550494B
:102A50000020096801F5F57491F8E851002D09D0BE
:102A600091F8E6214FF00103D20704D091F8E91163
:102A700003FA01F070BD03FA02F6354203D0A65CFA
:102A800003FA06F10843521C062AF4DB70BD70B548
:102A900000223F4C012303FA02F6256895F8E8511D
:102AA000354203D030F8125021F81250521C062A39
:102AB000F1DB70BD00B5FFF730FF40F0010000BD55
:102AC00039E7344A520102EB810101F108510860F3
:102AD000704701EB8010801001EB41014900182282
:102AE00091FBF2F300EB400000F5F83002FB13110C
:102AF000006820F07F40C84000F03F00704701EBC5
:102B00008010801010B501EB41014900182391FBA2
:102B1000F3F403FB141300EB400000F5F8303F24FE
:102B200001689C40A1439A400A430270110A417017
:102B3000110C817010BD821002EB4202114400EBB7
:102B400040004000182290FBF2F301F5F83102FB3F
:102B50001302086820F07F40D04000F03F0070472B
:102B6000831003EB43031A4410B500EB4000400010
:102B7000182390FBF3F403FB140302F5F8323F240F
:102B800010689C40A0439940014305E0C00101004A
:102B900028011000BC2E01201170080A5070080C8A
:102BA000907010BD2DE9F14F782100980DF061F97A
:102BB000FFF780FF4FEA5008FFF7BDFE4FF0000C13
:102BC000814666464FF0010A0AFA06F111EA090F3A
:102BD0001ED00024012725460AFA0CFB0AFA05F04C
:102BE00010EA080F0FD031462846FFF772FFA042C7
:102BF00007D00099009A51F8271041EA0B0142F8DA
:102C0000271004467F1C6D1C272DE7DB0CF1010CFF
:102C1000761C202ED8DBBDE8F88F2DE9F04F8346D7
:102C2000F94800242246D0F800A001219AF8145057
:102C3000A5F1010621E003200123DFF8D0E303FA28
:102C400001F99AF8157015E05EF820C01CEA090F2A
:102C50000FD0A0F1010300FB051C03FB05183BF995
:102C60001CC03BF91830BCEB030300D55B421C448D
:102C7000521C401C8742E7DC491C8E42DBDC02B957
:102C8000012294FBF2F046E62DE9FF4F85B00021CA
:102C90000391029101910091DB49012B0C6894F89A
:102CA000775005F00F0700D10027667D94F87A3041
:102CB000C7F1100BB34200D21E4600230493012338
:102CC00081E000BF4FF00009C84603241FE0CF4950
:102CD00051F824C0012199401CEA010F04FB053181
:102CE00030F911C0A4F1010101FB053130F91110D7
:102CF000ACEB010106D0002900DA4942DDF818C02A
:102D0000A1EB0C01002900DA49428944641CB44259
:102D1000DDDB31469EF815A01FE0BC4C54F821C005
:102D200001249C401CEA040F01FB053430F914C057
:102D3000A1F1010404FB053430F91440ACEB0404A8
:102D400006D0002C00DA6442DDF818C0A4EB0C04B5
:102D5000002C00DA6442A044491C8A45DDDC049959
:102D6000012910D10199B1EB090101D5C1F100018F
:102D7000039C214403910099B1EB080100D549421D
:102D8000029C21440291CDE900899EF87B10994272
:102D900016D11168039D79430BFB0511CC1701EB8C
:102DA0001471091111609168029D79430BFB0511A3
:102DB000CC1701EB1471091191600021039102916C
:102DC00001215B1C04919049D1F800E09EF8145059
:102DD000691E99423FF776AF5068039978430BFB21
:102DE0000100C11700EB117000115060D068029B08
:102DF00078430BFB0300C11700EB11700011D0608A
:102E000009B088E504E000BF11F8013B00F8013B80
:102E1000521EF9D270477CB50D460446FFF798FD67
:102E20000090FFF788FD0190009804214008009071
:102E30006846FFF7A9FC0646042101A8FFF7A4FC99
:102E40003044820021462846FFF7DCFF7CBD0B465C
:102E50006D4909684A7D097D521C4A43014652006A
:102E60001846CFE770B5044654210DF002F8002053
:102E7000654D20806080296891F8C51701F0010137
:102E800040EA411161802A6892F84527D20941EA57
:102E9000021161806060FFF70DFEA060FFF74BFD3F
:102EA0005B4EE0607088E082286800F24670C27A6B
:102EB000817A02F03F0241EA022121834178E174E4
:102EC00090F87A1021740178A17481782175017BC2
:102ED000A1765049407B097800F0F00001F00F0125
:102EE0000843E076FFF790FD2062FFF7AFFD6062D8
:102EF000FFF72EFDA062FFF71EFDE062F08820863E
:102F00006086286800F2C170017884F834108178F6
:102F100084F83510C17884F8361010F8BF1C84F896
:102F20003710012184F83810417884F8391010F8EE
:102F30005F1C84F83A1010F8571C84F83B1010F806
:102F40006B1CA17710F8550C84F8410070BD3F212F
:102F5000B0FBF1F13F314908B0FBF1F211444908EF
:102F6000B0FBF1F008444008704710B50446FDF787
:102F70008BF9012C0BD12448006890F818018007C8
:102F800005D5FDF79AFC38B1FDF793FC04E0FDF799
:102F900094FC08B9FDF789FCBDE81040FDF772B953
:102FA0000020E2E7184B10B51A68947E640704D538
:102FB000D28A0468A2EB040202601A68947EA40715
:102FC00003D5128B0C68121B0A600268002A00DA13
:102FD000002202601C68E48AA24200DD22460260F0
:102FE0000A68002A00DA00220A601C68248BA242C8
:102FF00000DD22460A601B689B7EDB0702D0036867
:103000000B60026010BD0000280110001C2210009F
:1030100030231000F6FF0100F0B500252C4608E033
:1030200031F9146030F91470F61B964200DD6D1C06
:10303000641C9C42F4DB022D01D90120F0BD00206C
:10304000F0BD2DE9F04F9246DDE909B7012547F6BD
:10305000F87256429946AC46002416E030F8143017
:1030600031F81480A8EB03031BB29A4200DD1A4624
:103070009E4200DA1E46002B02DA4FF0000502E005
:1030800001DD4FF0000C04F10104BC42E6DB55EA1F
:103090000C0306D0012D01D02DB108E0BCF1010FC9
:1030A00005D1002203E0BCF1010F00D1324600251A
:1030B0002C462B4611E000BF30F8136031F813C0E6
:1030C0001644ACEB060636B24E4505DACBF1000CE1
:1030D000664501DD3544641C5B1CBB42ECDB95FBA3
:1030E000F4F10A44002105E030F8113013442AF8C5
:1030F0001130491CB942F7DB0DE4F0B5064600205B
:1031000004460546521C059F0AE000BF36F911C06F
:103110009C4504DDA44502DD64460D460120491CA2
:103120009142F3DB3D60F0BD70B51F4B1B685C7DC9
:103130001B7D641C5C43002308E000BF32F8135081
:1031400030F81360AD1B21F813505B1CA342F5DB74
:1031500070BD164901200860810215480CF067BE59
:103160002DE9F041064615460F46302801D1FFF7FC
:10317000F0FF0E4C20682844401CB0F5806F01D24F
:10318000206801E001202060094908700E542DB12B
:103190000844401C2A463946FFF734FE206828447C
:1031A000401C2060BDE8F081280110002C011000B7
:1031B000CE25012010B501461422F948FFF722FE62
:1031C000BDE810404FF400610120FDF757B970B51C
:1031D00096B006460D4614466846FFF743FEE007E4
:1031E00002D00120ADF80000A00705D5BDF8000011
:1031F00040F00800ADF80000600721D5E9480268FA
:1032000092F80A07C007BDF8000002D040F006009F
:1032100001E040F02000ADF80000A00710D1BDF89B
:10322000000002F2211240F00100ADF800005078D9
:103230008DF8130010788DF81A0090788DF81E0024
:10324000ADF83250ADF81660ADF83050AFF29B00DB
:10325000D34D03244FF4006601906846FEF7AFF9A2
:1032600015AB002231460120FDF747F93146012018
:10327000FDF733F92878002804D0FFF725F8641EFD
:10328000002CEADC16B070BD2DE9F041C5490126DD
:103290000024096810F4D17F91F82110C1F30111C5
:1032A00006FA01F600D0042410F0050F01D044F016
:1032B0000104C00601D544F00204002C0AD0002508
:1032C000B94F05E0F98878882246FFF780FF6D1C2A
:1032D000B542F7DBBDE8F0812DE9F35FB1488B46DD
:1032E00001260068447D017D90F82100641C4C4358
:1032F00000F00707BE404FF48851AC480CF0B9FD10
:103300000025DFF8A882DFF8A092DFF894A21AE087
:10331000B9F8061001220098FFF759FFA449DAF81E
:10332000040005F090FDA24A0020414608E000BFDD
:1033300051F8203032F910C0634441F82030401C6D
:10334000A042F5DB6D1CB542E2DB0020414605E002
:1033500051F820203A412BF81020401CA042F7DB06
:10336000BDE8FC9F2DE9F34FDFF8389287B00124C8
:10337000D9F80000182190F8210000F0070704FA9E
:1033800007F668460CF075FD0025DFF81CB2DFF883
:1033900024A2E84619E000BFBBF8061002220798F5
:1033A000FFF715FF7E488349C068FFF770FB0020D8
:1033B0005246414632F910C051F82030634441F87A
:1033C0002030401C0628F5DB6D1CB542E4DB0020F4
:1033D000494643460A6804FA00F592F8E8212A4271
:1033E00005D053F82020089D3A4125F81020401CB4
:1033F0000628EFDB09B0BDE8F08F2DE9F74F82B06A
:103400009146FFF7A5FA0090FFF7CEFA019004214C
:103410006846FFF7B9F90446042101A8FFF7B4F99B
:10342000DFF880B120444400DBF80000012690F86A
:10343000210000F00707BE40A1005C480CF019FD18
:103440000025DFF868A122E057480422039940884C
:10345000FFF7BDFEDBF80010514891F8C517D0F812
:103460000880C90704D001694246404605F090FB38
:103470000020514608E000BF51F8203038F91020F4
:103480001A4441F82020401CA042F5DB6D1CB542D7
:10349000DADB464D0021524606E000BF52F821001B
:1034A000384125F81100491CA142F7DB029810F0C1
:1034B000220F09D02846D9F80010FFF74FFA284606
:1034C000D9F80410FFF771FA05B094E72DE9F04739
:1034D0009A46344B894600210125374E1C681AE074
:1034E00032F8113030F81170DB1B1FB200230AE0F4
:1034F000C3EB031C06EB8C0C5B1C3CF811801BB26D
:10350000B8442CF8118094F880C305EB9C1C9C45B2
:10351000EEDC491C09B2637D8B42E1DC0020274AC6
:1035200019E000BF3AF8103039F81010591A0BB2F0
:10353000002108E002EB8116491C36F8107009B230
:103540001F4426F8107094F8806305EB96168E429F
:10355000F0DC401C00B2217D8142E3DCBDE8F08755
:1035600070B5104D164E00242868C4EB041100EB12
:10357000440006EBC111B0F8EF00FFF7ADFE641C8C
:10358000042CF1DB70BD2DE9FE4F00258246054C71
:103590002F46DFF82480DFF82490012624E0000085
:1035A0005C3B100028011000302310001C1110009B
:1035B0009C091000322E01204E2B01207A2C012074
:1035C000CE07012000EB4500C5EB0512B0F8B213A1
:1035D00008EB8200009009EB8510CDE901076A46EF
:1035E0005046FFF70AFF6D1C206890F8801306EB29
:1035F0009111A942E6DC90F85011C90710D090F85B
:10360000911109060CD5407DFE494200FE48FFF7A6
:10361000F9FB2068FD49007D4200FD48FFF7F2FB01
:10362000BDE8FE8FFEB5FC4AFA490024126801236A
:1036300000F4907592F88063C98803EB961306E056
:1036400002EB4406B6F8B263B14202D0641CA34256
:10365000F6DCA34219DDC5B192F85001C00703D1D1
:1036600092F8B001C0070FD0E649C4EB041001EB9B
:1036700080013C22E948FFF7C5FBE448402200EB0B
:103680008411E748FFF7BEFBFEBD00220292E34A29
:103690000092E34A01926A46FFF7AFFEFEBD70B5A5
:1036A00004460020FCF7C9FF0320FCF7C6FFDA4DF3
:1036B000286890F82010490701D424F4006490F899
:1036C0005011C90705D190F8B011C90701D124F0F4
:1036D000620490F88013490701D424F4B07490F880
:1036E000D010490701D424F0040490F8E81109B976
:1036F00024F0100490F8041309B924F4C07490F86D
:103700002002C00701D124F4007460060AD53C22CF
:10371000C249C448FFF776FBC2484022C0493C304A
:10372000FFF770FBC0490020401C8842FCD32005F5
:1037300002D52046FFF7A8FD600701D5FFF710FF6F
:1037400014F4907F02D02046FFF71DFFB14EE00732
:103750001BD07088B549FFF7BFFD286890F820009E
:1037600000070AD5B148FFF758FAB1490123B14A19
:1037700008600146AD48FFF787FA286890F84904C9
:10378000C00702D0204602F0F7FBE00603D57088A0
:10379000A949FFF7E7FD14F0820F0AD02046FFF792
:1037A00041FF286890F84904800702D5204602F0BE
:1037B000A7FC600606D59B49994B984A3C3199482D
:1037C000FFF784FE9D49012008709D49087006F0AE
:1037D00007F80020FCF74CFFBDE870400320FCF721
:1037E00047BFF0B48C490022964C0B68B3F8EF1039
:1037F000814214D2B3F8F510814201D803220EE0C1
:103800005FF0010103EB4105B5F8EF50A84201D18B
:103810000A4602E00DD2A1F101028A420DD1C2EBAB
:10382000021004EBC011F0BC4FF4F0627F48FFF7C8
:10383000E9BA491C0429E5DBF1E703EB41037B4DC1
:1038400033F8ED2FC1EB01115B88801A00029A1A40
:1038500090FBF2F300204FF4707604EBC11100BF2F
:1038600001EB4002A2F5F06231F91040B2F90020FC
:10387000A41A5C4302EB242225F81020401CB0421D
:10388000EEDBF0BC70472DE9F041634900255D4A4D
:1038900009685E4EB1F8B23383421AD291F8803390
:1038A0009C0901EB4407B7F8B27387420AD9012497
:1038B00004EB931313E000BF01EB4407B7F8B273B6
:1038C000B84201D1254602E008D2A4F10105A54283
:1038D0001CD191F85001C00708D103E0641CA34239
:1038E000EADCF6E791F8B001C0074CD0C5EB051053
:1038F00002EB80013C224948FFF784FA06EB851170
:10390000BDE8F04140224648FFF77CBA01EB440590
:10391000B5F8B033B5F8B253C01A0002EB1A90FBF9
:10392000F3F391F85001C00703D191F8B001C0073B
:1039300029D03A4DC4EB0411002002EB810100BFF5
:1039400001EB400231F9107032F93C2CBF1A5F4391
:1039500002EB272225F81020401C1E28F0DB304DFA
:10396000002006EB841100BF01EB400231F910404A
:1039700032F9402CA41A5C4302EB242225F81020D3
:10398000401C2028F0DBA5E42DE9F0412E4801245D
:103990002E4E047000253560192000F0E5F819203E
:1039A00000F0CAF82A4F052038724FF41670FCF761
:1039B00071FC264844380560FF213970346004608A
:1039C00088E470B52048234C01260670207F40F023
:1039D0000400207710484FF00005006890F81E01A1
:1039E000C1070DD0C0F34200012809D11A48056073
:1039F000001F05600A2000F0B7F80A2000F09CF8CC
:103A00002CE000004E2B01203E2C01207A2C0120BE
:103A10007A2D01203023100028011000DA2901201E
:103A2000162A0120E03A100020A107004E000120D4
:103A30005C01100094221000CE2901203E011000EC
:103A400067011000CE070120800110004805002208
:103A50002E00002000100020240A002284F860506C
:103A60005B21A1761120E07684F860605722A2766F
:103A7000E076434A1560434DFF232B70042384F8FE
:103A80006030A176E076166070BD70B53C480024C9
:103A900004603C4D08352E79192000F059F8C6F124
:103AA000FB002978C0B2491CB0FBF1F03649087020
:103AB000364804703648006890F81E01C00702D0EE
:103AC000BDE870407DE730495520891E087070BD03
:103AD00010B5304C207F40F0040020772C4800685F
:103AE00090F81E01C1070BD0C0F34200012807D196
:103AF0000A2000F02DF8284901200860091F0860FD
:103B000020490A7B1E4B0020186084F860005B236C
:103B1000A3761123E3760978891A89B24FF4FA4221
:103B2000B2FBF1F1184A0909521E11705521521EBB
:103B300011701649087010BD00F01F02012191405C
:103B400040094FF0E02202EB8000C0F800117047FE
:103B500000F01F020121914040094FF0E02202EBEA
:103B60008000C0F88011704700F01F0201219140D1
:103B700040094FF0E02202EB8000C0F8801270474D
:103B8000040500222E000020F4FF01008001100037
:103B90002801100000100020240A002210B5014660
:103BA0001422FE48FFF72EF98021BDE810400120C5
:103BB000FCF764BC30B597B004466846FFF752F98D
:103BC0000021012C02D0022C02D008E0012000E0EC
:103BD00008208DF81210ADF800008DF81010BDF817
:103BE0000200AFF2470140F4A670EC4D0191ADF830
:103BF000020003246846FDF7E2FC15AB0022802199
:103C00000120FCF77AFC80210120FCF766FC287873
:103C1000002804D0FEF758FB641E002CEADC17B025
:103C200030BD2DE9FC5F4FF0000BFEF7EDFE0446C2
:103C3000FEF70CFFDA4907460020086048608860FC
:103C4000D8494FEA540980460860486088604FF0C0
:103C5000010A0220FFF7AEFFD04800242646C068C4
:103C6000CDF800000AFA06F010EA090F38D0002556
:103C70000AFA05F1394230D0CB490AFA04F0096852
:103C800091F8E811014228D029463046FEF721FF7D
:103C9000C549C34A096832F91430B1F80AC2B3EB16
:103CA0000C01009B33F91430A3EB0C0C00D54942F6
:103CB000BCF1000F01DACCF1000C614504DBB9491D
:103CC00022F8143021F814003F2805D2401CC2B25B
:103CD00029463046FEF713FF641C6D1C202DC7DB00
:103CE000761C272EBEDBFDF7CBFE08F10108B8F1EC
:103CF000400FAEDB012000900220FFF75BFFD046B3
:103D00000026DFF8A4A2354608FA05F010EA090FEC
:103D10001ED0002408FA04F1394216D0DAF8001057
:103D200008FA06F091F8E81101420ED09D482146AC
:103D300010F81600019002462846FEF7E0FE0198B2
:103D40003F2801D300200090761C641C202CE1DB6E
:103D50006D1C272DD8DB009810B90520FEF7D4FA8A
:103D6000FDF78EFE0220FFF725FF8C488F49C068C3
:103D7000FEF78DFEDAF800408C4D002094F8E83113
:103D8000424600BF02FA00F10B421CD035F9101078
:103D9000002902DC4BF0020005E040F6FF76B1425C
:103DA00003DB4BF00100834610E0B4F80A72B4F86C
:103DB000BE6107EB060C8C4505DABF1B8F4202DDA6
:103DC0000EB14BF0040B401C0628DBDB5846BDE867
:103DD000FC9F2DE9F05F74490A6892F830010506EE
:103DE0007348037803F00F0407D492F83E1121F0D2
:103DF0000F0121430170BDE8F09F0025DFF89CA171
:103E0000834604702E46012789460220FFF7D2FE22
:103E10006649DAF80C00FEF73AFED9F80020634B49
:103E2000002092F8E81100BF07FA00FC11EA0C0F1D
:103E300005D033F910C0B2F80882C445DBDB401C62
:103E40000628F1DB0F2D08D26D1CEDB244EA0510F7
:103E5000761C8BF80000102ED7DBBDE8F05F042045
:103E6000FEF752BA2DE9F04100240120FFF7A2FE2F
:103E70004A4845684C4801684A7D087D521C00FB51
:103E800002F61CE035F91020002A02DC44F0200480
:103E900014E040F6FF739A4202DB44F010040DE098
:103EA000B1F83471B1F8BE3107EB030C944505DA73
:103EB000FF1A974202DD0BB144F04004401C8642D9
:103EC000E0DC2046BDE8F0812DE9FC5F364A0024A5
:103ED00002261268A146A646537D127D5B1EA346AC
:103EE000951E2EE002FB06F701EB470C00EB47079F
:103EF000BCF902C0B7F90270009702271EE000BFAC
:103F000006FB0278CDF8048031F918A030F918804A
:103F1000CDF80480E2450BD0DDE9008CBCEB080C49
:103F200001D5CCF1000C644409F1010C1FFA8CF9A5
:103F3000DDF80480D4467F1CCDF80080BD42DFDA76
:103F4000761CB342CEDAB9F1000F01D0B4FBF9F41C
:103F5000022647E002FB06F701EB470C00EB4707A0
:103F6000BCF902C0B7F9027000974FF0020736E0C3
:103F700006FB027931F919A030F91990BAEB0C0C53
:103F800001D5CCF1000C0FFA8CFCDDF80080BCF1FF
:103F9000000FA9EB080C14D00CE00000703B1000DF
:103FA000B8A70120C4A7012028011000322E01204B
:103FB000F6FF0100BCF1000F01DACCF1000CACEB14
:103FC000040CBCF1000F01DACCF1000C1FFA8CFCE0
:103FD000F44500D9E646D4467F1CCDF80090BD429A
:103FE000C6DA761CB342B5DA012635E006EB4207A5
:103FF00031F917C030F9177000974FF0030728E028
:1040000007FB026931F919A030F91990BAEB0C0CD1
:1040100001D5CCF1000C0FFA8CFCDDF80080BCF16E
:10402000000FA9EB080C06D0BCF1000F01DACCF1AF
:10403000000CACEB040CBCF1000F01DACCF1000C6D
:104040001FFA8CFCDC4500D9E346D4467F1CCDF832
:104050000090BB42D4DA761CB542C7DA02B05A46A9
:104060007146BDE8F05F032005F023BE038893424C
:1040700000D902800888904200D20A807047F0B5CB
:1040800087B00646002047F6FF71ADF80810ADF87E
:104090000400ADF81010ADF814000227C24C10E077
:1040A000012508E007FB005001A936F8102002A8FE
:1040B000FFF7DCFF6D1C2068007D411EA942F1DC8A
:1040C0007F1C2068407DB842EADC002512E02844CD
:1040D00005A936F8102004A8FFF7C8FF2068417D25
:1040E000007D01FB005005A936F8102004A8FFF759
:1040F000BDFF6D1C2068007DA842E8DC012514E0AE
:10410000007D05A9684336F8102004A8FFF7AEFF2C
:104110002068691C007D484306EB400005A930F883
:10412000022C04A8FFF7A2FF6D1C2068417D491CEA
:10413000A942E5DCBDF80420BDF80810012005F017
:10414000B8FDBDF81420BDF81010022005F0B1FD37
:1041500007B0F0BD70B50C460546FFF790FF21464D
:104160002846BDE87040AFE6024618215FF0010026
:1041700000FA01F3134201D1491EF9D5491C8840C8
:10418000104370472DE9F05FFEF794FC0446FEF7FC
:1041900097FC854D0746286890F84507000603D52B
:1041A0002046FFF7E1FF04464FEA54094FF4F0615F
:1041B0007E480BF03CFE4FF027084FF0000A01202C
:1041C000FFF7F8FC7A480026D0F804B0764800687B
:1041D000047D34E0012000FA06F111EA090F2DD028
:1041E00000250120A840384225D029463046FEF758
:1041F00070FC6D49DFF8B4C109683CF91430B1F8BE
:104200003421991A3BF91430A3EB020200D549423C
:10421000002A00DA5242914204DB66492CF814303D
:1042200021F814003F2805D2401CC2B2294630466E
:10423000FEF765FC641C6D1C202DD2DB761C464508
:10424000C8DBFDF71DFC0AF1010ABAF1400FB6DB2D
:1042500055484FF0010B00250068067D012000FA4B
:1042600005F111EA090F16D000240120A0403842C0
:104270000ED05048214610F81600824602462846C5
:10428000FEF73DFCBAF13F0F01D34FF0000B761C57
:10429000641C202CE9DB6D1C4545DFDBBBF1000F06
:1042A00002D10320FEF730F8FDF7EAFB0120FFF70B
:1042B00081FC3F483F494068FFF74CFFBDE8F05F95
:1042C000D0E52DE9F05F384A116891F83001C40754
:1042D0003948037803F0F00514D0057000264B7DB3
:1042E0000C7DDFF8CCA05B1CB046914604FB03F7C5
:1042F00083460120FFF75EFC2046DAF80420D9F857
:1043000000100EE091F83E1101F00F0129430170F9
:1043100071E500BF32F91030B1F832C16345F7DB07
:10432000401C8742F6DC0F2E0AD2761CF6B245EA14
:10433000060108F101088BF80010B8F1100FD8DB66
:10434000BDE8F05F0220FDF7DFBF70B501244FF438
:1043500004614FF4F8300BF08CFDFDF791FBFFF793
:10436000B0FFFFF70FFF104D44EA0064286890F893
:10437000E80128B1FFF72DFDFFF753FC44EA0044A4
:104380000D482A68401D017892F8FB2701F0F001E2
:1043900002F00F02114301700848FEF703FC2046AB
:1043A000BDE8704005F042BC2801100090AF01202C
:1043B000703B100010B70120F6FF01001C22100016
:1043C0002DE9F04F0020FF4D04460246012140F642
:1043D000FF7BFD4BD5F814906E681B6801FA02F75D
:1043E00037421CD039F914A0BAF1000F02DC40F0BA
:1043F000200013E0DA4502DB40F010000EE0B3F8D5
:1044000036C1B3F84171E6460CEB0708D04503DB33
:10441000AEEB070CD44501DD40F04000641C521C9B
:10442000202ADBD30024AF69AE68224601FA02F5E8
:1044300035421AD037F91450002D02DC40F020002C
:1044400012E05D4502DB40F010000DE0B3F83A8168
:10445000B3F8439108EB090CAC4503DBA8EB090C5E
:10446000AC4501DD40F04000641C521C202ADDD325
:10447000BDE8F08F10B501461422D448FEF7C2FC07
:104480008021BDE810400120FBF7F8BF30B597B0A0
:104490006846FEF7E7FCCC48006890F80A07C007BA
:1044A00001D0062000E02020ADF8000000208DF8AB
:1044B00036008DF83500C348416849000A9180688C
:1044C0000B90BDF80200AFF2530140F4A670BF4D4F
:1044D0000191ADF8020003246846FDF770F815ABB2
:1044E000002280210120FCF708F880210120FBF741
:1044F000F4FF2878002804D0FDF7E6FE641E002CA7
:10450000EADC17B030BD0388934200D902800888E6
:10451000904200D20A8070472DE9F0438DB000210F
:104520004FF6FF70ADF82C10DFF8A4C2ADF82800EC
:10453000ADF80400DFF89882A24FDFF88C92ADF856
:104540000810ADF81800ADF80C10ADF81000ADF87B
:1045500014100CF12C0C0D460E460124B96804FA17
:1045600006F0084213D0002D0ADBD9F80000007DC8
:10457000801EA84204DB1CF805200BA90AA803E052
:104580001CF8052002A901A8FFF7BDFF6D1C761CD1
:10459000202EE3D300252E464FEA090C796804FA51
:1045A00006F0084213D0002D0ADBDCF80000407D45
:1045B000801EA84204DB18F8052003A906A803E022
:1045C00018F8052005A904A8FFF79DFF6D1C761CAF
:1045D000202EE3D37F48BDF82C20BDF828100078AA
:1045E000024492B2ADF82C20BDF8043001440344DB
:1045F000ADF80430BDF8083089B21844ADF80800B1
:104600007448ADF82810401EBDF8183000780344F7
:10461000ADF81830BDF80C300344ADF80C30BDF8DF
:1046200010300344ADF81030BDF814301844ADF824
:104630001400042005F03DFBBDF80C20BDF8181057
:10464000052005F036FBBDF80820BDF80410062053
:1046500005F02FFBBDF81420BDF81010072005F061
:1046600028FB0DB0BDE8F0832DE9F84F5848212113
:104670006C300BF0FEFB564830218D300BF0D7FB31
:10468000FDF7C9FAFDF768FA042003254FF000088A
:104690004FF001094B4CDFF830A10090FFF7F6FE18
:1046A000E8072BD04FF0000B5F465E46616809FAC1
:1046B00006F008421AD040F6AC013046FEF73BFA4D
:1046C000616931F91720DAF80010B1F845118A4212
:1046D0000BDA3F2809D200994FF0010B0844C1B210
:1046E00040F6AC023046FEF73BFA7F1C761C202ECB
:1046F000DCD3BBF1000F01D125F00105A8072BD5B4
:104700004FF0000B5F465E46A16809FA06F00842CA
:104710001AD040F6CD013046FEF70DFAA16931F905
:104720001720DAF80010B1F847118A420BDA3F2857
:1047300009D200994FF0010B0844C1B240F6CD02F6
:104740003046FEF70DFA7F1C761C202EDCD3BBF121
:10475000000F01D125F0020545B1FDF75CFAFDF728
:10476000FBF908F10108B8F1640F97DB03254FF05E
:10477000000800BFFFF78AFEE80734D04FF0000BB7
:104780005F465E46616809FA06F0084218D040F6B6
:10479000AC013046FEF7CFF9616931F91720DAF83C
:1047A0000010B1F845118A4209DD40B1401EC1B286
:1047B0004FF0010B40F6AC023046FEF7D1F97F1CFA
:1047C000761C09E08801100028011000843B1000CD
:1047D00040F80100F8FF0100202ED3D3BBF1000FF9
:1047E00001D125F00105A8072AD54FF0000B5F463F
:1047F0004FEA0B06A16809FA06F0084218D040F605
:10480000CD013046FEF797F9A16931F91720DAF8A2
:104810000010B1F847118A4209DD40B1401EC1B213
:104820004FF0010B40F6CD023046FEF799F97F1CA0
:10483000761C202EDED3BBF1000F01D125F002053E
:10484000002D08D0FDF7E7F9FDF786F908F101081A
:10485000B8F1640F8EDBBDE8F88F2DE9F041FF4D14
:10486000002021212870FE480BF003FBFC4830217A
:1048700021300BF0DCFAFDF76FF9FDF7CCF9F94EBA
:10488000002700BFFFF702FED6E9043200242046CD
:1048900006E000BF32F91010A14200DD0C46401CBA
:1048A0009842F7DB0020F368B26905E032F9101096
:1048B000A14200DD0C46401C9842F7DB002C09DCCD
:1048C00028780F2803D8401C2870FDF7A4F97F1C16
:1048D000202FD7DB40F6FE70844206DD2878401E8C
:1048E0002870BDE8F041FDF796B9BDE8F0812DE9EB
:1048F000F05FDC4C0020DA4FD4F804606C3F0146D6
:104900000346012202FA03F5354203D0FD5C8542DD
:1049100000D928465B1C202BF4D3D14DD4F8086075
:10492000403D002302FA03F7374203D0EF5C8F4289
:1049300000D939465B1C202BF4D3DFF82083CA4D05
:1049400008F1040808F1010988F8000089F800104E
:104950002A68A8F1020AA8F1010B92F80A37DE07CB
:104960007ED09B077FD502F259721479D37804F078
:104970003F0403EB04249579537905F03F0503EBDD
:104980000525167BD37A06F03F0603EB0626977BB8
:10499000537B127807F03F0703EB072752060BD52E
:1049A000631900EB43009AF80020F31910449BF8B8
:1049B000002001EB43010CE06219520002EB4002BF
:1049C0009AF800001044F219520002EB41029BF8E1
:1049D00000101144FDF7EFFEA349096801F20B72C4
:1049E000B1F80B37834201D2A1F80B0791F80A07FF
:1049F000400734D591F85907400617D5600040426A
:104A00006B4291F80B1700EB430001449AF8000049
:104A1000081A88F8000070004042794200EB41001B
:104A2000117801449BF80000081A39E09AF8000058
:104A300063191844B1F80B17404201EB4000C0F372
:104A4000470188F800109BF80000F119084411880C
:104A5000404201EB4000C0F3470189F8001000E03C
:104A600001E0BDE8F09F7F4D9AF800209BF80030F0
:104A70002D6802440B44FF2645F080059A4209D276
:104A8000991A0844FF2802D888F80000E7E788F858
:104A900000600AE09342E2D2D01A0844FF2802D80C
:104AA00089F80000DBE789F800602560D7E72DE989
:104AB000F0416B4C00206C3C6A4B6B4A012105466F
:104AC0005F6801FA00F63E4209D01768265C97F845
:104AD0004A71BE4202D9F61B265400E02554401C00
:104AE0002028EDD35E4C403C5FF000009F6801FA47
:104AF00000F63E4209D01768265C97F84A71BE421C
:104B000002D9F61B265400E02554401C2028EDD382
:104B1000FFF7EDFEBDE8F041FDF758B82DE9F84F7D
:104B20004F484F4D6C380646403D2C210BF0A1F903
:104B3000402128460BF09DF9FFF7D9FEFDF76BF8F1
:104B4000FDF744F80420032400274FF00109DFF8A3
:104B500014A1DFF814B10090FFF798FCE00728D00B
:104B60004FF0000C624660464FEA0A0309FA00F172
:104B7000D3F8048011EA080F13D0596931F9128073
:104B8000DBF80010B1F83811884509DA315CDDF83E
:104B900000804FF0010C4144FF2900DDFF2131541A
:104BA000521C401C2028E1D3BCF1000F01D124F09D
:104BB0000104A00727D54FF0000C6246604653461B
:104BC00009FA00F1D3F8088011EA080F13D09969A7
:104BD00031F91280DBF80010B1F83C11884509DA90
:104BE000295CDDF800804FF0010C4144FF2900DD15
:104BF000FF212954521C401C2028E1D3BCF1000F96
:104C000001D124F0020444B1FFF771FEFDF703F86F
:104C1000FCF7DCFF7F1C642F9EDB03245FF00007A2
:104C2000FFF734FCE0072ED04FF0000E71467046BF
:104C30005246DC46D2F8048009FA00F313EA080F62
:104C400019D05369DCF8008033F91130B8F8388195
:104C500043450FDD335C6BB108E00000F5FF010058
:104C6000ACF8010088011000280110005B1E4FF015
:104C7000010E3354491C401C2028DBD3BEF1000F29
:104C800001D124F00104A00725D54FF0000E714694
:104C9000704652464FEA0B0CD2F8088009FA00F32E
:104CA00013EA080F0FD09369DCF8008033F9113054
:104CB000B8F83C81434505DD2B5C1BB15B1E4FF012
:104CC000010E2B54491C401C2028E5D3BEF1000FD7
:104CD00001D124F00204002C08D0FFF708FEFCF7F5
:104CE0009AFFFCF773FF7F1C642F99DBB3E59B49A8
:104CF00030B409680020034691F8302192070BD5A3
:104D0000974A91F8494101201578A54203D9A5EBAE
:104D10000404147000E0137091F8302152070CD590
:104D20008F4A91F84911521C40F0020014788C42CD
:104D300002D9611A117000E01370002801D030BC54
:104D4000D5E530BC70472DE9F04784490024844DF7
:104D50000868274690F83021920702D501242F7069
:104D600002E090F83F212A70894690F830117D4E7C
:104D7000490703D544F00204377002E090F840017F
:104D80003070002C74D02C2177480BF072F87648E4
:104D900040212C300BF06DF871482121801E0770E6
:104DA00071486C300BF065F86F4830218D300BF096
:104DB0003EF86C49FF20891C0870491E0870FCF7FA
:104DC00005FFFCF7C9FEFCF726FF4FF0100A00278D
:104DD000DFF89881FFF75AFBE00723D0D8E9043CBD
:104DE0000020014606E000BF3CF91120824200DDB0
:104DF0001046491C9942F7DBD9F80010B1F836216A
:104E0000824202DA2878401E08E0B1F84B11814254
:104E100006DB28785044FF2800DDFF20287001E0E1
:104E200024F00104A00726D500200146D8F80CC0C4
:104E3000D8F8183006E000BF33F91120824200DDB7
:104E40001046491C6145F7DBD9F80010B1F83A214A
:104E5000824202DA3078401E08E0B1F84B118142FC
:104E600007DB30785044FF2800DDFF20307002E07F
:104E70000AE024F00204002C06D0FFF738FDFCF70E
:104E8000CAFE7F1C202FA5DBBDE8F08770B5374C2C
:104E900000202060FDF75CFD6060FDF785FDA060EF
:104EA0006068042140086060201DFDF76DFC2061F2
:104EB000042104F10800FDF767FCE060FFF7E6FA63
:104EC0002B4E2169B06800EB41026261E26802EB9F
:104ED000410100EB4100A061FFF735FFFFF707FF3D
:104EE0001E4D286890F83001800603D5FFF716FEA6
:104EF000FFF7DDFD286890F83001000701D5FFF7C6
:104F0000ACFC286890F83001C00601D5FFF7ACFB77
:104F1000FFF702FBFCF77FFEFFF7B8FAB0682169E4
:104F200000EB41026261E26802EB410100EB4100EB
:104F3000A061FFF745FA216801430A4821602A6809
:104F4000C01C037892F8FB2763F303020270BDE8EC
:104F5000704041F0020004F069BE0000280110001A
:104F6000F7FF0100F8FF010040F801008801100080
:104F7000843B100010B5014614229348FDF742FF10
:104F80008021BDE810400120FBF778BAF0B58F4DC5
:104F900006460C4628684FF0FF3197B090F8B100F4
:104FA00000F00F00401C8140CF436846FDF75AFFD8
:104FB0000120ADF80000ADF80240286810F8F91F94
:104FC0008DF8131044F00501ADF802100297ADF80A
:104FD0001660AFF25F01019141788DF8141080786E
:104FE000794D8DF81A0003246846FCF7E8FA15ABF2
:104FF000002280210120FBF780FA80210120FBF7AD
:105000006CFA2878002804D0FDF75EF9641E002CA5
:10501000EADC17B0F0BD2DE9F0476C4D4FF0000908
:10502000DFF8A481286800F57070047846788778E6
:105030001AE049462046FFF7A9FFD8F8040008F017
:10504000F5F90146286890F8F82012F00F0000D119
:10505000012012094A43B2FBF0F082B2214630200F
:1050600004F04EFEE01984B2B442E2DDBDE8F08700
:105070002DE9FF5F4FF6FF764FF0000A93460F468B
:10508000804634465546DFF844911BE038F8150059
:105090005146FFF77BFF4C48406808F0C7F9D9F844
:1050A000001091F8F82012F00F0100D1012112092F
:1050B0004243B2FBF1F080B2A04202D238F8156050
:1050C00004466D1CBD42E1DBABF800600398048030
:1050D000BDE8FF9F2DE9F0413C4E0546884630680B
:1050E00088B090F8D12002F00F01C2F30214491CDD
:1050F000641C0A2900DD0A21022C00DD0224D230C2
:1051000006AB05AAFFF7B4FF326892F8D00080071B
:105110001BD5BDF814600121E632ADF80060002017
:105120004FF4803C6F4607E013563344634502D288
:1051300027F81130491C401CA042F5DB002904DD92
:1051400006AB05AA3846FFF793FFBDF81400288088
:10515000BDF81810A8F8001008B0BDE8F0817CB5C3
:105160000020FBF76AFA1A4C01A968466588FFF728
:10517000B1FF164E3068B0F8E810BDF80400814267
:1051800001D9218000E02080BDF80000608000206F
:10519000FBF76EFABDF80000854207D0306890F842
:1051A000D000400702D56088FEF71BFB09490120AB
:1051B00008700949087009490870BDF8002029469F
:1051C000092004F059FD7CBD983B10002801100017
:1051D000302310003E011000670110007A0110001A
:1051E0002DE9F0410178CE4C01B121700146142225
:1051F000CC48FDF707FECC48016891F8C527D307D6
:10520000C84A01D0136900E093684A7D6168C74DC0
:105210004A43002106E000BF33F811605718491CCB
:1052200025F817600668767D8E42F5DC6268521CB0
:1052300062600168497D01FB02F6002207E08F18D9
:1052400006EB020C33F8177025F81C70521C076827
:105250007F7D9742F3DC61680123491C616000682F
:1052600090F8B12003EB121291421DDA90F80A2750
:10527000D20713D090F8BA0389B200F00F00B1FB47
:10528000F0F200FB1211A74854380029418802D0DF
:1052900041F0020101E021F002014180BDE8F0414E
:1052A000A0485438FCF78BB9BDE8F04180210120BB
:1052B000FBF7E4B82DE9FF4FDFF868B24FF6FF7453
:1052C000002581B08A46A046ABF1540BA946944E06
:1052D0005CE094485438FDF7C5FD934A116891F895
:1052E000C507C00701D0102300E00223ABF800304F
:1052F000019830F81530ABF83030BBF8023043F08D
:105300000403ABF80230AFF2271301F2C931CBF836
:1053100004300A788BF83420CA788BF836204A7823
:105320008BF8392089788BF83A100327C6F8049057
:105330007C4886F800905438FCF741F96B4600220F
:1053400080210120FBF7D9F880210120FBF7C5F867
:10535000307820B1FCF7B8FF7F1E002FE8DC7348DF
:1053600002F051FE7049096891F8C82312F00F014C
:1053700000D101211209424390B2B0FBF1F0A042EA
:1053800003D20199044631F815806D1C5545A0DB08
:105390000399A1F800800498048005B0BDE8F08F5F
:1053A0002DE9F041604D0646884628688CB000F231
:1053B000823C00F2963790F8810300F00F01C0F3B1
:1053C0000214491C641C0A2900DD0A21022C00DD9C
:1053D00002240AAB09AA6046FFF76CFF286890F820
:1053E000800380071AD5BDF824300121ADF80030C4
:1053F00000204FF4803C6D4607E03A561A4462455F
:1054000002D225F81120491C401CA042F5DB0129DD
:1054100004DD0AAB09AA2846FFF74CFFBDF82400BB
:105420003080BDF82810A8F800100CB0BDE8F0815D
:105430007CB50020FBF701F93D4C01A96846E588E1
:10544000FFF7AEFF38480168BDF80400B1F8AC239F
:10545000824201D9A28000E0A080BDF80000E08077
:105460002081854205D091F88013490701D5FEF7C8
:105470000AFA3049012008702F4908700020FBF714
:10548000F7F8BDF8002029460A2004F0F5FB7CBDA2
:105490002DE9F843244DDFF88C802868A8F15408E2
:1054A00000F2C33004884688077934E01D48543838
:1054B000FDF7D8FC286890F8C507C00701D0102177
:1054C00000E00221A8F80010A8F83040B8F8021057
:1054D00041F00401A8F80210AFF2FB21C8F8041053
:1054E0000F49002048600F485438FCF768F86B46B5
:1054F000002280210120FBF700F880210120FAF72B
:10550000ECFF0A4802F07FFD02462146312004F0FC
:10551000F7FBE01984B2B442C8DDBDE8F8830000AF
:10552000A4011000003C100028011000BC9F0120C5
:10553000302310003E011000670110002DE9F041FA
:10554000174604460D46002609E0E00703D0314621
:10555000384604F0C9FA761C6D084FEA340454EA60
:105560000500F2D1BDE8F08130B5034600204FF0D0
:10557000FF32012505FA00F40C4202D0521C9A4277
:1055800003D0401C2028F5D3002030BDF0B50E46D6
:10559000F94C07460125D4E9151005FA06F20F2F3C
:1055A00065D2DFE807F064434B08106464192129D1
:1055B000323A54585C003046FFF7D6FF8540A06A67
:1055C0000543A56253E001463046FFF7CDFF854015
:1055D000206C054325644AE03046FFF7C5FF85404F
:1055E000E06A0543E56242E03046FFF7BDFF8540D3
:1055F000206B054325633AE001463046FFF7B4FFD0
:105600008540A06C0543A56431E03046FFF7ACFF50
:105610008540606B0543656329E001463046FFF72E
:10562000A3FF8540E06C0543E56420E03046FFF7CA
:105630009BFF8540606A0543656218E0014630467D
:10564000FFF792FF8540E06B0543E5630FE0A06B39
:105650000243A2630BE0206D0243226507E001468E
:105660003046FFF781FF8540606C05436564206824
:10567000401C2060F0BD10B501461422BF48FDF764
:10568000C1FB8021BDE810400120FAF7F7BE10B53C
:10569000FDF751F90446FDF7D9F9204310BD10B5C7
:1056A000FDF73BF94408FDF7AFF944EA500040002C
:1056B00010BD2DE9F047894605464FF0FF34FFF74E
:1056C000E6FFAD4F024600207B6801464FF0010C1B
:1056D0000CFA01F6164200D0641CAC4206D1B9F1B6
:1056E000010F09D022EA06000B462021491C20297F
:1056F000EED37B60BDE8F0873046F5E72DE9F04753
:10570000894605464FF0FF34FFF7C9FF9A4F02461E
:105710000020D7F8043001464FF0010C0CFA01F6D6
:10572000164200D0641CAC4206D1B9F1010F08D07A
:1057300022EA06000B461E21491C1E29EED97B6079
:10574000D8E73046F6E72DE9F34F9BB004466846AC
:10575000FDF788FB15A8FCF780FCFFF7A0FF864E3D
:1057600040087065FFF793FF854D4FF00C084FF030
:105770001F094FF0400A4FF0950BB065012C0DD07A
:105780002027022C23D0032C27D0042C2AD0052C30
:1057900031D0062C4FD0082C65D073E0FDF78AF984
:1057A0000290FDF78DF903900120ADF800008DF80F
:1057B0001AB03C20ADF818000298ADF816808DF8AC
:1057C00014908DF813A040087065039859E0FFF716
:1057D00066FF0A90FFF75BFF14E0FFF758FF012117
:1057E0000B9003E0FFF753FF00210B901C98FFF78D
:1057F00085FF0A9007E0FFF752FF0A9001211C98ED
:10580000FFF757FF0B90ADF80070286800F55A704D
:1058100081788DF83410C1788DF8391001788DF8C1
:105820003A1041788DF83B108188ADF8301000892E
:10583000ADF8320026E0FFF732FF0A90FFF727FFAE
:105840000B90ADF80070286800F2613081788DF817
:105850003410C1788DF8391001788DF83A104078FD
:105860008DF83B000EE00820ADF80000ADF8168082
:105870008DF814908DF813A08DF81AB00898706503
:105880000998B0650020BDF802108DF8360021F0AF
:1058900030018DF8100041F04A018DF835008DF887
:1058A0001200ADF80210AFF2312103260191012C54
:1058B00013D0092C24D00A2C22D000BF8DF85E0012
:1058C0008DF860008DF85F00022C10D0032C0ED0F4
:1058D000042C0CD0052C0AD012E0296891F84D1741
:1058E0008DF8580041F003018DF85410E6E7286860
:1058F000B0F86E13ADF85A10B0F87203ADF85C0052
:1059000015A8FCF7CBFB1D4C6846FBF758FE19ABFE
:10591000002280210120FAF7F0FD80210120FAF712
:10592000DCFD2078002804D0FCF7CEFC761E002E8B
:10593000EADC1DB0BDE8F08F2DE9FC5F00210120FD
:10594000FFF701FF0D484768FDF7B4F80190FDF738
:10595000B7F80090042101A8FCF716FF06460421C1
:105960006846FCF711FF844600200546DFF808B0C2
:10597000DFF80CA0009059E0AC011000143C1000BE
:10598000280110004FF00008C1465C462846DBF8AD
:105990005810FFF7E9FD014601208840A16C08423C
:1059A00043D1012432E000BF04FB0C51DAF80000BF
:1059B00037F9112090F86703B2EB001F25DA08F1E0
:1059C0000108B9F1000F00D1A146721E94421CD10A
:1059D000B8F1010F19D1ACF10102954204D1611E59
:1059E0000120FFF7D3FD0EE007EB4101B1F90220E2
:1059F000B2EB001F05DB35B131F9021CB1EB001F22
:105A000001DA002000E002208046641CB442CBDBB7
:105A1000A6EB0901414508D829460220FFF7B6FD4B
:105A200001200099A840084300906D1C6545A9DB42
:105A300001253AE04FF0000844462CE0DBF8403006
:105A4000DBF8482000201A4311D0D9462046DBF865
:105A50005810FFF789FD014601208840D9F8481009
:105A6000084203D1D9F84010084000D0012005FBBE
:105A70000C4137F91120DAF8001091F86713B2EBF6
:105A8000011F07DA30B901200099A040084201D176
:105A900008F10108641C6445D0DBB8F1000F03D0A5
:105AA000691E0120FFF772FD6D1CB542C2DBBDE827
:105AB000FC9F2DE9F041FF4C00200546FE4FDFF82A
:105AC000FC83A0611EE029460520FFF73CFE21690A
:105AD0000120BE6800EB410C36F91C10D8F800001C
