:100000005555AAAA8212000000000000000000005E
:100010002781000000000000000000000CF4D28CDA
:1000200000011000E1070000890200009F020000AB
:10003000B5020000CB020000E10200000000000059
:100040000000000000000000000000007526000015
:100050007926000000000000F70200007B26000067
:100060007D260000A324000023270000DB240000DD
:1000700095260000C9260000CD260000DB260000E2
:10008000ED260000EF260000F12600000F270000FB
:1000900011270000252700000000000000000000DC
:1000A00027270000292700000000000000000000B2
:1000B000000000002B2700002D270000F124000085
:1000C0002F2700003D2700000903000055270000EE
:1000D00057270000000000000000000000000000A2
:1000E0008212000000F002F800F05AF80AA090E82E
:1000F000000C82448344AAF10107DA4501D100F0E3
:100100004FF8AFF2090EBAE80F0013F0010F18BF55
:10011000FB1A43F0010318476C1F01008C1F0100FC
:100120000A444FF0000C10F8013B13F0070408BF1D
:1001300010F8014B1D1108BF10F8015B641E05D0BB
:1001400010F8016B641E01F8016BF9D113F0080F70
:100150001EBF10F8014BAD1C0C1B09D16D1E58BF02
:1001600001F801CBFAD505E014F8016B01F8016B39
:100170006D1EF9D59142D6D37047000000230024AC
:1001800000250026103A28BF78C1FBD8520728BFA7
:1001900030C148BF0B6070471FB51FBD10B510BD03
:1001A000DFF80CD0FFF7F8FF02F0FCFB11F018FDB0
:1001B0000001100003B4FFF7F1FF03BC11F018FDBC
:1001C0000A484FF0FF0101704FF0000080F31188E2
:1001D0004FF0000080F3098805484FF002010170DC
:1001E00062B604484FF080510160704722ED00E094
:1001F0000001100004ED00E002484FF08051016062
:100200007047000004ED00E04FF0200080F31188FB
:10021000EFF3098098B112480068124909688842D2
:1002200017D0EFF309800E49096820E9F00F8860C4
:1002300000B50B48006800F0F2F85DF804EB0848E0
:1002400008490A68026000688168B1E8F00F81F32C
:1002500009884EF0040E4FF0000080F311887047BB
:100260000401100008011000EFF311804FF020018D
:1002700081F31188704700004FF0000080F311886F
:100280007047000062B6704772B6704740BA704758
:10029000C0BA7047401E0028FCDC704700BE7047A3
:1002A00040BA7047C0BA70471EF0040F0CBFEFF39E
:1002B0000880EFF309804FF0010102F047B91EF00A
:1002C000040F0CBFEFF30880EFF309804FF0020139
:1002D00002F03CB91EF0040F0CBFEFF30880EFF3FF
:1002E00009804FF0030102F031B91EF0040F0CBF7A
:1002F000EFF30880EFF309804FF0040102F026B914
:100300001EF0040F0CBFEFF30880EFF309804FF0ED
:10031000050102F01BB94FF0000000B503F01DF815
:100320005DF804EBFFF770BF1EF0040F0CBFEFF396
:100330000880EFF309804FF0000102F007B90000D8
:10034000194910B5012008701849002008601849A3
:100350000860184908601849086000F0A7F900F023
:1003600039F900F063F8002010BD10B5114800F015
:1003700018F90F4908600D490968884207D00A48F2
:100380000078022803D1BDE81040FFF735BF10BD4B
:1003900010B5FFF7EAFF044902200870FFF710FFCD
:1003A0004FF0FF3010BD00000001100004011000EC
:1003B000080110000C0110001001100070B50D466E
:1003C0000446C1698068CC2211F00DFBE169A06888
:1003D000084440384FF08071C163216A8163002175
:1003E00041630163C1628162C0E908514FF00B3182
:1003F000C1614FF00A3181614FF0093141614FF025
:10040000083101614FF00731C1604FF00631816062
:100410004FF0053141604FF00431016070BD8269D9
:100420008168914201D802F06CBB704710B54FF45F
:10043000B471464811F001FB002010BD70B50546AF
:1004400000EBC501414800EB8104FFF70DFF0646B4
:10045000207828B13046FFF70FFF6FF0010070BD24
:100460000320207000206560206204F11C0000F071
:1004700071F83046FFF700FF002070BD2DE9F04114
:100480000F463249002500EBC00001EB80042E46E8
:10049000FFF7EAFE8046206A3843206204F11C0020
:1004A000074600F07EF80CE0216A026C114203D08E
:1004B00000F054F9012600E06D1C2946384600F092
:1004C00066F80028F0D1012E01D1FFF74EFF40461B
:1004D000FFF7D2FE0020BDE8F08170B50D461B4944
:1004E00000EBC00001EB8004FFF7BEFE216AA943C8
:1004F0002162FFF7C1FE002070BD2DE9F0410D46DD
:10050000124900EBC0001E46904601EB8004FFF745
:10051000ABFE07460E4800680564216A294203D1F4
:1005200004F11C0100F02CF93846FFF7A5FEFFF797
:100530009BFE216A29403160B8F1010F02D1216A86
:10054000A9432162FFF798FE0020C4E7940410003D
:1005500004011000002101600846704730B50A68A8
:1005600012B10B46C46B09E000220860C0E9032108
:100570000BE000BF02F10C03D26812B1D56BA542AB
:10058000F8DC1A68C0E903211860002030BD00685B
:10059000002201E0C068521C8A4201D00028F9D133
:1005A00070470068704702690AB1116831B96FF08D
:1005B0000400704701F10C02C96839B18142F9D1D8
:1005C000C968116000210161084670476FF003009F
:1005D0007047000010B54FF4C871324811F02DFA81
:1005E000002010BD2DE9F041884605462D4900EB5D
:1005F0008500174601EBC004FFF736FE064620785B
:1006000030B13046FFF738FE6FF00100BDE8F081F1
:1006100002202070E7611422414604F10800656061
:1006200011F09CF90020206204F12400FFF792FFF2
:100630003046FFF721FE0020E8E770B5194900EBCE
:10064000800001EBC004FFF70FFE0546D4E9070167
:10065000814205DB144804F12401006800F090F8A1
:10066000206A401C20622846FFF706FE002070BD6D
:1006700070B50C4900EB800001EBC004FFF7F4FDFE
:100680000546206A08B1401E206204F12400FFF7ED
:1006900088FF10B1606A00F011F82846FFF7ECFD02
:1006A000002070BDFC0510000401100010B54FF4CF
:1006B0002A71404811F0C1F9002010BD10B5044660
:1006C00090F8380002280BD02046FFF76CFF02207C
:1006D00084F8380038492046FFF740FFFFF745FE11
:1006E000002010BD2DE9F05F8B460646314900EB36
:1006F00006109046DDE90AA911F820201D461AB11E
:100700006FF00100BDE8F09F01EB8004FFF7ACFD46
:10071000074601202070C4E90165C4E90585C4E9E4
:1007200007A91422594604F1240011F017F90020FA
:1007300084F8370084F838006169E0602061C4E91A
:100740000F1020460C99FFF739FEA0602046FFF7F6
:10075000B5FF3846FFF790FD0020D3E710B50446FB
:1007600090F83800022809D02046FFF71CFF02202D
:1007700084F8380010492046FFF7F0FE002010BD35
:1007800070B5044690F838000D4602280BD120467B
:10079000FFF709FF032084F8380029462046FFF7B9
:1007A000DDFEFFF7E2FD002070BD044800684068F0
:1007B000704700008C0710000C01100004011000AD
:1007C000F0B58446002004460C4F14E05CF8246029
:1007D0000323DD0046FA05F280EA026008250028BE
:1007E00002DA87EA400000E040006D1E002DF6DCD2
:1007F0005B1EEED5641C8C42E8DBF0BD1B00008064
:100800001248804712480047FEE7FEE7FEE7FEE792
:10081000FEE7FEE7FEE7FEE7FEE7FEE7FEE7FEE7B0
:10082000FEE7FEE7FEE7FEE7FEE7FEE7FEE7FEE7A0
:10083000FEE7FEE7FEE7FEE7FEE7FEE7FEE7FEE790
:10084000FEE7FEE7FEE7FEE7FEE70000890800009E
:10085000C50000001E4800684FF00051002891F8C4
:10086000210000F01C000DD0042805D0082805D078
:100870000C2805D096200CE011200AE0252008E085
:100880004B2006E0042809D0082809D00C2809D0FC
:100890007020401E01F82C0F087070470C20F8E7FC
:1008A0001B20F6E73720F4E770470A4993200870C9
:1008B000D0E708490B200870CCE70548006818B954
:1008C00004480078932801D0002070470120704729
:1008D000340400222100002070B5042000F054F9F7
:1008E000052000F051F9062000F04EF9072000F035
:1008F0004BF9082000F048F9182000F045F91920BC
:1009000000F042F91A2000F03FF9B14900200860D8
:10091000AF4A40321060AE4B183B1860AC4B083306
:100920001860AC4CE071AA4B143B1860A84B0C3318
:1009300018602072A64B103B1860A54B103318604E
:100940006072A34B0C3B1860A14B14331860A0726B
:100950009F4B083B18609E4B18331860E0729C4B0D
:1009600028331860A0731E1D3060E073331D1860BB
:10097000207401250D60156025700621042000F00B
:100980001BF90621052000F017F90621084600F0A2
:1009900013F90621072000F00FF90621082000F0C6
:1009A0000BF90621182000F007F90621192000F0A4
:1009B00003F904211A2000F0FFF8042000F0F0F8F9
:1009C000052000F0EDF8062000F0EAF8072000F01E
:1009D000E7F8082000F0E4F8182000F0E1F819200A
:1009E00000F0DEF81A2000F0DBF8042000F0C0F878
:1009F000052000F0BDF8062000F0BAF8072000F04E
:100A0000B7F8082000F0B4F8182000F0B1F81A2068
:100A100000F0AEF8FF20E070356070BD00EB8000A4
:100A20006B494000002218390A606A4A521F107050
:100A30000120086070476649002018390860704737
:100A400000EB800062494000002210390A60614AD0
:100A5000D21E10700120086070475D4900201039D7
:100A60000860704700EB80005949400000220C39B3
:100A70000A60584A921E107001200860704754495D
:100A800000200C3908607047514A10B528321468AC
:100A90000123D10664B10024146081F8350091F877
:100AA000420000BF91F842408442FBD0136010BD69
:100AB00081F83500FAE700EBC00101EB00106FF0A0
:100AC000030101EB800010B54349444C0978B0FBA9
:100AD000F1F0401E80B2FF280CD9010A2170494272
:100AE00000EB01206070FF20FFF7CEFF2078401E52
:100AF000207010BD002121706170BDE81040C0B2AF
:100B0000C2E7334828300168002909D0002101607C
:100B1000C10691F8420000BF91F842208242FBD00A
:100B2000704710B52D4C2178607851EA000207D04B
:100B300051B1FF20FFF7A8FF2078401E207010BDA4
:100B4000BDE8104009F008B8FFF79EFF0020607074
:100B500010BD10B5214C0023608830B11920FFF77B
:100B60005DFF6088401E608000E00123184610BDD4
:100B700000F01F020121914040094FF0E02202EBFA
:100B80008000C0F80011704700F01F020121914061
:100B900040094FF0E02202EB8000C0F8801170475E
:100BA00000F01F020121914040094FF0E02202EBCA
:100BB0008000C0F8801270474907090E002803DA48
:100BC00000F00F00064A00E0064A8154704700001A
:100BD0001C050022330000208F01100014011000BA
:100BE00014ED00E000E400E059480121016000211B
:100BF0000160704757480121016000210160704782
:100C000010B5002000F08BF8534800220260FFF777
:100C1000F1FFFFF7E9FF514802605149A020087039
:100C2000002000F088F8BDE81040002000F06BB80C
:100C30004A4801211C38016000210160704710B54D
:100C40000446002000F06BF843484149046001204D
:100C50000860002000F06FF8BDE81040002000F0B0
:100C600052B830B53C4889B00468002C11D020211E
:100C7000684610F0E2FE3B4800783A4B00216A4695
:100C80005B1C02E0CD5C5554491C8142FADB1146E5
:100C9000A04709B030BD2E4901201C3908607047BB
:100CA0003048203000782F4921310978401A00F06F
:100CB0003F0070472C4902780A7042784A70827867
:100CC0008A70C278CA7002790A7142794A7182794F
:100CD0008A71C079C8717047244800684178827869
:100CE0004FF00050437A0374214B1B7843744389BF
:100CF0001B0A83744389C37401754275C179817578
:100D0000017AC175704700F01F020121914040092E
:100D10004FF0E02202EB8000C0F80011704700F0B5
:100D20001F020121914040094FF0E02202EB8000B8
:100D3000C0F88011704700F01F0201219140400966
:100D40004FF0E02202EB8000C0F8801270470000F4
:100D50005C840022A0000022180110007C04002204
:100D600000E400E000040020000200203801100030
:100D70008401100010B5092000F053F80A2000F09B
:100D800050F8092000F059F80A2000F056F8052123
:100D9000092000F05EF805210A2000F05AF83248D8
:100DA0007F21417081700171002100F848192F499D
:100DB0000A684FF0010192F8C830DC070AD09C079E
:100DC00008D590F84A40C3F3820301FA03F39C4329
:100DD00080F84A4092F81131DC0721D0C3F3420376
:100DE000012B03D0224B4FF480641C604830837881
:100DF00002F211121478C4F3420401FA04F4A3437A
:100E0000837003791478C4F3420401FA04F4234391
:100E1000037103781278C2F3420291400B430370CE
:100E200010BD00F01F020121914040094FF0E02267
:100E300002EB8000C0F88011704700F01F02012112
:100E4000914040094FF0E02202EB8000C0F8801290
:100E500070474907090E002803DA00F00F00054A21
:100E600000E0054A81547047480000203801100016
:100E700000E100E014ED00E000E400E0704710B590
:100E8000044602462A21002000F060F9221D2B2191
:100E9000002000F05BF904F108022C21002000F092
:100EA00055F92068000E032825D104F110022D21E8
:100EB000002000F04BF904F10C022E21002000F07C
:100EC00045F904F118022F21002000F03FF904F148
:100ED00014023021002000F039F904F12002312100
:100EE000002000F033F904F11C023221BDE810406B
:100EF000002000F02BB910BD10B5BE4C072060706B
:100F00000020207044F2C000608000BF00BF00BF1E
:100F10004CF2C000608000BF00BF00BF4CF2E00098
:100F200060800920FFF7B6F944F2E000608000BF5E
:100F300000BF00BF4FF48040608010BDF0B50025B9
:100F40002E464FF00054E02717E000BF883401F030
:100F50003F0160702170678000BF00BF00BFD4F800
:100F600008C043F825C06680883C00BF6D1C521E37
:100F7000491C3F2901D9401CC0B2002AE6DCF0BD63
:100F80002DE9F0479B4D0026AD1C04462E80DFF86E
:100F900068920121C9F880104FF4C058A5F800806C
:100FA00000BF00BF00BF00BF00BF4FF480572F80BD
:100FB0003520FFF76FF92E80FFF79EFF00F0DCF879
:100FC0005C2000F0EAF82346012208210020FFF708
:100FD000B5FF231D012209210020FFF7AFFF04F117
:100FE000080301220A210020FFF7A8FF04F10C03E7
:100FF00001220B210020FFF7A1FF04F110030122C1
:101000000C210020FFF79AFF04F1140301220D21A7
:101010000020FFF793FF00F0AFF8FFF76DFF2F8080
:1010200000BF00BF00BF00BF00BF00BF00BF00BFC8
:1010300000BF00BFA5F8008000BF00BF00BF00BF19
:1010400000BF4FF440602880C9F88060BDE8F08799
:10105000F0B54FF0000C059C0CB14FF0800CC5B200
:1010600000264FF00057644C28E000BF87F88950F5
:101070004FEAC05EBEF1000F01F03F0E4EEA0C0ECB
:1010800001DA4EF0400E87F888E053F826E0C7F802
:101090008CE04FF0010EC4F8B0E04FF0000EC4F841
:1010A000B0E0491CC9B2402902D36D1CEDB2002149
:1010B000D4F8C0E0BEF1000FFAD1761C9642D5DB21
:1010C000F0BD4FF0005282F88900002309B1802062
:1010D00002E0C00503D5402082F8880001E082F8D4
:1010E000883045480121C0F8AC10C0F8AC3000BFD2
:1010F000D0F8C0100029FBD17047F8B50C46054662
:101100004FF4F47600213046FFF7DBFF0020014664
:1011100000902B4622463046FFF79AFFF8BDF8B5FF
:101120000C4605464FF4F87600213046FFF7C9FF1C
:1011300000214FF4FC70FFF7C4FF0020014600902F
:101140002B4622463046FFF783FFF8BD294B5870E7
:1011500041F0800003F8880927480021B43001607D
:10116000012140F8B41900BFD0F8C0100029FBD10C
:10117000D3F890001060704710B51E4C4FF48040BB
:10118000A41C20800420FFF785F80020208000BFE9
:1011900000BF00BF00BF00BF10BD70B5154C2126B9
:1011A000A41C268000BF00BF00BF00BF00BF40F0EE
:1011B0002105258000BF00BF00BF00BF00BF44F273
:1011C0002101084320800420FFF764F8258000BF38
:1011D00000BF00BF00BF00BF268000BF00BF00BF30
:1011E00000BF00BF0020208000BF00BF00BF00BFC5
:1011F00000BF70BD8800002000100022F8B5F94C37
:10120000002635462670E66026610120666100F002
:101210005EFD0C2000F05BFD032000F058FD172060
:1012200000F055FD012000F05EFD0C2000F05BFD9C
:10123000032000F058FD172000F055FD00F0F7FEE8
:101240006A460221E84801F024F9E8499DF80100C6
:1012500008709DF80000532800D0042605210120C5
:1012600000F04DFD05210C2000F049FD0621032072
:1012700000F045FD0621172000F041FD012000F09F
:101280001AFD032000F017FD172000F014FDA570D3
:101290006570E5703046F8BD70B5D24B1889C0F363
:1012A0008001C0F34016C0F300247140C0F3C02297
:1012B0006140C0F3803551406940400840EAC13088
:1012C000188170BD38B50D4600901446042168465B
:1012D00001F01EFCC6498978C90602D5062D00D149
:1012E000401C0099A16484F8460038BD2DE9F04700
:1012F000C04D0646BE4C286890F83404C00718D08C
:10130000608840F080006080FFF7C6FF296800F029
:101310000700084490F8350484F83500FFF7BCFF57
:101320002968C0F30210084490F83504800084F85E
:101330003400002084F83F0028684FF002084FF086
:10134000E90990F845176174AB49042EC1F30E0703
:1013500006D0032E1FD0022E41D0052E5CD082E095
:10136000A34A3146A06AFFF7ADFFE06A2065A4F802
:101370004070A07880060028286890F8590703DAA2
:1013800020F0060040F0040084F8440084F8458012
:1013900084F8429067E0964A3146A06AFFF792FFD0
:1013A000E06A206592480421283001F0B1FB92499F
:1013B00001EB8000C0F30E00A4F84000A078800686
:1013C0000028286890F8590703DA20F0060040F05A
:1013D000040084F8440084F84580ED2019E0844A34
:1013E0003146A06AFFF76EFFE06A2065A4F84070FE
:1013F000A07880060028286890F8590703DA20F0C2
:10140000060040F0040084F84400042084F84500FD
:10141000E52084F8420026E0A178890623D500F271
:10142000C93028340178A173C178217441782175BD
:10143000807860750120E0756D4A31462068FFF7BD
:1014400041FF6D48F830C0F30E002083286890F803
:10145000590720F0060040F00200207784F81D8034
:1014600084F81A90283C286890F80A17C907A178D0
:101470004FEA81710BD000290BDB0121084602F0F5
:10148000ACF814F8430F40F0030020700AE0002984
:1014900004DA90F86C0720F0030001E090F86C0784
:1014A00084F843004F484670BDE8F047504800F0CC
:1014B000B2BE50484E49006890F800224A7790F832
:1014C0000122CA744A88D20504D490F8022202F09C
:1014D0000F028A7400F20320027802F03F020A75BC
:1014E000B0F801200A83C2788A76444A00791278DB
:1014F00000F0F00040EA1210C87670472DE9F0477E
:101500003B4C0546002084F83F00DFF8E8A0E120CE
:1015100084F84200DAF80000DFF8E090314E90F8ED
:101520004517617490F80A175FEAC1783449C1F32E
:101530000E072146B1F802C0CB7C0CF0FF024CF044
:10154000010104D05FEA8C7C01D4012D06D0072D67
:101550000CD0062D56D0082D67D029E0337172715A
:101560000A22E2746180A4F840700DE03371727158
:101570006180417D027D491C5143214A02EB4101BA
:10158000C1F30E01A4F8401090F8531799F8002009
:1015900001F0F00102F00F021143E17690F85507D7
:1015A0006077134A29460120FFF78CFEE06820652A
:1015B0006088C10705D094F8421041F0020184F818
:1015C0004210DAF800104FEA807091F80A27D2072B
:1015D00049D0002849DB062D35D0082D33D0012D08
:1015E00036D04BE01C0110000410002084011000D4
:1015F000340A10003801100080870120F6FF010036
:1016000000800120A4F8407090F8531799F800204A
:1016100001F0F00102F00F021143E17690F8550756
:101620006077FA4A2946A068BEE7F948C0F30E0081
:10163000A4F84000FFF73DFFF44A2946206AFFF76F
:1016400041FE606AB3E714F8430F20F0030008E09E
:101650000021012001F0C1FF14F8430F20F0030026
:10166000801C20700AE0002804DA91F86C0720F052
:10167000030001E091F86C0784F843007570BDE841
:10168000F047E24800F06FBD06280ED008280CD0C5
:1016900001280AD0072808D0042805D0032803D041
:1016A000052801D0022801D120E627E770472DE95F
:1016B000F84FD84D8246012901D10020A871AC799C
:1016C000DFF8589304F10104D34EDFF84083A9F109
:1016D000280713E0306890F80A07C00706D098F88A
:1016E0000200800702D459F8242001E057F8242092
:1016F000694650469047012805D0641C092CE9D959
:101700000020BDE8F88FAC719DF80000F9E770B5D6
:1017100005460088002838D054222946BB4801F0ED
:1017200070FDFFF742F8BB4CBB4EA061306890F8EB
:101730000A07C0070AD0A878800707D4B3490888E9
:1017400010F0760F02D040F080000880607800280A
:101750001BD10121AD48FFF7AAFF050015D0B04904
:1017600001200870306890F8101149070ED590F8E4
:10177000430780070AD400F06BFE0220A07000F03F
:101780006BFE192000F07BFE657070BD002020709C
:101790002846BDE8704077E7002070478268120055
:1017A00006D00088C00503D50720087001207047C7
:1017B000002070478268120006D00078C00703D06E
:1017C000062008700120704700207047026A12004E
:1017D00006D00078000703D5082008700120704764
:1017E000002070478268120005D00078000602D5FC
:1017F00001200870704700207047826A120008D0EC
:10180000C26A32B10078800603D502200870012038
:10181000704700207047826A120006D00078C00628
:1018200003D5052008700120704700207047826AA8
:10183000120006D00078800703D50420087001202C
:10184000704700207047C26A32B10078400703D564
:1018500003200870012070470020704700200870A6
:10186000012070472DE9F04168480421283001F03B
:101870004FF90446654804212C3001F049F9654FC1
:101880000546DFF888817878664E042801D0022862
:101890000CD198F80200800602D5A200614902E04E
:1018A000620006EB4401604801F0ABFC7878032845
:1018B00001D0022811D198F80200800603D5AA00B1
:1018C00006EB840104E005EB44006A0006EB4001EE
:1018D000BDE8F041554801F094BCBDE8F08130B559
:1018E00085B001208DF800004B48484D494C0068F8
:1018F00090F80A07C0070AD0A878800707D4607854
:10190000012804D102208DF8000008F02EF900F023
:1019100061FB47480190434802903D48E17800EB65
:10192000410003900020E0703948783804906968DD
:101930006846884705B030BD2DE9FE4FDFF8D8A0D6
:1019400001200090DAF80000364E0024B0F9561459
:10195000B0F95A24114401EBD17149100291B0F948
:101960005814B0F95C24114401EBD1714910019174
:1019700090F80017C9072BD0244991F83A7007B99D
:1019800001272249234D91F8391091FBF7F10FFA05
:1019900081F86978042902D0032903D00BE0407D47
:1019A000440020E0194840240421283001F0B0F818
:1019B0001C4901EB8006687802280AD005280BD064
:1019C000042810D003280ED002280CD005280AD0F5
:1019D000E5E07A24134E06E0DAF800000C4E3A24D3
:1019E00090F80187783EE9688B4641456FDCBBF192
:1019F000000F05D106484FF4F871143010F01DF8AF
:101A000003490020143189461CE00000340A10000C
:101A1000F08801201C01100038011000041C010096
:101A20008D01100080870120CC8E0120448F012081
:101A30000080012051F8202036F910301A4449F86E
:101A40002020401CA042F5DB0BF10100E86040457E
:101A50007CDB0020E8606878DFF8B882042804D0D6
:101A6000032824D0022844D081E0AB4890F83B0002
:101A700038B1DAF80000407D4100A84801F04EFD81
:101A80002861002049462A690EE000BF31F8203065
:101A90007B43A3EB020C029B634426F8103051F801
:101AA000203048F82030401CA042EFDB5FE09A482D
:101AB00090F83B0038B1DAF80000007D410097480B
:101AC00001F02CFD6861002049466A690EE060E083
:101AD00031F820307B43A3EB020C019B634426F8D2
:101AE000103051F8203048F82030401CA042EFDB85
:101AF0003DE0894890F83B0088B1DAF80000407D6D
:101B00004100864801F00AFD2861DAF80000017DF5
:101B1000427D490009EBC20001F000FD6861002030
:101B200052464346494620E0D2F800C09CF815C012
:101B3000B0EB4C0F31F820C00CFB07FC07DAB5F80E
:101B40001080ACEB0808DDF808C006E022E0B5F82C
:101B50001480ACEB0808DDF804C0C44426F810C0BB
:101B600051F820C043F820C0401CA042DCDB68785C
:101B7000052814D100206A4A09E000BF31F820305E
:101B800026F8103051F8203042F82030401CA04296
:101B9000F4DB04E06878FFF777FD00200090009800
:101BA000BDE8FE8FF0B585B0FFF75CFE5A4DA87812
:101BB000400603D4FFF7C0FE002819D0594F5A4CF5
:101BC000386890F80A07C0070BD0A878800708D4B7
:101BD0006078012805D12079E8746079688007F081
:101BE000C4FF00214C48FFF762FD18B1FFF74CFD20
:101BF00005B0F0BD4D48002666700670386890F854
:101C00000A07C00706D0A878800703D40021084639
:101C100001F0E3FC4649A4200873386890F81001ED
:101C2000400702D5A67000F001FC2078012814D0EE
:101C30008DF800603F48019000F5F0600290E17877
:101C400000F5B87000EB410003903448E6708C3822
:101C50000490696868468847CAE703208DF8000049
:101C6000E8E770B52F48314D4FF00004016891F856
:101C7000100142072C480AD591F84317890706D46A
:101C80008178012908D002290FD0032903D184705B
:101C9000FFF725FE2C7070BD0221817000F0DCFB87
:101CA000BDE87040322000F0EABB0321817040782B
:101CB000BDE87040E8E400F01F02012191404009B6
:101CC0004FF0E02202EB8000C0F80011704700F0F6
:101CD0001F020121914040094FF0E02202EB8000F9
:101CE000C0F88011704700F01F02012191404009A7
:101CF0004FF0E02202EB8000C0F8801270474907E5
:101D0000090E002803DA00F00F000B4A00E00B4A2E
:101D100081547047F48A0120340A1000048901209C
:101D2000E48C0120380110001C0110008D0110000E
:101D3000001000200080012014ED00E000E400E02D
:101D4000F0B527260022FA4DFA484FF4F8315C2707
:101D50000C46002303EB000E11F803C05B1C8EF849
:101D600060C00C2BF6DB2B68002BFCD18276C7768B
:101D700004F10C0103EB000E11F803C05B1C8EF89C
:101D800060C00C2BF6DB29680029FCD1511C817640
:101D9000C776921C04F13001B242D9DBF0BD2DE9C7
:101DA000F0479246089E5B1EC6F108010022E14CF6
:101DB00001F0FF0C1546002189469A420BDA00EB30
:101DC0000208875C98F8018027FA06F708FA0CF8F1
:101DD00047EA080703E007D1875C27FA06F701EB1B
:101DE000040888F8607003E001EB040888F860904C
:101DF00001F1010102F101020C29DEDBCC490F687F
:101E0000002FFCD10AEB0501A1765C21E1766D1C67
:101E1000022DD0DBBDE8F08718B5002411235C2229
:101E20002146C5480094FFF7BAFFC3481823622231
:101E3000002121300094FFF7B2FF18BD2DE9F047D3
:101E40000024DFF8EC82BB498246254626464FF047
:101E50005C0900209C4206DA00EB010C1AF80470C1
:101E60008CF8607002E0471887F86060641C401CC2
:101E70000C28EFDBD8F800000028FBD15019887639
:101E800081F81B906D1C032DE3DBC3E7AA4800B566
:101E900016235E2200216C38FFF7D0FFA6482023CE
:101EA0006422002140385DF804EBC7E770B50023D9
:101EB000A04C05E0CD5C1E195B1C86F860505BB23F
:101EC0009342F7DB9A490B68002BFCD1A07642F0D5
:101ED0001000E07670BD30B5984C072202202168D2
:101EE00001F24271FFF7E2FF2168022201F24A711A
:101EF0000920FFF7DBFF2168062201F24D710B205C
:101F0000FFF7D4FF20688E498E4D90F8530709786B
:101F100000F0F00001F00F0108432870012229466B
:101F20001120FFF7C3FF2168072201F2547112202C
:101F3000FFF7BCFF82480122401E007800F00F012D
:101F4000206890F85B0761F31F102870294619205C
:101F5000FFF7ACFF2168042201F25C711A20FFF741
:101F6000A5FF77480222C01C2946007828707448D3
:101F7000401C007868701E20FFF798FF2168062239
:101F800001F262712020FFF791FF6D480222001DCF
:101F90002946007828706A48801C007868702620DE
:101FA000FFF784FF2168022201F26A712820FFF7FF
:101FB0007DFF2168072201F26C713C20FFF776FF5C
:101FC000206890F8C01760480170332141740B21DC
:101FD000817430BD5D48002202605C481C3802609C
:101FE0005B480261012101618260816002600160E1
:101FF00002604F49A0F574700B68002BFCD14D496D
:102000000B7B43F020030B730B7B23F040030B731C
:102010000B7B23F080030B730B7B23F020030B73EC
:10202000C0F8D823C0F8E0234A480270704730B5A2
:1020300047480024743004604548803004604448B8
:10204000C4600121C160C4600460016004603E4D51
:102050002020AD1D287068703649593D0873A420B2
:1020600008733348183001680029FCD1FFF7B2FF2C
:10207000FFF731FFFFF70AFFFFF7CEFEFFF760FE25
:102080003548046085F8344030BD38B50546294CE4
:10209000806C00906073010AA173010CE173000E63
:1020A0002074042269462A20FFF700FF012205F16F
:1020B00046012E20FFF7FAFE95F84600A074286D21
:1020C0000090E074010A2175010C6175000EA07585
:1020D000042269463420FFF7E9FE0098800F84F857
:1020E00040001849012208703820FFF7DFFE38BD94
:1020F00000EBC00101EB00106FF0030101EB800069
:1021000010B51649144A0978146890FBF1F0401E86
:10211000C1B2012358071CB30024146080F83410A6
:1021200090F8421090F842408C42FBD0136010BDF2
:10213000040B002200100020ACF801003801100050
:10214000F6FF0100880A1000530000201C0C00223A
:10215000D00300221D011000400500228F01100055
:1021600080F83410E2E778B50446FFF78EFFED48BB
:10217000B4F840100180217C00F8011C94F8421052
:102180004173E94EA07C86F83600E84D286890F847
:1021900042078DF800006188890503D520F0120000
:1021A0008DF80000012269460220FFF77FFE04221D
:1021B00004F111010520FFF779FE2968022201F2DE
:1021C0004A710920FFF772FE022204F116010C2069
:1021D000FFF76CFE022204F118010E20FFF766FEE5
:1021E0002868052204F11A0190F85407207710207E
:1021F000FFF75CFE012204F143013C20FFF756FE8D
:10220000CB4801680129FCD194F8420030732320A7
:10221000FFF76EFF78BD7EB50446FFF736FFC14875
:10222000B4F84010018094F8371000F8011C94F8BD
:1022300042104173BD4D286890F842078DF80000A8
:102240006188890503D520F012008DF80000012275
:1022500069460220FFF72AFE296891F80A07C0079D
:1022600069D06288900766D4B1F80D07ADF8040014
:10227000B1F87017ADF80810120609D594F835209A
:102280001144ADF8081094F834100844ADF8040077
:10229000022202A94020FFF709FE022201A909201B
:1022A000FFF704FE022204F130011A20FFF7FEFDC1
:1022B000022204F132012220FFF7F8FD012204F18D
:1022C00036010720FFF7F2FD012204F13C0108204E
:1022D000FFF7ECFD012204F13D012020FFF7E6FDB0
:1022E000012204F13E012820FFF7E0FD012204F164
:1022F00044011720FFF7DAFD012204F145011820FF
:10230000FFF7D4FD28688B49012290F8540720F08C
:10231000F00008701220FFF7C9FD94F83F00824ECC
:10232000C0070CD0286800F2C67190F8C60786F87E
:10233000360001220AE0022201F24A71AFE794F866
:10234000380086F83600012204F138010620FFF734
:10235000ADFD012204F143013C20FFF7A7FD2868F1
:102360000122694690F8430740F008008DF800000C
:102370000320FFF79BFD6E4801680129FCD194F80A
:10238000420030732320FFF7B3FE7EBD67496A4BDE
:102390000A6892F84D2702700A68B2F85027428006
:1023A00009681B7801F2547103F00F0311F8012C36
:1023B00002F0F0021A4302714A89C2804A8A0281FD
:1023C000CA7B8272CA7DC27249780173704710B5A8
:1023D0000446014601220B20FFF768FD0222A11CE2
:1023E0000E20FFF763FD0122211D1120FFF75EFD86
:1023F0000222A11D1C20FFF759FD022204F1080151
:102400002420FFF753FD012204F10A012120FFF7E8
:102410004DFD012204F10B012920FFF747FD04F1D6
:102420000C010122BDE8104013203FE53E4908B5EC
:10243000042008733D4801226946006890F843076C
:1024400020F008008DF800000320FFF72FFD08BDE5
:1024500035492020087370473349C02008737047FE
:1024600036480168002909D0002101604FF0005171
:1024700091F8420091F842208242FBD070472F49E8
:10248000002240390A60274A273A1070012008606C
:10249000704770B5264C1C342368002BFCD11D46B8
:1024A00003E0C6185B1C86F880508B42F9D3236882
:1024B000002BFCD102E0C45CD4545B1C8B42FAD3E9
:1024C00070BD10B500F06EFFFFF7CAFF1C48007822
:1024D00078B11748001D01680029FCD11248C07866
:1024E000400602D5174901200870BDE81040FFF7EB
:1024F00059BB15490020087019E610B500F052FFCD
:102500000E49002040390860BDE81040FFF7A9BB24
:1025100010B500F047FFFFF7A3FFBDE81040FFF73D
:10252000A0BB000054000020001000203801100063
:10253000000B0022880A1000F6FF0100400500226F
:102540001D0110001C0110008D0110000446012027
:1025500007F035FC00210F20226807F048FC01211C
:102560000F20626807F043FC02210F20A26807F0E9
:102570003EFC03210F20E26807F039FC0C210F20FC
:10258000226907F034FC0E210F20626907F02FFC4E
:102590000F210846A26907F02AFC20210F20E269DA
:1025A00007F025FC3A48026821210F2007F01FFCA4
:1025B00037481038026822210F2007F018FC3448F1
:1025C0000C38026823210F2007F011FC304808382E
:1025D000026824210F2007F00AFC2D48001D026824
:1025E00025210F2007F003FC2948343802682621F2
:1025F0000F2007F0FCFB26481438026827210F2023
:1026000007F0F5FBFEF7D1F8024630210F2007F066
:10261000EEFBFEE710B5012807D002280ED00328F4
:1026200005D0042805D0042109E0012107E0032199
:1026300005E00021032007F0C2FBFEE70221BDE810
:102640001040032007F0BBBB10B504460146042030
:1026500007F0B5FB012C00D1FEE710BD01460820B4
:1026600007F0ADBB0146062007F0A9BB10B5044634
:102670000146072007F0A3FB012C04D0022C03D055
:10268000032C02D1FEE7FEE7FEE710BD0320EDE7D5
:1026900038ED00E000F086BE70477047364810B550
:1026A000016821F00401016000F07CFEBDE81040EB
:1026B000FEF7D7BA314810B5007801280DD00328AD
:1026C00011D1FEF7B8F90DF006FCFEF742FA00282A
:1026D00009D0BDE8104007F0AFBCFEF7ACF9BDE88B
:1026E00010400DF0F8BB10BD00F05CBE10B500F05E
:1026F00059FEBDE8104007F0BEBD10B500F052FE17
:10270000BDE810404FF0005000F0FCBF704770472C
:1027100010B500F047FE1A480078012803D0BDE844
:10272000104007F034BABDE8104001F0D0BC70474B
:1027300010B500F037FEBDE810404FF0805000F0BB
:10274000E1BF70477047704770477047704710B5DA
:1027500000F028FEBDE81040FEF7E3B910B500F028
:1027600021FE07480078012803D1BDE8104001F0A0
:102770008ABC10BD7047704710ED00E0A201100048
:102780008C01100010B5562198480FF034F9974885
:102790009749984A0180828097494180974BC3802E
:1027A000974C0481974C4481974C8481974CC48109
:1027B000974C0482974C4482974C8482974CC482F5
:1027C000974C0483974C4486974C8486974CC486D8
:1027D000974C0487C387418782879649A0F84010A9
:1027E00095490968B1F86220A0F84220B1F8C621E5
:1027F000A0F84420B1F8A120A0F84620B1F8F021BB
:10280000A0F84820B1F85421A0F84A20B1F852218C
:10281000A0F84C208748B1F84E274280B1F85C27D9
:10282000C280B1F86417018110BD84481322854924
:1028300003788348552B02D0027019200CE07E4BA0
:102840001B6893F81131DB0702D07C4A521C1278C6
:1028500002707A48801C0078087070472DE9F041BA
:102860008AB0FF22242168460FF0BDF86846FEF7C3
:1028700006FB01990E240126072545F2AA50814244
:1028800002D00299814237D1009980460F0E0299F9
:10289000414508D1032F02D10098C0F301360098BA
:1028A000C0F3032502E00120FFF7DCFE019941455A
:1028B00003D1009800F01F0402E00220FFF7D2FECF
:1028C000032F1FD1049A40465F49824201D1039AE7
:1028D00000E05E4A0A60069A5D49824201D1059A8B
:1028E00000E05C4A0A60089A5B49424501D10798BA
:1028F00000E05A48086005E00120FFF7B3FE02201F
:10290000FFF7B0FE564906F0030040EA051081F8D3
:102910006000012088761120C8765248017864F35F
:10292000040101700AB0BDE8F08170B5FDF7BDFF8C
:10293000FEF766F9404C20680078A52802D00120F7
:10294000FFF782FE4FF008500125C0F89853206829
:10295000454A90F8281101F00101116090F8280112
:10296000111DC0F340000860FEF788FAFDF7B4FFC0
:10297000FEF744FC042801D1FFF74CFEFEF7ACF94A
:10298000FEF7F8F93648802180F86010042181763E
:102990001121C176FFF762FFFFF747FF32480C387D
:1029A000056070BD41F2822010B501074881FFF734
:1029B000BCFFFFF7E7FE2D495F2008602C4900208F
:1029C00008602D482B49016001F508602B4908601B
:1029D0002B4800F0ABFAFDF757FC00F053F8FDF779
:1029E00051FCFDF7D5FC012010BD000000000120C6
:1029F0000080012018A70120989F01205600012087
:102A000080870120462E0120822E0120C82E012021
:102A1000042F0120BC330120F8330120E2290120DA
:102A20001E2A01203A2E0120C0970120CC970120B8
:102A3000D62901203024100038011000F2FF0100D7
:102A4000900110008F0110009401100040A5AE020B
:102A500098011000008793039C01100000366E015E
:102A6000001000202000002088040022C42E012035
:102A7000800110001812100064011000680110009D
:102A8000182310007FB5FDF75BFC1F4D002400BF2D
:102A900005EB441000F11002017F4CCACDE9026140
:102AA000CDE900230FC8FDF71DFE10B10220FFF78E
:102AB000DDFD641C082CEBDB144D002404EB44000A
:102AC00005EB8001091D55F8200006C9FDF78AFDB8
:102AD00010B10220FFF7CAFD641C082CEEDB0B4D81
:102AE0000024603505EBC400416855F83400FDF75B
:102AF000A5FC10B10220FFF7B9FD641C072CF1DB27
:102B00007FBD4068FFF7C2BD2C1C01002C1D0100D9
:102B100070B5034600200246FE4C09E09D5C521C45
:102B200005F00F0604EB1515A65D2D7830442844FA
:102B30008A42F3DB70BD884200D308467047884262
:102B400000D808467047884200D30846904200D318
:102B5000104670472DE9F047D0F810C00568046AA8
:102B600085FB0C12A1FB041242694368914683FB6A
:102B700002628269E246A6FB02677618D0E9021774
:102B800081FB07C8C069ACFB00C81CEB060682FBD2
:102B90000A2CA2FB011280FB0902A0FB05024018CF
:102BA00084FB0712A1FB03120818301A4FEAE071E8
:102BB000BDE8F0872DE9F04389B004460068009035
:102BC0006068019020690290606803902069049019
:102BD000A069059020690690A0690790E0690890B7
:102BE0000D466846FFF7B6FF8046A0680190E06892
:102BF00004906069079089466846FFF7ABFF064678
:102C000060680190A068029020690490E0680590D7
:102C1000A0690790606908900F466846FFF79AFF21
:102C2000C5E90401C5E90267C5E9008909B0BDE845
:102C3000F0832DE9FF4F4FF0000A89B09B465746BD
:102C4000D146D046564655465446202168460EF099
:102C5000F4FE0B9810E00999824431F9102000FB32
:102C600000F102FB01668844414302FB009901FB2D
:102C7000004417440D44401C5845ECDD0B99ABEB68
:102C80000100401CCDE9000ACDE90654CDE90486D7
:102C9000CDE9027968460A99FFF78CFF0DB0BDE8CF
:102CA000F08F9D480068017B427B41EA0221827BD4
:102CB000C07B41EA024141EA00604000704796480B
:102CC00000680179427941EA02218279C07941EABA
:102CD000024141EA0060704700B5FFF7E2FF40089B
:102CE000400000BDF8B50E460446FFF7F5FF009022
:102CF000FFF7D7FF054604216846FFF709FF04EBFD
:102D000040070024DDF80010204623464FF0010C58
:102D10000CFA03F20A4207D02A4204D037F81020F6
:102D200026F81420641C401C5B1C1E2BF0DBF8BD35
:102D3000C5E7FCB50E460746FFF7CEFF0190FFF74B
:102D4000BEFF0090FFF7BBFF0546042101A8FFF777
:102D5000DFFE044604216846FFF7DAFE00EB44007C
:102D600007EB400700200099044603464FF0010C92
:102D70000CFA03F20A4207D02A4204D037F8142092
:102D800026F81020401C641C5B1C202BF0DBFCBDD3
:102D900070B561490020096801F5F57491F8E851B2
:102DA0008DB191F8E6214FF00103D2070DD000223A
:102DB00003FA02F6354203D0A65C03FA06F1084393
:102DC000521C062AF4DB400070BD91F8E91103FAA9
:102DD00001F0F8E770B550490020096801F5F57475
:102DE00091F8E851002D09D091F8E6214FF0010348
:102DF000D20704D091F8E91103FA01F070BD03FA8B
:102E000002F6354203D0A65C03FA06F10843521CD1
:102E1000062AF4DB70BD70B500223F4C012303FA93
:102E200002F6256895F8E851354203D030F8125083
:102E300021F81250521C062AF1DB70BD00B5FFF7D5
:102E400030FF40F0010000BD39E7344A520102EB87
:102E5000810101F108510860704701EB801080107A
:102E600001EB41014900182291FBF2F300EB400015
:102E700000F5F83002FB1311006820F07F40C840D5
:102E800000F03F00704701EB8010801010B501EB9F
:102E900041014900182391FBF3F403FB141300EBE9
:102EA000400000F5F8303F2401689C40A1439A405F
:102EB0000A430270110A4170110C817010BD82101A
:102EC00002EB4202114400EB40004000182290FB4C
:102ED000F2F301F5F83102FB1302086820F07F409D
:102EE000D04000F03F007047831003EB43031A44C7
:102EF00010B500EB40004000182390FBF3F403FBF7
:102F0000140302F5F8323F2410689C40A043994016
:102F1000014305E0C41D010038011000C42E01204A
:102F20001170080A5070080C907010BD2DE9F14F17
:102F3000782100980EF081FDFFF780FF4FEA5008DE
:102F4000FFF7BDFE4FF0000C814666464FF0010AC8
:102F50000AFA06F111EA090F1ED0002401272546BE
:102F60000AFA0CFB0AFA05F010EA080F0FD03146F6
:102F70002846FFF772FFA04207D00099009A51F847
:102F8000271041EA0B0142F8271004467F1C6D1CF4
:102F9000272DE7DB0CF1010C761C202ED8DBBDE8D9
:102FA000F88F2DE9F04F8346F94800242246D0F8E7
:102FB00000A001219AF81450A5F1010621E0032098
:102FC0000123DFF8D0E303FA01F99AF8157015E050
:102FD0005EF820C01CEA090F0FD0A0F1010300FB2E
:102FE000051C03FB05183BF91CC03BF91830BCEB72
:102FF000030300D55B421C44521C401C8742E7DCA3
:10300000491C8E42DBDC02B9012294FBF2F046E659
:103010002DE9FF4F85B000210391029101910091AC
:10302000DB49012B0C6894F8775005F00F0700D1AD
:103030000027667D94F87A30C7F1100BB34200D2B6
:103040001E4600230493012381E000BF4FF00009D6
:10305000C84603241FE0CF4951F824C001219940FC
:103060001CEA010F04FB053130F911C0A4F1010184
:1030700001FB053130F91110ACEB010106D000293C
:1030800000DA4942DDF818C0A1EB0C01002900DA92
:1030900049428944641CB442DDDB31469EF815A0E8
:1030A0001FE0BC4C54F821C001249C401CEA040FD2
:1030B00001FB053430F914C0A1F1010404FB05340F
:1030C00030F91440ACEB040406D0002C00DA644262
:1030D000DDF818C0A4EB0C04002C00DA6442A04414
:1030E000491C8A45DDDC0499012910D10199B1EB15
:1030F000090101D5C1F10001039C2144039100990C
:10310000B1EB080100D54942029C21440291CDE96E
:1031100000899EF87B10994216D11168039D79436E
:103120000BFB0511CC1701EB1471091111609168AB
:10313000029D79430BFB0511CC1701EB14710911AA
:10314000916000210391029101215B1C049190493F
:10315000D1F800E09EF81450691E99423FF776AF0F
:103160005068039978430BFB0100C11700EB117005
:1031700000115060D068029B78430BFB0300C1171D
:1031800000EB11700011D06009B088E52DE9F04F17
:103190007F49002420460D6801222B7DB5F865B4D7
:1031A000B5F867A4A3F1010923E003214FF0010E54
:1031B000DFF8E4816E7D18E0764F57F821C00EFAF3
:1031C00002F71CEA070F0ED101FB032738F917C0DD
:1031D000A1F1010707FB032738F91770BCEB0707BC
:1031E00000D57F423C44491CC9B28E42E4D8521CEF
:1031F000D2B29145D9DCA34502D2544500D2012078
:103200004DE503E011F8013B00F8013B521EF9D2F5
:1032100070477CB50D460446FFF75EFD0090FFF752
:103220004EFD019000980421400800906846FFF789
:103230006FFC0646042101A8FFF76AFC30448200B7
:1032400021462846FFF7DDFF7CBD0B465049096843
:103250004A7D097D521C4A43014652001846D0E778
:103260002DE9F041044654210EF0E7FB0025484EBD
:1032700025806580306890F8C50700F0010045EAB8
:1032800040106080316891F84517C90940EA011083
:1032900060806560FFF7D2FDA060FFF710FD3F4F33
:1032A000E0607888E082306800F24670C27A817A05
:1032B00002F03F0241EA022121834178E17490F853
:1032C0007A1021740178A17481782175017BA1762F
:1032D0003349407B097800F0F00001F00F0108430A
:1032E000E076FFF755FD2062FFF774FD6062FFF79F
:1032F000F3FCA062FFF7E3FCE062F88820866086BA
:10330000306800F2C170017884F83610817884F852
:103310003710C17884F8381010F8BF1C84F83910C1
:10332000012184F83A1084F83B50417884F83C102D
:1033300010F85F1C84F83D1010F8571C84F83E10FC
:1033400010F86B1CA17710F8550C84F8430084F832
:10335000355084F83450BDE8F08110B50446FCF7D0
:1033600093FF012C0BD10A48006890F810018007E8
:1033700005D5FDF7A2FA38B1FDF79BFA04E0FDF799
:103380009CFA08B9FDF791FABDE81040FCF77ABF46
:103390003801100018231000980A10003024100083
:1033A000F6FF01000020D8E7DE4B10B51A68947EC6
:1033B000640704D5D28A0468A2EB040202601A688A
:1033C000947EA40703D5128B0C68121B0A60026856
:1033D000002A00DA002202601C68E48AA24200DDB2
:1033E000224602600A68002A00DA00220A601C688D
:1033F000248BA24200DD22460A601B689B7EDB070D
:1034000002D003680B60026010BDF0B500252C46A9
:1034100009E000BF31F9146030F91470F61B9642D0
:1034200000DD6D1C641C9C42F4DB012D01D90120E0
:10343000F0BD0020F0BD2DE9F04F9246DDE909B75F
:10344000012547F6F87256429946AC46002416E02C
:1034500030F8143031F81480A8EB03031BB29A4201
:1034600000DD1A469E4200DA1E46002B02DA4FF0BB
:10347000000502E001DD4FF0000C04F10104BC4244
:10348000E6DB55EA0C0306D0012D01D02DB108E092
:10349000BCF1010F05D1002203E0BCF1010F00D106
:1034A000324600252C462B4611E000BF30F8136051
:1034B00031F813C01644ACEB060636B24E4505DAB9
:1034C000CBF1000C664501DD3544641C5B1CBB423E
:1034D000ECDB95FBF4F10A44002105E030F81130F3
:1034E00013442AF81130491CB942F7DB8FE5F0B5D7
:1034F0000646002004460546521C059F0AE000BF10
:1035000036F911C09C4504DDA44502DD64460D4634
:103510000120491C9142F3DB3D60F0BD30B50268EB
:10352000002513460AE000BF50F82540944201DD13
:10353000224602E09C4200DA23466D1C8D42F3DBFA
:10354000D01800EBD070401030BD70B5754B1B68C3
:103550005C7D1B7D641C5C43002307E032F8135044
:1035600030F81360AD1B21F813505B1CA342F5DB50
:1035700070BD6D490120086081026C480EF03BBAB5
:103580002DE9F041064615460F46302801D1FFF7D8
:10359000F0FF654C20682844401CB0F5806F01D2D4
:1035A000206801E001202060604908700E542DB1B0
:1035B0000844401C2A463946FFF723FE2068284469
:1035C000401C2060C7E65A48002101220170427069
:1035D0008170704756480078704730B5514A12687C
:1035E00092F80A27D3070BD0D506524A4FF00003B2
:1035F0004FF0010407D5151F2860012901D1136080
:1036000030BD146030BD4B4D083D28600129F8D015
:10361000F5E72DE9F84F434C00264FF0005720689E
:1036200090F80A07450997F8510000D101250720B5
:10363000FDF703F8FDF7B9F8DFF8F480C8F80400E7
:1036400020684FF0010490F80A07C00603D5062051
:1036500087F8510001E087F8514000210120FFF771
:10366000BCFF4FF41670FCF715FE4FF0E02A4FF444
:1036700080594FF0000BCAF880924FF040514446F9
:10368000D8F80400FCF729FFDFF8AC80012088F8A7
:103690000000E8B2FDF7E6F9CAF800916B46002297
:1036A0004FF040516068FCF728FF4FF040516068D0
:1036B000FCF713FF0098C00000D501262078B04227
:1036C00002D1607801280CD197F85100A6B140EAE8
:1036D0000522DD20616806F08AFB00BF84F801B096
:1036E000267000210846FFF778FF88F800B0072011
:1036F000FCF7BEFF207852E440EA0521092006F0DD
:103700005EFBEBE710B504460C484FF480510160B6
:10371000FDF7B5F9064821464068BDE81040FCF7C2
:10372000ADBE0000380110003C011000D62501207C
:10373000A4011000280A00228D01100080E100E0A1
:1037400010B501461422FE48FFF75BFDBDE81040AE
:103750004FF400610120FCF791BE2DE9F04196B0D5
:1037600080460D4614466846FFF77AFDE0074FF0A5
:10377000010701D0ADF80070A00705D5BDF8000025
:1037800040F00800ADF80000600735D5ED4E306818
:1037900090F80A07C00712D0FFF73BFF01280CD0B2
:1037A000BDF8020040F00200ADF802005FF020001A
:1037B000ADF80000A00707D018E00620F8E7BDF834
:1037C000000040F02000F3E7BDF8000040F00100E9
:1037D000ADF80000306800F2211041788DF8131028
:1037E00001788DF81A1080788DF81E00D648007880
:1037F000800601D58DF83B70ADF83250ADF81680DB
:10380000ADF83050AFF2C700CD4D03244FF4006641
:1038100001906846FDF77BFF15AB00223146012081
:10382000FCF76BFE31460120FCF757FE2878002894
:1038300004D0FEF7EFFE641E002CEADC16B0BDE8F3
:10384000F0812DE9F041BF4901260024096810F4F8
:10385000D17F91F82110C1F3011106FA01F600D0D1
:10386000042410F0050F01D044F00104C00601D576
:1038700044F00204002CE2D00025B44F05E0F988A2
:1038800078882246FFF769FF6D1CB542F7DBD6E763
:103890002DE9F35FAB488B4601260068447D017D2E
:1038A00090F82100641C4C4300F00707BE404FF421
:1038B0008851A7480EF0C1F80025DFF89482DFF8A0
:1038C0008C92DFF87CA21AE0B9F806100122009869
:1038D000FFF743FF9F49DAF8040005F0BEFB9D4A5D
:1038E0000020414608E000BF51F8203032F910C0F6
:1038F000634441F82030401CA042F5DB6D1CB5420A
:10390000E2DB0020414605E051F820203A412BF847
:103910001020401CA042F7DBBDE8FC9F2DE9F34FCF
:10392000DFF8209287B00124D9F80000182190F820
:10393000210000F0070704FA07F668460EF07DF84C
:103940000025DFF808B2DFF810A2E84619E000BF52
:10395000BBF8061002220798FFF7FFFE78487E4961
:10396000C068FFF758FA00205246414632F910C0AD
:1039700051F82030634441F82030401C0628F5DB24
:103980006D1CB542E4DB0020494643460A6804FA50
:1039900000F592F8E8212A4205D053F82020089D2E
:1039A0003A4125F81020401C0628EFDB09B0BDE89D
:1039B000F08F2DE9F74FDFF88C9184B09346D9F85A
:1039C00000004E4630F83B1F039140880290FFF7FD
:1039D00083F90090FFF7ACF9019004216846FFF7E6
:1039E00097F88246042101A8FFF792F85044450059
:1039F0003068012490F8210000F00707BC40A900BE
:103A000053480EF01AF8316891F8F002C20706D058
:103A1000800704D491F8F102044405F0DDF8002693
:103A200031E04A48042205994088FFF796FED9F80C
:103A30000010434891F8C517D0F80880C90704D092
:103A400001694246404605F06FF9D9F8000090F848
:103A5000F002C10708D0800706D44049404605F06F
:103A6000D2F878B1DFF8F4800020394908E000BFCF
:103A700051F8203038F910201A4441F82020401C19
:103A8000A842F5DB761CA642CBDB314C00211DE0C1
:103A90002F48D9F8003050F8210093F8F02240FA6E
:103AA00007F0D60708D0920706D593F8F122521CEA
:103AB0004243B3F8F202101AB1EB4A0F01DA039A4B
:103AC00000E0029A104424F81100491CA942DFDBEF
:103AD000049810F0220F09D02046DBF80010FFF701
:103AE00001F92046DBF80410FFF723F907B05EE781
:103AF0002DE9F0479A46134B894600210125184EBF
:103B00001C681AE032F8113030F81170DB1B1FB25C
:103B100000230AE0C3EB031C06EB8C0C5B1C3CF897
:103B200011801BB2B8442CF8118094F880C305EBC7
:103B30009C1C9C45EEDC491C09B2637D8B4211E064
:103B40002C3F1000380110004801100030241000F4
:103B500018121000980A10003A2E0120D48D01206E
:103B6000562B0120CEDC0020FE4A18E03AF8103037
:103B700039F81010591A0BB2002108E002EB811637
:103B8000491C36F8107009B21F4426F8107094F8DA
:103B9000806305EB96168E42F0DC401C00B2217D5E
:103BA0008142E3DCBDE8F08770B5EF4DEF4E0024B5
:103BB0002868C4EB041100EB440006EBC111B0F817
:103BC000EF00FFF765FE641C042CF1DB70BD2DE9EE
:103BD000FE4F00258246E44C2F46DFF89483DFF841
:103BE0008493012612E000BF00EB4500C5EB0512EF
:103BF000B0F8B21308EB8200009009EB8510CDE914
:103C000001076A465046FFF7D4FE6D1C206890F805
:103C1000801306EB9111A942E6DC90F85011C90718
:103C200010D090F8911109060CD5407DD049420082
:103C3000D048FFF7E6FA2068CA49007D4200CE4826
:103C4000FFF7DFFABDE8FE8FFEB5C74ACB49002477
:103C50001268012300F4907592F88063C98803EB21
:103C6000961306E002EB4406B6F8B263B14202D006
:103C7000641CA342F6DCA34219DDC5B192F85001E1
:103C8000C00703D192F8B001C0070FD0B849C4EB08
:103C9000041001EB80013C22B948FFF7B2FAB148A9
:103CA000402200EB8411B748FFF7ABFAFEBD0022BB
:103CB0000292B34A0092B34A01926A46FFF779FE34
:103CC000FEBD70B504460020FCF7B7FC0320FCF7EE
:103CD000B4FCA54D286890F82010490701D424F4BD
:103CE000006490F85011C90705D190F8B011C907C8
:103CF00001D124F0620490F88013490701D424F420
:103D0000B07490F8D010490701D424F0040490F85E
:103D1000E81109B924F0100490F8041309B924F447
:103D2000C07490F82002C00701D124F4007460062A
:103D30000AD53C2292499448FFF763FA9248402200
:103D400090493C30FFF75DFA90490020401C8842C2
:103D5000FCD3200502D52046FFF773FD600701D58F
:103D6000FFF722FF14F4907F02D02046FFF72FFFC9
:103D7000824EE0071BD070888549FFF789FD2868CF
:103D800090F8200000070AD58148FFF70AF9814919
:103D90000123814A086001467D48FFF739F9286808
:103DA00090F84904C00702D0204602F0DDFAE00690
:103DB00003D570887949FFF7B1FD14F0820F0AD05E
:103DC0002046FFF741FF286890F84904800702D594
:103DD000204602F081FB600606D56B49694B684AB4
:103DE0003C316948FFF784FE6D49012008706D4938
:103DF000087005F0A8FE0020FCF73AFCBDE8704012
:103E00000320FCF735BCF0B457490022574C0B682F
:103E1000B3F8EF10814214D2B3F8F510814201D803
:103E200003220EE05FF0010103EB4105B5F8EF500E
:103E3000A84201D10A4602E00DD2A1F101028A4254
:103E40000DD1C2EB021004EBC011F0BC4FF4F062D4
:103E50004F48FFF7D6B9491C0429E5DBF1E703EB2E
:103E600041034B4D33F8ED2FC1EB01115B88801AF4
:103E700000029A1A90FBF2F300204FF4707604EBE4
:103E8000C11100BF01EB4002A2F5F06231F9104010
:103E9000B2F90020A41A5C4302EB242225F810207A
:103EA000401CB042EEDBF0BC70472DE9F0412E49DA
:103EB00000252F4A09682B4EB1F8B23383421AD23B
:103EC00091F880339C0901EB4407B7F8B27387423D
:103ED0000AD9012404EB931313E000BF01EB44075C
:103EE000B7F8B273B84201D1254602E008D2A4F176
:103EF0000105A5421CD191F85001C00708D103E08B
:103F0000641CA342EADCF6E791F8B001C0076ED06A
:103F1000C5EB051002EB80013C221948FFF771F94F
:103F200006EB8511BDE8F04140221648FFF769B95C
:103F300001EB4405B5F8B033B5F8B253C01A00022E
:103F4000EB1A90FBF3F391F85001C00703D191F8FD
:103F5000B001C0074BD0C4EB04110020084D02EBA8
:103F6000810121E0822C012038011000D6070120B8
:103F7000562B0120462C0120822D012030241000D8
:103F8000E22901201E2A0120B03E100020A10700D6
:103F9000560001206C01100090231000D62901204A
:103FA0004E0110007801100001EB400231F9107051
:103FB00032F93C2CBF1A5F4302EB272225F8102070
:103FC000401C1E28CDDB6A4D002006EB841100BF8B
:103FD00001EB400231F9104032F9402CA41A5C4345
:103FE00002EB242225F81020401C2028F0DB26E4D8
:103FF0002DE9F0415F4801245F4E047000253560D3
:10400000192000F0A8F8192000F08DF85B4F05206A
:1040100038724FF41670FCF73DF957484438056084
:10402000FF2139703460046009E470B55148544C84
:1040300001250570207F40F004002077514800687A
:1040400090F81101C00705D00A2000F084F80A207A
:1040500000F069F8002184F860105B22A27611203C
:10406000E07684F860505723A376E076424B443BD9
:104070001960424EFF213170042184F86010A2764D
:10408000E0761D6070BD70B53B4800244438046084
:104090003A4D08352E79192000F051F8C6F1FB0091
:1040A0002978C0B2491CB0FBF1F03749087031489B
:1040B00004703448006890F81101C00702D0BDE8D0
:1040C0007040B2E730495520891E087070BD10B5A8
:1040D0002B4C207F40F0040020772A48006890F89D
:1040E0001101C00702D00A2000F029F823490A7BF9
:1040F000214B0020443B186084F860005B23A376CA
:104100001123E3760978891A89B24FF4FA42B2FB97
:10411000F1F11D4A0909521E11705521521E1170EC
:104120001449087010BD00F01F02012191404009A0
:104130004FF0E02202EB8000C0F80011704700F061
:104140001F020121914040094FF0E02202EB800064
:10415000C0F88011704700F01F0201219140400912
:104160004FF0E02202EB8000C0F8801270470000A0
:104170001E2A01208C011000480500222E0000207C
:104180000010002038011000F4FF010010B50146B6
:104190001422FE48FFF735F88021BDE810400120C9
:1041A000FCF76CB930B597B004466846FFF758F88D
:1041B0000021012C02D0022C02D008E0012000E0F6
:1041C00008208DF81210ADF800008DF81010BDF821
:1041D0000200AFF2470140F4A670EC4D0191ADF83A
:1041E000020003246846FDF792FA15AB00228021F5
:1041F0000120FCF782F980210120FCF76EF9287874
:10420000002804D0FEF706FA641E002CEADC17B082
:1042100030BD2DE9FC5F4FF0000BFEF7B9FD044601
:10422000FEF7D8FDDA49074600200860486088603C
:10423000D8494FEA540980460860486088604FF0CA
:10424000010A0220FFF7AEFFD04800242646C068CE
:10425000CDF800000AFA06F010EA090F38D0002560
:104260000AFA05F1394230D0CB490AFA04F009685C
:1042700091F8E811014228D029463046FEF7EDFDBD
:10428000C549C34A096832F91430B1F80AC2B3EB20
:104290000C01009B33F91430A3EB0C0C00D5494200
:1042A000BCF1000F01DACCF1000C614504DBB94927
:1042B00022F8143021F814003F2805D2401CC2B265
:1042C00029463046FEF7DFFD641C6D1C202DC7DB40
:1042D000761C272EBEDBFDF733FD08F10108B8F18F
:1042E000400FAEDB012000900220FFF75BFFD046BD
:1042F0000026DFF8A4A2354608FA05F010EA090FF7
:104300001ED0002408FA04F1394216D0DAF8001061
:1043100008FA06F091F8E81101420ED09D482146B6
:1043200010F81600019002462846FEF7ACFD0198F1
:104330003F2801D300200090761C641C202CE1DB78
:104340006D1C272DD8DB009810B90520FEF786F9E3
:10435000FDF7F6FC0220FFF725FF8C488F49C06867
:10436000FEF759FDDAF800408C4D002094F8E83152
:10437000424600BF02FA00F10B421CD035F9101082
:10438000002902DC4BF0020005E040F6FF76B14266
:1043900003DB4BF00100834610E0B4F80A72B4F876
:1043A000BE6107EB060C8C4505DABF1B8F4202DDB0
:1043B0000EB14BF0040B401C0628DBDB5846BDE871
:1043C000FC9F2DE9F05F74490A6892F830010506F8
:1043D0007348037803F00F0407D492F83E1121F0DC
:1043E0000F0121430170BDE8F09F0025DFF89CA17B
:1043F000834604702E46012789460220FFF7D2FE2D
:104400006649DAF80C00FEF706FDD9F80020634B88
:10441000002092F8E81100BF07FA00FC11EA0C0F27
:1044200005D033F910C0B2F80882C445DBDB401C6C
:104430000628F1DB0F2D08D26D1CEDB244EA051001
:10444000761C8BF80000102ED7DBBDE8F05F04204F
:10445000FEF704B9F0B54D4900204D684E490A6891
:10446000537D117D5B1C01FB03F41CE035F9113019
:10447000002B02DC40F0200014E040F6FF76B3424F
:1044800002DB40F010000DE0B2F83471B2F8BE610A
:1044900007EB060C9C4505DABF1B9F4202DD0EB1FF
:1044A00040F04000491C8C42E0DCF0BD024618217F
:1044B0005FF0010000FA01F3134201D1491EF9D562
:1044C000491C8840104370472DE9FE4FFEF7B6FCAB
:1044D0000446FEF7B9FC304D0746286890F84507BA
:1044E000000603D52046FFF7E1FF04464FEA540BD0
:1044F0004FF4F0612B480DF07EFA24484FF0270965
:10450000802114300DF099FA002001900120FFF76E
:1045100049FE1E48D0F804A01F480068057D012010
:10452000002402906CE0012000FA04F111EA0B0F64
:1045300065D00026012000FA06F818EA070F54D0CB
:104540001248143050F8240010EA080F4CD13146BC
:104550002046FEF782FC00900F483AF915100068DB
:10456000B0F83401814233DC0E4B33F91520121AB6
:10457000A1EB000000D55242002800DA40428242FE
:1045800018DC0098401EC0B202460DE0403F10000B
:10459000C0970120CC970120380110003A2E01204D
:1045A000F6FF0100989F0120009031462046FEF75B
:1045B0006AFC01E023F815106C49009821F81500F9
:1045C0006B4850F8241041EA080140F824100BE031
:1045D00000983146401CC2B22046FEF754FC6548A4
:1045E0003AF8151020F815106D1C761C202EA1DB52
:1045F0005F4850F82400B84201D000200290641CAB
:104600004C4590DB029838B9FDF79AFB0198401CA5
:1046100001904028FFF67AAF57484FF0010A002575
:104620000068067D1DE0012202FA05F010EA0B0F7A
:1046300016D000240120A04038420ED04B4821461D
:1046400010F81600804602462846FEF71CFCB8F11A
:104650003F0F01D34FF0000A761C641C202CE9DBCD
:104660006D1C4D45DFDBBAF1000F02D10320FDF7D1
:10467000F5FFFDF765FB0120FFF794FDBDE8FE4F58
:10468000E8E62DE9F05F3C4A116891F83001C40773
:104690003A48037803F0F00516D0057000264B7DEC
:1046A0000C7DDFF8CCA05B1CB046AAF1140A914641
:1046B00004FB03F783460120FFF774FD2046DAF878
:1046C0000420D9F800100EE091F83E1101F00F011E
:1046D0002943017087E600BF32F91030B1F832C1CA
:1046E0006345F7DB401C8742F6DC0F2E0AD2761CAE
:1046F000F6B245EA060108F101088BF80010B8F19E
:10470000100FD8DBBDE8F05F0220FDF7A7BF70B542
:1047100001244FF404614FF4F8300DF08EF9FDF7E9
:104720000FFBFFF7AEFFFFF7CFFE134D44EA006427
:10473000286890F8E80128B1FFF743FEFFF769FD0C
:1047400044EA00440D482A68401D017892F8FB278E
:1047500001F0F00102F00F02114301700848FEF76A
:10476000E5FB2046BDE8704005F003BC18A701201A
:10477000543F1000989F012038011000F6FF0100FF
:10478000182310002DE9F04F0020FF4D044602468B
:10479000012140F6FF7BFD4BD5F814906E681B6835
:1047A00001FA02F737421CD039F914A0BAF1000F10
:1047B00002DC40F0200013E0DA4502DB40F010009C
:1047C0000EE0B3F836C1B3F84171E6460CEB0708CA
:1047D000D04503DBAEEB070CD44501DD40F04000D3
:1047E000641C521C202ADBD30024AF69AE68224629
:1047F00001FA02F535421AD037F91450002D02DCC7
:1048000040F0200012E05D4502DB40F010000DE0BA
:10481000B3F83A81B3F8439108EB090CAC4503DBDC
:10482000A8EB090CAC4501DD40F04000641C521CB3
:10483000202ADDD3BDE8F08F10B501461422D448FC
:10484000FEF7DFFC8021BDE810400120FBF716BE1B
:1048500030B597B06846FEF703FDCC484FF0200412
:10486000006890F80A07C00709D0FEF7D2FE0128B9
:1048700034D0BDF8020040F00200ADF80200ADF8FF
:10488000004000208DF838008DF83700BE484168A0
:1048900049000A9180680B90BDF80200AFF26701F1
:1048A00040F4A670BA4D0191ADF8020003246846A9
:1048B000FCF72DFF15AB002280210120FBF71DFE28
:1048C00080210120FBF709FE2878002804D0FDF79D
:1048D000A1FE641E002CEADC17B030BD0620ADF846
:1048E0000000CEE72DE9F84F2121AA480DF0A5F8E8
:1048F000A848302121300DF07EF8FDF7ECFAFDF7E5
:104900008BFA042003254FF000084FF001099E4C5C
:10491000DFF878A2CDF80000FFF79AFFE8072BD068
:104920004FF0000B5F465E46616809FA06F00842E8
:104930001AD040F6AC013046FEF7C1FA616931F990
:104940001720DAF80010B1F845118A420BDA3F2837
:1049500009D200994FF0010B0844C1B240F6AC02F5
:104960003046FEF7C1FA7F1C761C202EDCD3BBF14B
:10497000000F01D125F00105A8072BD54FF0000B42
:104980005F465E46A16809FA06F008421AD040F672
:10499000CD013046FEF793FAA16931F91720DAF814
:1049A0000010B1F847118A420BDA3F2809D200996A
:1049B0004FF0010B0844C1B240F6CD023046FEF77D
:1049C00093FA7F1C761C202EDCD3BBF1000F01D1A3
:1049D00025F0020545B1FDF77EFAFDF71DFA08F155
:1049E0000108B8F1640F97DB03254FF0000800BF02
:1049F000FFF72EFFE80729D04FF0000B5F465E4619
:104A0000616809FA06F0084218D040F6AC01304659
:104A1000FEF755FA616931F91720DAF80010B1F89C
:104A200045118A4209DD40B1401EC1B24FF0010B71
:104A300040F6AC023046FEF757FA7F1C761C202E5B
:104A4000DED3BBF1000F01D125F00105A80729D560
:104A50004FF0000B5F465E46A16809FA06F0084277
:104A600018D040F6CD013046FEF729FAA16931F998
:104A70001720DAF80010B1F847118A4209DD40B179
:104A8000401EC1B24FF0010B40F6CD023046FEF79A
:104A90002BFA7F1C761C202EDED3BBF1000F01D138
:104AA00025F00205002D08D0FDF715FAFDF7B4F941
:104AB00008F10108B8F1640F9ADBBDE8F88F2DE921
:104AC000F041354D00202121287032480CF0B5FF0F
:104AD0003048302121300CF08EFFFDF79DF9FDF7B5
:104AE000FAF9294E002700BFFFF7B2FED6E90432DB
:104AF0000024204606E000BF32F91010A14200DD7C
:104B00000C46401C9842F7DB0020F368B26905E0D0
:104B100032F91010A14200DD0C46401C9842F7DB30
:104B2000002C09DC28780F2803D8401C2870FDF7DA
:104B3000D2F97F1C202FD7DB40F6FE70844206DDC1
:104B40002878401E2870BDE8F041FDF7C4B9BDE8E3
:104B5000F0812DE9F05F0C4E00240E4FD6F80430A2
:104B60006C3F25462146012000FA01F21A4203D08B
:104B70007A5CA24200D91446491C2029F4D3054F7F
:104B8000B268403F002109E0AC011000380110007C
:104B9000D43F1000ACF80100F5FF010000FA01F36A
:104BA000134203D07B5CAB4200D91D46491C20292F
:104BB000E9D3DFF804A40AF1010B8AF800408BF86E
:104BC0000050FE4F386890F80A07C10705D08007EB
:104BD00003D5FEF7FFFC012811D0F748F649801EE7
:104BE000491E0078097820442944FF2288427AD25D
:104BF000081A2044FF2877D88AF8000099E0EF4887
:104C0000006800F259700279C17802F03F0201EBAE
:104C100002268279417902F03F0201EB0228027BF1
:104C2000C17A02F03F0201EB0227827B417B0078D0
:104C300002F03F0201EB022940060FD5DE48801E3C
:104C4000017806EB080004EB40000844DA49491EED
:104C50000A7807EB090105EB410110E006EB0800BB
:104C6000400000EB4401D448801E0078084407EB64
:104C70000901490001EB4502CF49491E0978114459
:104C8000FDF75DFFCD49096801F20B72B1F80B37F2
:104C9000834201D2A1F80B0791F80A07400720D5FB
:104CA00091F85907400620D570004342C8F1000032
:104CB00091F80B1703EB40000144BF48801E0078B9
:104CC000091A8AF8001078004142C9F1000001EB8E
:104CD000400011780144B848401E0078081A8BF84B
:104CE0000000BDE8F09F27E01DE0B348B1F80B17C6
:104CF000801E037806EB08001844404201EB400098
:104D0000C0F34701AC488AF80010401E017807EB59
:104D1000090008441188404201EB4000C0F34701FC
:104D20008BF80010DDE78AF80020306840F0800042
:104D300030608BF80050D4E781420FD2401A2844EB
:104D4000FF2802D88BF8000005E08BF800203068BF
:104D500040F0800030608AF80040C2E78AF80040E6
:104D6000E7E72DE9F0410020954C964B934A01214D
:104D70004FEA00055F6801FA00F63E4209D0176865
:104D8000265C97F84A71BE4202D9F61B265400E011
:104D90002554401C2028EDD3894C2C345FF00000B2
:104DA0009F6801FA00F63E4209D01768265C97F822
:104DB0004A71BE4202D9F61B265400E02554401C1D
:104DC0002028EDD3FFF7C5FEBDE8F041FDF75EB842
:104DD0002DE9F84F7A487A4D06462C352C210CF0F7
:104DE0002CFE402128460CF028FEFFF7B2FEFDF70E
:104DF00072F8FDF74BF80420032400274FF0010957
:104E0000DFF8C0A1DFF8B4B1CDF80000FFF720FD56
:104E1000E00728D04FF0000C624660464FEA0A03D4
:104E200009FA00F1D3F8048011EA080F13D0596988
:104E300031F91280DBF80010B1F83811884509DA31
:104E4000315CDDF800804FF0010C4144FF2900DDAA
:104E5000FF213154521C401C2028E1D3BCF1000F2B
:104E600001D124F00104A00727D54FF0000C6246C1
:104E70006046534609FA00F1D3F8088011EA080F9A
:104E800013D0996931F91280DBF80010B1F83C11A8
:104E9000884509DA295CDDF800804FF0010C4144B7
:104EA000FF2900DDFF212954521C401C2028E1D39A
:104EB000BCF1000F01D124F0020444B1FFF749FE18
:104EC000FDF709F8FCF7E2FF7F1C642F9EDB03244B
:104ED0005FF00007FFF7BCFCE00724D04FF0000EA6
:104EE000714670465246DC46D2F8048009FA00F357
:104EF00013EA080F0FD05369DCF8008033F9113042
:104F0000B8F83881434505DD335C1BB15B1E4FF0BB
:104F1000010E3354491C401C2028E5D3BEF1000F7C
:104F200001D124F00104A00725D54FF0000E7146F1
:104F3000704652464FEA0B0CD2F8088009FA00F38B
:104F400013EA080F0FD09369DCF8008033F91130B1
:104F5000B8F83C81434505DD2B5C1BB15B1E4FF06F
:104F6000010E2B54491C401C2028E5D3BEF1000F34
:104F700001D124F00204002C08D0FFF7EAFDFCF771
:104F8000AAFFFCF783FF7F1C642FA3DB95E50B4989
:104F900030B409680020034691F83021920714D5F7
:104FA000054A91F84941921E01201578A5420BD976
:104FB000A5EB0404147008E0F9FF010038011000AB
:104FC00040F80100AC011000137091F83021520735
:104FD0000BD58D4A91F8491140F0020014788C42AB
:104FE00002D9611A117000E01370002801D030BCA2
:104FF000AFE530BC70472DE9F04784490024844D6B
:105000000868274690F83021920702D501242F70B6
:1050100002E090F83F212A70894690F830117A4ECC
:10502000490703D544F00204377002E090F84001CC
:105030003070002C74D02C2176480CF0FEFC7548A2
:1050400040212C300CF0F9FC71482121801E0770A2
:1050500070486C300CF0F1FC6E4830218D300CF053
:10506000CAFC6949FF20891C0870491E0870FCF7BA
:105070000DFFFCF7D1FEFCF72EFF4FF0100A0027C2
:10508000DFF89481FFF7E4FBE00723D0D8E9043C84
:105090000020014606E000BF3CF91120824200DDFD
:1050A0001046491C9942F7DBD9F80010B1F83621B7
:1050B000824202DA2878401E08E0B1F84B118142A2
:1050C00006DB28785044FF2800DDFF20287001E02F
:1050D00024F00104A00726D500200146D8F80CC012
:1050E000D8F8183006E000BF33F91120824200DD05
:1050F0001046491C6145F7DBD9F80010B1F83A2198
:10510000824202DA3078401E08E0B1F84B11814249
:1051100007DB30785044FF2800DDFF20307002E0CC
:105120000AE024F00204002C06D0FFF712FDFCF781
:10513000D2FE7F1C202FA5DBBDE8F08770B5364C72
:1051400000202060FDF7C8FD6060FDF7F1FDA06064
:105150006068042140086060201DFDF7D9FC2061D3
:10516000042104F10800FDF7D3FCE060FFF770FBB9
:105170002A4E2169B06800EB41026261E26802EBED
:10518000410100EB4100A061FFF735FFFFF7FFFE93
:105190001E4D286890F83001800603D5FFF718FEF1
:1051A000FFF7DFFD286890F83001000701D5FFF711
:1051B00086FC286890F83001C00601D5FFF792FB05
:1051C000FCF789FEFFF744FBB068216900EB410260
:1051D0006261E26802EB410100EB4100A061FFF770
:1051E000D1FA21680143084821602A68C01C03786D
:1051F00092F8FB2763F303020270BDE8704041F0B0
:10520000020004F0B6BE0000F8FF010038011000F3
:10521000F7FF010040F80100AC011000D43F10007E
:1052200010B5014614229348FDF7EBFF8021BDE83D
:1052300010400120FBF722B9F0B58F4D06460C4611
:1052400028684FF0FF3197B090F8B10000F00F00E0
:10525000401C8140CF436846FEF702F80120ADF8BC
:105260000000ADF80240286810F8F91F8DF81310FF
:1052700044F00501ADF802100297ADF81660AFF2E8
:105280005F01019141788DF814108078794D8DF887
:105290001A0003246846FCF73AFA15AB0022802175
:1052A0000120FBF72AF980210120FBF716F9287865
:1052B000002804D0FDF7AEF9641E002CEADC17B01C
:1052C000F0BD2DE9F0476C4D4FF00009DFF8A481E7
:1052D000286800F570700478467887781AE04946A7
:1052E0002046FFF7A9FFD8F8040008F043FA01466A
:1052F000286890F8F82012F00F0000D10120120960
:105300004A43B2FBF0F082B22146302004F074FE32
:10531000E01984B2B442E2DDBDE8F0872DE9FF5F19
:105320004FF6FF764FF0000A93460F46804634460C
:105330005546DFF844911BE038F815005146FFF759
:105340007BFF4C48406808F015FAD9F8001091F836
:10535000F82012F00F0100D1012112094243B2FBE3
:10536000F1F080B2A04202D238F8156004466D1CFC
:10537000BD42E1DBABF8006003980480BDE8FF9F0D
:105380002DE9F0413C4E05468846306888B090F8DB
:10539000D12002F00F01C2F30214491C641C0A2937
:1053A00000DD0A21022C00DD0224D23006AB05AA62
:1053B000FFF7B4FF326892F8D00080071BD5BDF824
:1053C00014600121E632ADF8006000204FF4803C0B
:1053D0006F4607E013563344634502D227F8113075
:1053E000491C401CA042F5DB002904DD06AB05AAE0
:1053F0003846FFF793FFBDF814002880BDF8181059
:10540000A8F8001008B0BDE8F0817CB50020FBF7DB
:1054100014F91A4C01A968466588FFF7B1FF164ECA
:105420003068B0F8E810BDF80400814201D921804D
:1054300000E02080BDF8000060800020FBF718F934
:10544000BDF80000854207D0306890F8D0004007D2
:1054500002D56088FEF7D7FC094901200870094988
:10546000087009490870BDF800202946092004F099
:10547000A6FD7CBDE83F100038011000302410006C
:105480004E01100078011000860110002DE9F04750
:1054900006460078FE4D00B1287014223146FD48C2
:1054A000FDF7AFFEFC4C206890F8C517CA07F94914
:1054B00001D00A6900E08A68417D6868F74B414382
:1054C000002019E097F8F0C25FEACC780DD05FEACF
:1054D0008C7C0AD597F8F17232F810C07F1C0CFB57
:1054E00007FC0F1823F817C005E001EB000C32F899
:1054F000107023F81C70401C276897F815C084456D
:10550000E0DC686800F1010068607F7D07FB00FC5B
:105510004FF000001EE000BF91F8F082C1465FEA44
:10552000C8780FD05FEA89780CD507EB000891F8AE
:10553000F11232F81880491C08FB01F80CEB00014D
:1055400023F8118039180CEB000832F8111023F8F9
:105550001810401C216891F815808045DCDC6B68D0
:105560004FF0010803F101036B6091F8B10008EB03
:10557000101291F8F002C70705D0870703D491F8FD
:10558000F1723A44D2B2934227DA91F80A07C0077F
:1055900019D0FEF71FF8012815D12168A88891F8C5
:1055A000BA1380B201F00F01B0FBF1F201FB12015E
:1055B000B84854380029418802D041F0020101E086
:1055C00021F002014180307808B1FDF723F8BDE8F1
:1055D000F047B0485438FCF79AB8C2072FD080077C
:1055E0002DD4B1F8F2A2002522E0417DAB486943F9
:1055F00000EB41018946002015E000BF93F8F1322D
:10560000012231F910605B1C06E000BF02FB070CB1
:10561000521C31F91CC066449342F7DCA6EB0A0227
:1056200029F81020401C23685F7D8742E6DC6D1C52
:10563000206890F8B11008EB1111A942D5DCBDE843
:10564000F04780210120FAF719BF2DE9FF4FDFF85D
:1056500044B24FF6FF74002681B08A46A046ABF1F3
:10566000540BB1466CE08B485438FDF7F9FD8A4D78
:10567000286890F80A07C00708D0FDF7CAFF28B9C4
:10568000BBF8021041F00201ABF80210296891F852
:10569000C507C00701D0102200E00222ABF80020AD
:1056A000019830F81620ABF83020BBF8022042F009
:1056B0000402ABF80220AFF22B2201F2C931CBF881
:1056C00004200A788BF83620CA788BF838204A787C
:1056D0008BF83C206E4D89788BF83D100327C5F878
:1056E000049000BF6B4885F800905438FCF70FF821
:1056F0006B46002280210120FAF7FFFE8021012065
:10570000FAF7EBFE287820B1FCF784FF7F1E002F0C
:10571000E8DC624802F0F9FC5F49096891F8C823A7
:1057200012F00F0100D101211209424390B2B0FBE7
:10573000F1F0A04203D20199044631F81680761C9C
:10574000564590DB0398A0F800800498048005B0CB
:10575000BDE8F08F2DE9F0414F4D06468846286898
:105760008CB000F2823C00F2963790F8810300F092
:105770000F01C0F30214491C641C0A2900DD0A2130
:10578000022C00DD02240AAB09AA6046FFF75DFF88
:10579000286890F8800380071AD5BDF824300121CD
:1057A000ADF8003000204FF4803C6D4607E03A56DB
:1057B0001A44624502D225F81120491C401CA0421F
:1057C000F5DB012904DD0AAB09AA2846FFF73DFFF6
:1057D000BDF824003080BDF82810A8F800100CB0E7
:1057E000BDE8F0817CB50020FAF727FF2C4C01A919
:1057F0006846E588FFF7AEFF27480168BDF804005A
:10580000B1F8AC23824201D9A28000E0A080BDF8AB
:105810000000E0802081854205D091F8801349077F
:1058200001D5FEF742FB1F49012008701E49087090
:105830001E49002008601E490870FAF719FFBDF8DC
:10584000002029460A2004F0BAFB7CBD2DE9F8436C
:10585000DFF844800F4CD8F80000543C00F2C3300D
:105860000588468807794FE00A485438FDF7F8FC68
:10587000D8F8000090F80A07C00706D0FDF7C9FE67
:1058800018B9608840F002006080D8F8000011E08C
:10589000C80110005040100038011000C48F0120D2
:1058A000302410004E01100078011000D0021000CA
:1058B000CB02100090F8C507C00701D0102000E00F
:1058C000022020802586608840F004006080AFF2CE
:1058D000434060600E48002141600E48FBF717FF0F
:1058E0006B46002280210120FAF707FE802101206B
:1058F000FAF7F3FD084802F008FC02462946312079
:1059000004F07AFBE81985B2B542ADDDBDE8F88355
:10591000C8011000FC3F1000C48F01202DE9F041A8
:10592000174604460D46002609E0E00703D031463D
:10593000384604F07CFA761C6D084FEA340454EAC9
:105940000500F2D1BDE8F08130B5034600204FF0EC
:10595000FF32012505FA00F40C4202D0521C9A4293
:1059600003D0401C2028F5D3002030BDF0B50E46F2
:10597000F94C07460125D4E9151005FA06F20F2F58
:1059800065D2DFE807F064434B08106464192129ED
:10599000323A54585C003046FFF7D6FF8540A06A83
:1059A0000543A56253E001463046FFF7CDFF854031
:1059B000206C054325644AE03046FFF7C5FF85406B
:1059C000E06A0543E56242E03046FFF7BDFF8540EF
:1059D000206B054325633AE001463046FFF7B4FFEC
:1059E0008540A06C0543A56431E03046FFF7ACFF6D
:1059F0008540606B0543656329E001463046FFF74B
:105A0000A3FF8540E06C0543E56420E03046FFF7E6
:105A10009BFF8540606A0543656218E00146304699
:105A2000FFF792FF8540E06B0543E5630FE0A06B55
:105A30000243A2630BE0206D0243226507E00146AA
:105A40003046FFF781FF8540606C05436564206840
:105A5000401C2060F0BD10B501461422BF48FDF780
:105A6000D0FB8021BDE810400120FAF707BD10B53A
:105A7000FDF725F90446FDF7ADF9204310BD10B53B
:105A8000FDF70FF94408FDF783F944EA50004000A0
:105A900010BD2DE9F047894605464FF0FF34FFF76A
:105AA000E6FFAD4F024600207B6801464FF0010C37
:105AB0000CFA01F6164200D0641CAC4206D1B9F1D2
:105AC000010F09D022EA06000B462021491C20299B
:105AD000EED37B60BDE8F0873046F5E72DE9F0476F
