:100000005555AAAA78120000000000000000000068
:10001000668400000000000000000000C4826A75D1
:1000200000011000E1070000890200009F020000AB
:10003000B5020000CB020000E10200000000000059
:100040000000000000000000000000002927000060
:100050002D27000000000000F70200002F270000FD
:100060003127000057250000D72700008F2500000A
:10007000492700007D270000812700008F2700000E
:10008000A1270000A3270000A5270000C327000028
:10009000C5270000D9270000000000000000000074
:1000A000DB270000DD27000000000000000000004A
:1000B00000000000DF270000E1270000A525000068
:1000C000E3270000F12700000903000009280000D1
:1000D0000B280000000000000000000000000000ED
:1000E0007812000000F002F800F05AF80AA090E838
:1000F000000C82448344AAF10107DA4501D100F0E3
:100100004FF8AFF2090EBAE80F0013F0010F18BF55
:10011000FB1A43F001031847282E0100482E010066
:100120000A444FF0000C10F8013B13F0070408BF1D
:1001300010F8014B1D1108BF10F8015B641E05D0BB
:1001400010F8016B641E01F8016BF9D113F0080F70
:100150001EBF10F8014BAD1C0C1B09D16D1E58BF02
:1001600001F801CBFAD505E014F8016B01F8016B39
:100170006D1EF9D59142D6D37047000000230024AC
:1001800000250026103A28BF78C1FBD8520728BFA7
:1001900030C148BF0B6070471FB51FBD10B510BD03
:1001A000DFF80CD0FFF7F8FF02F062FC12F072FCEF
:1001B0000001100003B4FFF7F1FF03BC12F072FC62
:1001C0000A484FF0FF0101704FF0000080F31188E2
:1001D0004FF0000080F3098805484FF002010170DC
:1001E00062B604484FF080510160704722ED00E094
:1001F0000001100004ED00E002484FF08051016062
:100200007047000004ED00E04FF0200080F31188FB
:10021000EFF3098098B112480068124909688842D2
:1002200017D0EFF309800E49096820E9F00F8860C4
:1002300000B50B48006800F0F2F85DF804EB0848E0
:1002400008490A68026000688168B1E8F00F81F32C
:1002500009884EF0040E4FF0000080F311887047BB
:100260000401100008011000EFF311804FF020018D
:1002700081F31188704700004FF0000080F311886F
:100280007047000062B6704772B6704740BA704758
:10029000C0BA7047401E0028FCDC704700BE7047A3
:1002A00040BA7047C0BA70471EF0040F0CBFEFF39E
:1002B0000880EFF309804FF0010102F0A1B91EF0B0
:1002C000040F0CBFEFF30880EFF309804FF0020139
:1002D00002F096B91EF0040F0CBFEFF30880EFF3A5
:1002E00009804FF0030102F08BB91EF0040F0CBF20
:1002F000EFF30880EFF309804FF0040102F080B9BA
:100300001EF0040F0CBFEFF30880EFF309804FF0ED
:10031000050102F075B94FF0000000B503F073F865
:100320005DF804EBFFF770BF1EF0040F0CBFEFF396
:100330000880EFF309804FF0000102F061B900007E
:10034000194910B5012008701849002008601849A3
:100350000860184908601849086000F0A7F900F023
:1003600039F900F063F8002010BD10B5114800F015
:1003700018F90F4908600D490968884207D00A48F2
:100380000078022803D1BDE81040FFF735BF10BD4B
:1003900010B5FFF7EAFF044902200870FFF710FFCD
:1003A0004FF0FF3010BD00000001100004011000EC
:1003B000080110000C0110001001100070B50D466E
:1003C0000446C1698068CC2212F067FAE169A0682E
:1003D000084440384FF08071C163216A8163002175
:1003E00041630163C1628162C0E908514FF00B3182
:1003F000C1614FF00A3181614FF0093141614FF025
:10040000083101614FF00731C1604FF00631816062
:100410004FF0053141604FF00431016070BD8269D9
:100420008168914201D802F0DABB704710B54FF4F1
:10043000B471464812F05BFA002010BD70B5054655
:1004400000EBC501414800EB8104FFF70DFF0646B4
:10045000207828B13046FFF70FFF6FF0010070BD24
:100460000320207000206560206204F11C0000F071
:1004700071F83046FFF700FF002070BD2DE9F04114
:100480000F463249002500EBC00001EB80042E46E8
:10049000FFF7EAFE8046206A3843206204F11C0020
:1004A000074600F07EF80CE0216A026C114203D08E
:1004B00000F054F9012600E06D1C2946384600F092
:1004C00066F80028F0D1012E01D1FFF74EFF40461B
:1004D000FFF7D2FE0020BDE8F08170B50D461B4944
:1004E00000EBC00001EB8004FFF7BEFE216AA943C8
:1004F0002162FFF7C1FE002070BD2DE9F0410D46DD
:10050000124900EBC0001E46904601EB8004FFF745
:10051000ABFE07460E4800680564216A294203D1F4
:1005200004F11C0100F02CF93846FFF7A5FEFFF797
:100530009BFE216A29403160B8F1010F02D1216A86
:10054000A9432162FFF798FE0020C4E7DC031000F6
:1005500004011000002101600846704730B50A68A8
:1005600012B10B46C46B09E000220860C0E9032108
:100570000BE000BF02F10C03D26812B1D56BA542AB
:10058000F8DC1A68C0E903211860002030BD00685B
:10059000002201E0C068521C8A4201D00028F9D133
:1005A00070470068704702690AB1116831B96FF08D
:1005B0000400704701F10C02C96839B18142F9D1D8
:1005C000C968116000210161084670476FF003009F
:1005D0007047000010B54FF4C871324812F087F927
:1005E000002010BD2DE9F041884605462D4900EB5D
:1005F0008500174601EBC004FFF736FE064620785B
:1006000030B13046FFF738FE6FF00100BDE8F081F1
:1006100002202070E7611422414604F10800656061
:1006200012F0F6F80020206204F12400FFF792FF98
:100630003046FFF721FE0020E8E770B5194900EBCE
:10064000800001EBC004FFF70FFE0546D4E9070167
:10065000814205DB144804F12401006800F090F8A1
:10066000206A401C20622846FFF706FE002070BD6D
:1006700070B50C4900EB800001EBC004FFF7F4FDFE
:100680000546206A08B1401E206204F12400FFF7ED
:1006900088FF10B1606A00F011F82846FFF7ECFD02
:1006A000002070BD440510000401100010B54FF487
:1006B0002A71404812F01BF9002010BD10B5044605
:1006C00090F8380002280BD02046FFF76CFF02207C
:1006D00084F8380038492046FFF740FFFFF745FE11
:1006E000002010BD2DE9F05F8B460646314900EB36
:1006F00006109046DDE90AA911F820201D461AB11E
:100700006FF00100BDE8F09F01EB8004FFF7ACFD46
:10071000074601202070C4E90165C4E90585C4E9E4
:1007200007A91422594604F1240012F071F80020A0
:1007300084F8370084F838006169E0602061C4E91A
:100740000F1020460C99FFF739FEA0602046FFF7F6
:10075000B5FF3846FFF790FD0020D3E710B50446FB
:1007600090F83800022809D02046FFF71CFF02202D
:1007700084F8380010492046FFF7F0FE002010BD35
:1007800070B5044690F838000D4602280BD120467B
:10079000FFF709FF032084F8380029462046FFF7B9
:1007A000DDFEFFF7E2FD002070BD044800684068F0
:1007B00070470000D40610000C0110000401100066
:1007C000F0B58446002004460C4F14E05CF8246029
:1007D0000323DD0046FA05F280EA026008250028BE
:1007E00002DA87EA400000E040006D1E002DF6DCD2
:1007F0005B1EEED5641C8C42E8DBF0BD1B00008064
:100800001248804712480047FEE7FEE7FEE7FEE792
:10081000FEE7FEE7FEE7FEE7FEE7FEE7FEE7FEE7B0
:10082000FEE7FEE7FEE7FEE7FEE7FEE7FEE7FEE7A0
:10083000FEE7FEE7FEE7FEE7FEE7FEE7FEE7FEE790
:10084000FEE7FEE7FEE7FEE7FEE70000890800009E
:10085000C50000001E4800684FF00051002891F8C4
:10086000210000F01C000DD0042805D0082805D078
:100870000C2805D096200CE011200AE0252008E085
:100880004B2006E0042809D0082809D00C2809D0FC
:100890007020401E01F82C0F087070470C20F8E7FC
:1008A0001B20F6E73720F4E770470A4993200870C9
:1008B000D0E708490B200870CCE70548006818B954
:1008C00004480078932801D0002070470120704729
:1008D000340400222100002070B5042000F054F9F7
:1008E000052000F051F9062000F04EF9072000F035
:1008F0004BF9082000F048F9182000F045F91920BC
:1009000000F042F91A2000F03FF9B14900200860D8
:10091000AF4A40321060AE4B183B1860AC4B083306
:100920001860AC4CE071AA4B143B1860A84B0C3318
:1009300018602072A64B103B1860A54B103318604E
:100940006072A34B0C3B1860A14B14331860A0726B
:100950009F4B083B18609E4B18331860E0729C4B0D
:1009600028331860A0731E1D3060E073331D1860BB
:10097000207401250D60156025700621042000F00B
:100980001BF90621052000F017F90621084600F0A2
:1009900013F90621072000F00FF90621082000F0C6
:1009A0000BF90621182000F007F90621192000F0A4
:1009B00003F904211A2000F0FFF8042000F0F0F8F9
:1009C000052000F0EDF8062000F0EAF8072000F01E
:1009D000E7F8082000F0E4F8182000F0E1F819200A
:1009E00000F0DEF81A2000F0DBF8042000F0C0F878
:1009F000052000F0BDF8062000F0BAF8072000F04E
:100A0000B7F8082000F0B4F8182000F0B1F81A2068
:100A100000F0AEF8FF20E070356070BD00EB8000A4
:100A20006B494000002218390A606A4A521F107050
:100A30000120086070476649002018390860704737
:100A400000EB800062494000002210390A60614AD0
:100A5000D21E10700120086070475D4900201039D7
:100A60000860704700EB80005949400000220C39B3
:100A70000A60584A921E107001200860704754495D
:100A800000200C3908607047514A10B528321468AC
:100A90000123D10664B10024146081F8350091F877
:100AA000420000BF91F842408442FBD0136010BD69
:100AB00081F83500FAE700EBC00101EB00106FF0A0
:100AC000030101EB800010B54349444C0978B0FBA9
:100AD000F1F0401E80B2FF280CD9010A2170494272
:100AE00000EB01206070FF20FFF7CEFF2078401E52
:100AF000207010BD002121706170BDE81040C0B2AF
:100B0000C2E7334828300168002909D0002101607C
:100B1000C10691F8420000BF91F842208242FBD00A
:100B2000704710B52D4C2178607851EA000207D04B
:100B300051B1FF20FFF7A8FF2078401E207010BDA4
:100B4000BDE8104009F01ABBFFF79EFF002060705F
:100B500010BD10B5214C0023608830B11920FFF77B
:100B60005DFF6088401E608000E00123184610BDD4
:100B700000F01F020121914040094FF0E02202EBFA
:100B80008000C0F80011704700F01F020121914061
:100B900040094FF0E02202EB8000C0F8801170475E
:100BA00000F01F020121914040094FF0E02202EBCA
:100BB0008000C0F8801270474907090E002803DA48
:100BC00000F00F00064A00E0064A8154704700001A
:100BD0001C050022330000208F01100014011000BA
:100BE00014ED00E000E400E059480121016000211B
:100BF0000160704757480121016000210160704782
:100C000010B5002000F08BF8534800220260FFF777
:100C1000F1FFFFF7E9FF514802605149A020087039
:100C2000002000F088F8BDE81040002000F06BB80C
:100C30004A4801211C38016000210160704710B54D
:100C40000446002000F06BF843484149046001204D
:100C50000860002000F06FF8BDE81040002000F0B0
:100C600052B830B53C4889B00468002C11D020211E
:100C7000684611F03CFE3B4800783A4B00216A463A
:100C80005B1C02E0CD5C5554491C8142FADB1146E5
:100C9000A04709B030BD2E4901201C3908607047BB
:100CA0003048203000782F4921310978401A00F06F
:100CB0003F0070472C4902780A7042784A70827867
:100CC0008A70C278CA7002790A7142794A7182794F
:100CD0008A71C079C8717047244800684178827869
:100CE0004FF00050437A0374214B1B7843744389BF
:100CF0001B0A83744389C37401754275C179817578
:100D0000017AC175704700F01F020121914040092E
:100D10004FF0E02202EB8000C0F80011704700F0B5
:100D20001F020121914040094FF0E02202EB8000B8
:100D3000C0F88011704700F01F0201219140400966
:100D40004FF0E02202EB8000C0F8801270470000F4
:100D50005C840022A0000022180110007C04002204
:100D600000E400E000040020000200203801100030
:100D70008401100010B5092000F053F80A2000F09B
:100D800050F8092000F059F80A2000F056F8052123
:100D9000092000F05EF805210A2000F05AF83248D8
:100DA0007F21417081700171002100F848192F499D
:100DB0000A684FF0010192F8C830DC070AD09C079E
:100DC00008D590F84A40C3F3820301FA03F39C4329
:100DD00080F84A4092F81131DC0721D0C3F3420376
:100DE000012B03D0224B4FF480641C604830837881
:100DF00002F211121478C4F3420401FA04F4A3437A
:100E0000837003791478C4F3420401FA04F4234391
:100E1000037103781278C2F3420291400B430370CE
:100E200010BD00F01F020121914040094FF0E02267
:100E300002EB8000C0F88011704700F01F02012112
:100E4000914040094FF0E02202EB8000C0F8801290
:100E500070474907090E002803DA00F00F00054A21
:100E600000E0054A81547047480000203801100016
:100E700000E100E014ED00E000E400E0704710B590
:100E8000044602462A21002000F060F9221D2B2191
:100E9000002000F05BF904F108022C21002000F092
:100EA00055F92068000E032825D104F110022D21E8
:100EB000002000F04BF904F10C022E21002000F07C
:100EC00045F904F118022F21002000F03FF904F148
:100ED00014023021002000F039F904F12002312100
:100EE000002000F033F904F11C023221BDE810406B
:100EF000002000F02BB910BD10B5BE4C072060706B
:100F00000020207044F2C000608000BF00BF00BF1E
:100F10004CF2C000608000BF00BF00BF4CF2E00098
:100F200060800920FFF7B6F944F2E000608000BF5E
:100F300000BF00BF4FF48040608010BDF0B50025B9
:100F40002E464FF00054E02717E000BF883401F030
:100F50003F0160702170678000BF00BF00BFD4F800
:100F600008C043F825C06680883C00BF6D1C521E37
:100F7000491C3F2901D9401CC0B2002AE6DCF0BD63
:100F80002DE9F0479B4D0026AD1C04462E80DFF86E
:100F900068920121C9F880104FF4C058A5F800806C
:100FA00000BF00BF00BF00BF00BF4FF480572F80BD
:100FB0003520FFF76FF92E80FFF79EFF00F0DCF879
:100FC0005C2000F0EAF82346012208210020FFF708
:100FD000B5FF231D012209210020FFF7AFFF04F117
:100FE000080301220A210020FFF7A8FF04F10C03E7
:100FF00001220B210020FFF7A1FF04F110030122C1
:101000000C210020FFF79AFF04F1140301220D21A7
:101010000020FFF793FF00F0AFF8FFF76DFF2F8080
:1010200000BF00BF00BF00BF00BF00BF00BF00BFC8
:1010300000BF00BFA5F8008000BF00BF00BF00BF19
:1010400000BF4FF440602880C9F88060BDE8F08799
:10105000F0B54FF0000C059C0CB14FF0800CC5B200
:1010600000264FF00057644C28E000BF87F88950F5
:101070004FEAC05EBEF1000F01F03F0E4EEA0C0ECB
:1010800001DA4EF0400E87F888E053F826E0C7F802
:101090008CE04FF0010EC4F8B0E04FF0000EC4F841
:1010A000B0E0491CC9B2402902D36D1CEDB2002149
:1010B000D4F8C0E0BEF1000FFAD1761C9642D5DB21
:1010C000F0BD4FF0005282F88900002309B1802062
:1010D00002E0C00503D5402082F8880001E082F8D4
:1010E000883045480121C0F8AC10C0F8AC3000BFD2
:1010F000D0F8C0100029FBD17047F8B50C46054662
:101100004FF4F47600213046FFF7DBFF0020014664
:1011100000902B4622463046FFF79AFFF8BDF8B5FF
:101120000C4605464FF4F87600213046FFF7C9FF1C
:1011300000214FF4FC70FFF7C4FF0020014600902F
:101140002B4622463046FFF783FFF8BD294B5870E7
:1011500041F0800003F8880927480021B43001607D
:10116000012140F8B41900BFD0F8C0100029FBD10C
:10117000D3F890001060704710B51E4C4FF48040BB
:10118000A41C20800420FFF785F80020208000BFE9
:1011900000BF00BF00BF00BF10BD70B5154C2126B9
:1011A000A41C268000BF00BF00BF00BF00BF40F0EE
:1011B0002105258000BF00BF00BF00BF00BF44F273
:1011C0002101084320800420FFF764F8258000BF38
:1011D00000BF00BF00BF00BF268000BF00BF00BF30
:1011E00000BF00BF0020208000BF00BF00BF00BFC5
:1011F00000BF70BD8800002000100022F8B5FF4C31
:10120000002635462670E66026610120666100F002
:10121000B6FD0C2000F0B3FD032000F0B0FD172058
:1012200000F0ADFD012000F0B6FD0C2000F0B3FD94
:10123000032000F0B0FD172000F0ADFD00F051FFDD
:101240006A460221EE4801F07EF9EE499DF8010060
:1012500008709DF80000532800D0042605210120C5
:1012600000F0A5FD05210C2000F0A1FD06210320C2
:1012700000F09DFD0621172000F099FD012000F0EF
:1012800072FD032000F06FFD172000F06CFDA570CB
:101290006570E5703046F8BD70B5D84B1889C0F35D
:1012A0008001C0F34016C0F300247140C0F3C02297
:1012B0006140C0F3803551406940400840EAC13088
:1012C000188170BD38B50D4600901446042168465B
:1012D00001F08CFCCC498978C90602D5062D00D1D5
:1012E000401C0099216584F84E0038BD2DE9F04777
:1012F000C64D0646C44C286890F83404C00718D080
:10130000608840F080006080FFF7C6FF296800F029
:101310000700084490F8350484F83D00FFF7BCFF4F
:101320002968C0F30210084490F83504800084F85E
:101330003C00002084F8470028684FF002084FF076
:10134000E90990F845176174B149042EC1F30E07FD
:1013500006D0032E1FD0022E41D0052E5CD082E095
:10136000A94A3146206BFFF7ADFF606BA065A4F87A
:101370004870A07880060028286890F8590703DA9A
:1013800020F0060040F0040084F84C0084F84D8002
:1013900084F84A9067E09C4A3146206BFFF792FF41
:1013A000606BA06598480421303001F01FFC98491B
:1013B00001EB8000C0F30E00A4F84800A07880067E
:1013C0000028286890F8590703DA20F0060040F05A
:1013D000040084F84C0084F84D80ED2019E08A4A1E
:1013E0003146206BFFF76EFF606BA065A4F8487074
:1013F000A07880060028286890F8590703DA20F0C2
:10140000060040F0040084F84C00042084F84D00ED
:10141000E52084F84A0026E0A178890623D500F269
:10142000C93030340178A173C178217441782175B5
:10143000807860750120E075734A31462068FFF7B7
:1014400041FF7348F830C0F30E002083286890F8FD
:10145000590720F0060040F00200207784F81D8034
:1014600084F81A90303C286890F80A17C907A178C8
:101470004FEA81710BD000290BDB0121084602F0F5
:1014800033F914F84B0F40F0030020700AE00029F4
:1014900004DA90F86C0720F0030001E090F86C0784
:1014A00084F84B0055484670BDE8F047564800F0B8
:1014B0000CBF56480168544891F82627427791F8A6
:1014C0002727C2744288D20505D491F8282702F054
:1014D0000F02827402E000228274027401F2297108
:1014E0000A7802F03F020275B1F801200283CA783F
:1014F0008276484A0979127801F0F00102F00F0271
:101500001143C176704741483F49006890F8002276
:101510004A7790F80122CA744A88D20504D490F818
:10152000022202F00F028A7400F20320027802F015
:101530003F020A75B0F801200A83C2788A76354ADC
:101540000079921D00F0F000127840EA1210C8767F
:1015500070472DE9F0472C4C0546002084F84700E1
:10156000DFF8A8A0E12084F84A00DAF80000DFF8EC
:10157000AC90224E90F84517617490F80A175FEA14
:10158000C1782549C1F30E072146B1F802C0CB7CD2
:101590000CF0FF024CF0010104D05FEA8C7C01D416
:1015A000012D08D0072D0ED0062D5DD0082D70D04E
:1015B000092D7CD03CE0337172710A22E2746180A3
:1015C000A4F848700DE0337172716180417D027D35
:1015D000491C5143104A02EB4101C1F30E01A4F82A
:1015E000481090F8531799F8002001F0F00102F02C
:1015F0000F021143E17690F8550711E01C0110002D
:1016000004100020840110007C0910003801100033
:10161000A8870120F0FF010000800120F6FF0100F3
:101620006077FE4A29460120FFF74CFEE068A0657E
:101630006088C10705D094F84A1041F0020184F88F
:101640004A10DAF800104FEA807091F80A27D207A2
:101650004BD000284BDB062D37D0082D35D0092D77
:1016600033D0012D36D04BE0A4F8487090F85317D2
:1016700099F8002001F0F00102F00F021143E17629
:1016800090F855076077E54A2946A068CCE700E066
:101690000DE0E348C0F30E00A4F84800FFF733FF65
:1016A000DE4A2946206AFFF70DFE606ABFE7DD4883
:1016B000C0F30E00A4F84800FFF7FBFED74A294606
:1016C000A06AFFF7FFFDE06AB1E714F84B0F20F0C6
:1016D000030008E00021012002F006F814F84B0F87
:1016E00020F00300801C20700AE0002804DA91F842
:1016F0006C0720F0030001E091F86C0784F84B00C0
:101700007570BDE8F047C54800F087BD062810D0C9
:1017100008280ED001280CD007280AD0092808D0A4
:10172000042805D0032803D0052801D0022801D1C0
:10173000DCE50EE770472DE9F84FBB4D82460129E5
:1017400001D10020A871AC79DFF8E49204F1010422
:10175000B64EDFF8C882A9F12C0713E0306890F884
:101760000A07C00706D098F80200800702D459F88B
:10177000242001E057F8242069465046904701286C
:1017800005D0641C0A2CE9D90020BDE8F88FAC71A3
:101790009DF80000F9E770B505460088002838D0AC
:1017A0005C2229469D4801F07BFDFEF7FEFF9E4C22
:1017B0009E4EA061306890F80A07C0070AD0A8784A
:1017C000800707D49549088810F0760F02D040F0C2
:1017D00080000880607800281BD101218F48FFF726
:1017E000AAFF050015D0934901200870306890F8D1
:1017F000101149070ED590F8430780070AD400F06E
:1018000081FE0220A07000F081FE192000F091FE00
:10181000657070BD002020702846BDE8704075E7F7
:10182000002070478268120006D00088C00503D5EA
:10183000072008700120704700207047826812005E
:1018400006D00078C00703D006200870012070473A
:1018500000207047826A120006D00088800503D5F8
:10186000092008700120704700207047026A1200AA
:1018700006D00078000703D50820087001207047C3
:10188000002070478268120005D00078000602D55B
:1018900001200870704700207047026B120008D0CA
:1018A000426B32B10078800603D502200870012017
:1018B000704700207047026B120006D00078C00607
:1018C00003D5052008700120704700207047026B87
:1018D000120006D00078800703D50420087001208C
:1018E000704700207047426B32B10078400703D543
:1018F0000320087001207047002070470020087006
:10190000012070472DE9F04144480421303001F0B6
:101910006DF9044641480421343001F067F9424F23
:101920000546404E7878DFF8F4802836042801D048
:1019300002280DD198F80200800603D53949A2008B
:10194000283102E0620006EB44013B4801F0A8FCAC
:101950007878032801D0022811D198F80200800677
:1019600003D5AA0006EB840104E005EB44006A00FD
:1019700006EB4001BDE8F041304801F091BCBDE804
:10198000F08130B587B001208DF800002748234D45
:10199000254C006890F80A07C0070AD0A87880078D
:1019A00007D46078012804D102208DF8000008F0E7
:1019B000EEFB00F069FB224801901A4802902830A3
:1019C00003901748E17800EB410004900020E0709C
:1019D00013488038059069686846884707B030BD6D
:1019E0002DE9FE4FDFF844A001200090DAF8000056
:1019F0000C4E0024B0F95614B0F95A24283611447C
:101A000001EBD17149100291B0F95814B0F95C247E
:101A1000114401EBD1714910019113E07C091000D0
:101A200020890120808701201C011000380110004E
:101A3000BC2A01008D011000FC8E0120748F012052
:101A40000080012090F80017C9072BD0DD4991F8DC
:101A5000427007B90127DB49DB4D91F8411091FB3A
:101A6000F7F10FFA81F86978042902D0032903D02D
:101A70000BE0407D440020E0D24840240421303077
:101A800001F0B4F8D14901EB8006687802280AD049
:101A900005280BD0042810D003280ED002280CD023
:101AA00005280AD0D1E07A24C84E06E0DAF8000012
:101AB000C64E3A2490F80187F836E9688B464145CE
:101AC0007DDCBBF1000F04D14FF4F871C04810F079
:101AD0000EFFBF490020894608E000BF51F82020D2
:101AE00036F910301A4449F82020401CA042F5DB9A
:101AF0000BF10100E86040457EDB0020E86068787B
:101B0000DFF8D082042804D0032824D0022844D04F
:101B100083E0AC4890F8430038B1DAF80000407D2B
:101B20004100AB4801F04EFD2861002049462A697A
:101B30000EE000BF31F820307B43A3EB020C029B88
:101B4000634426F8103051F8203048F82030401C0B
:101B5000A042EFDB61E09B4890F8430038B1DAF82F
:101B60000000007D41009A4801F02CFD68610020D2
:101B700049466A690EE000BF31F820307B43A3EB91
:101B8000020C019B634426F8103051F8203048F8CD
:101B90002030401CA042EFDB3FE08A4890F8430031
:101BA00098B1DAF80000407D4100894801F00AFD53
:101BB0002861DAF80000017D427D490000E03EE046
:101BC00009EBC20001F0FEFC68610020524643466A
:101BD000494620E0D2F800C09CF815C0B0EB4C0F8D
:101BE00031F820C00CFB07FC07DAB5F81080ACEB2D
:101BF0000808DDF808C006E022E0B5F81480ACEB78
:101C00000808DDF804C0C44426F810C051F820C00C
:101C100043F820C0401CA042DCDB6878052814D1C2
:101C200000206D4A09E000BF31F8203026F810305E
:101C300051F8203042F82030401CA042F4DB04E090
:101C40006878FFF763FD002000900098BDE8FE8FE4
:101C5000F0B587B0FFF756FE5A4DA878400603D47A
:101C6000FFF7BEFE002819D05C4F574C386890F83B
:101C70000A07C0070BD0A878800708D4607801282D
:101C800005D12079E8746079688008F080FA002135
:101C90004C48FFF750FD18B1FFF738FD07B0F0BD15
:101CA0004F48002666700670386890F80A07C0072B
:101CB00006D0A878800703D40021084601F014FD5F
:101CC0004849A4200873386890F81001400702D5ED
:101CD000A67000F005FC2078012816D08DF8006071
:101CE0004148019000F5F060029028300390E178BF
:101CF00000F5BC7000EB410004903548E670943864
:101D00000590696868468847C8E703208DF8000099
:101D1000E6E770B53148324D4FF00004016891F8A4
:101D20001001420728480AD591F84317890706D4BD
:101D30008178012908D002290FD0032903D18470AA
:101D4000FFF71FFE2C7070BD0221817000F0DEFBDA
:101D5000BDE87040322000F0ECBB03218170407878
:101D6000BDE87040D2E400F01F020121914040091B
:101D70004FF0E02202EB8000C0F80011704700F045
:101D80001F020121914040094FF0E02202EB800048
:101D9000C0F88011704700F01F02012191404009F6
:101DA0004FF0E02202EB8000C0F880127047490734
:101DB000090E002803DA00F00F000C4A00E00C4A7C
:101DC000815470477C0910001C011000A887012075
:101DD00034890120248B0120148D0120380110004A
:101DE0008D011000001000200080012014ED00E0A3
:101DF00000E400E0F0B527260022FA4DFA484FF43F
:101E0000F8315C270C46002303EB000E11F803C0E9
:101E10005B1C8EF860C00C2BF6DB2B68002BFCD112
:101E20008276C77604F10C0103EB000E11F803C0B3
:101E30005B1C8EF860C00C2BF6DB29680029FCD1F6
:101E4000511C8176C776921C04F13001B242D9DB75
:101E5000F0BD2DE9F0479246089E5B1EC6F10801D1
:101E60000022E14C01F0FF0C1546002189469A4200
:101E70000BDA00EB0208875C98F8018027FA06F776
:101E800008FA0CF847EA080703E007D1875C27FA4D
:101E900006F701EB040888F8607003E001EB040822
:101EA00088F8609001F1010102F101020C29DEDBEA
:101EB000CC490F68002FFCD10AEB0501A1765C210B
:101EC000E1766D1C022DD0DBBDE8F08718B500244B
:101ED00011235C222146C5480094FFF7BAFFC3488E
:101EE00018236222002121300094FFF7B2FF18BDB1
:101EF0002DE9F0470024DFF8EC82BB4982462546F5
:101F000026464FF05C0900209C4206DA00EB010CEB
:101F10001AF804708CF8607002E0471887F8606067
:101F2000641C401C0C28EFDBD8F800000028FBD113
:101F30005019887681F81B906D1C032DE3DBC3E7F5
:101F4000AA4800B516235E2200216C38FFF7D0FFA7
:101F5000A64820236422002140385DF804EBC7E73F
:101F600070B50023A04C05E0CD5C1E195B1C86F803
:101F700060505BB29342F7DB9A490B68002BFCD1AF
:101F8000A07642F01000E07670BD30B5984C072284
:101F90000220216801F24271FFF7E2FF216802226C
:101FA00001F24A710920FFF7DBFF2168062201F2E6
:101FB0004D710B20FFF7D4FF20688E498E4D90F8AD
:101FC0005307097800F0F00001F00F010843287072
:101FD000012229461120FFF7C3FF2168072201F2E1
:101FE00054711220FFF7BCFF82480122401E007886
:101FF00000F00F01206890F85B0761F31F10287054
:1020000029461920FFF7ACFF2168042201F25C7118
:102010001A20FFF7A5FF77480222C01C2946007846
:1020200028707448401C007868701E20FFF798FFE5
:102030002168062201F262712020FFF791FF6D48AE
:102040000222001D2946007828706A48801C00780A
:1020500068702620FFF784FF2168022201F26A716E
:102060002820FFF77DFF2168072201F26C713C20D8
:10207000FFF776FF206890F8C017604801703321A1
:1020800041740B21817430BD5D48002202605C48C0
:102090001C3802605B48026101210161826081603D
:1020A0000260016002604F49A0F574700B68002B5C
:1020B000FCD14D490B7B43F020030B730B7B23F0CA
:1020C00040030B730B7B23F080030B730B7B23F01C
:1020D00020030B73C0F8D823C0F8E0234A480270ED
:1020E000704730B54748002474300460454880305C
:1020F00004604448C4600121C160C46004600160A0
:1021000004603E4D2020AD1D287068703649593D51
:102110000873A42008733348183001680029FCD1E3
:10212000FFF7B2FFFFF731FFFFF70AFFFFF7CEFE21
:10213000FFF760FE3548046085F8344030BD38B59F
:102140000546294C006D00906073010AA173010CD3
:10215000E173000E2074042269462A20FFF700FF75
:10216000012205F14E012E20FFF7FAFE95F84E00F0
:10217000A074A86D0090E074010A2175010C6175CE
:10218000000EA075042269463420FFF7E9FE00988E
:10219000800F84F840001849012208703820FFF7AA
:1021A000DFFE38BD00EBC00101EB00106FF0030152
:1021B00001EB800010B51649144A0978146890FBA9
:1021C000F1F0401EC1B2012358071CB30024146073
:1021D00080F8341090F8421090F842408C42FBD0C6
:1021E000136010BD040B002200100020ACF80100A9
:1021F00038011000F6FF0100D8091000530000203C
:102200001C0C0022D00300221D01100040050022FA
:102210008F01100080F83410E2E778B50446FFF72C
:102220008EFFED48B4F848100180217C00F8011CB5
:1022300094F84A104173E94EA07C86F83600E84DC8
:10224000286890F842078DF800006188890503D559
:1022500020F012008DF80000012269460220FFF7ED
:102260007FFE042204F111010520FFF779FE2968A1
:10227000022201F24A710920FFF772FE022204F1E4
:1022800016010C20FFF76CFE022204F118010E204B
:10229000FFF766FE2868052204F11A0190F854073A
:1022A00020771020FFF75CFE012204F14B013C2057
:1022B000FFF756FECB4801680129FCD194F84A008B
:1022C00030732320FFF76EFF78BD7EB50446FFF71D
:1022D00036FFC148B4F84810018094F83F1000F868
:1022E000011C94F84A104173BD4D286890F84207CC
:1022F0008DF800006188890503D520F012008DF863
:102300000000012269460220FFF72AFE296891F8A1
:102310000A07C00769D06288900766D4B1F80D0734
:10232000ADF80400B1F87017ADF80810120609D521
:1023300094F83D201144ADF8081094F83C1008447E
:10234000ADF80400022202A94020FFF709FE022294
:1023500001A90920FFF704FE022204F138011A2026
:10236000FFF7FEFD022204F13A012220FFF7F8FDFB
:10237000012204F13E010720FFF7F2FD012204F1E2
:1023800044010820FFF7ECFD012204F14501202063
:10239000FFF7E6FD012204F146012820FFF7E0FDEA
:1023A000012204F14C011720FFF7DAFD012204F1AC
:1023B0004D011820FFF7D4FD28688B49012290F8C1
:1023C000540720F0F00008701220FFF7C9FD94F8C0
:1023D0004700824EC0070CD0286800F2C67190F802
:1023E000C60786F8360001220AE0022201F24A718D
:1023F000AFE794F8400086F83600012204F140016E
:102400000620FFF7ADFD012204F14B013C20FFF750
:10241000A7FD28680122694690F8430740F00800AC
:102420008DF800000320FFF79BFD6E48016801292D
:10243000FCD194F84A0030732320FFF7B3FE7EBD31
:1024400067496A4B0A6892F84D2702700A68B2F829
:102450005027428009681B7801F2547103F00F0382
:1024600011F8012C02F0F0021A4302714A89C2806D
:102470004A8A0281CA7B8272CA7DC272497801731C
:10248000704710B50446014601220B20FFF768FD96
:102490000222A11C0E20FFF763FD0122211D112045
:1024A000FFF75EFD0222A11D1C20FFF759FD02224D
:1024B00004F108012420FFF753FD012204F10A0171
:1024C0002120FFF74DFD012204F10B012920FFF728
:1024D00047FD04F10C010122BDE8104013203FE547
:1024E0003E4908B5042008733D480122694600684A
:1024F00090F8430720F008008DF800000320FFF754
:102500002FFD08BD35492020087370473349C0208E
:102510000873704736480168002909D0002101601E
:102520004FF0005191F8420091F842208242FBD0D6
:1025300070472F49002240390A60274A273A107015
:1025400001200860704770B5264C1C342368002BAE
:10255000FCD11D4603E0C6185B1C86F880508B42F8
:10256000F9D32368002BFCD102E0C45CD4545B1C7B
:102570008B42FAD370BD10B500F060FFFFF7CAFFC1
:102580001C48007878B11748001D01680029FCD16B
:102590001248C078400602D5174901200870BDE8EE
:1025A0001040FFF755BB15490020087019E610B51B
:1025B00000F044FF0E49002040390860BDE810409B
:1025C000FFF7A7BB10B500F039FFFFF7A3FFBDE889
:1025D0001040FFF79EBB00005400002000100020B8
:1025E00038011000000B0022D8091000F6FF01008E
:1025F000400500221D0110001C0110008D0110007B
:102600000446012007F0FDFE00210F20226807F09C
:1026100010FF01210F20626807F00BFF02210F203D
:10262000A26807F006FF03210F20E26807F001FF10
:102630000C210F20226907F0FCFE0E210F20626999
:1026400007F0F7FE0F210846A26907F0F2FE2021ED
:102650000F20E26907F0EDFE3A48026821210F20C1
:1026600007F0E7FE37481038026822210F2007F0F4
:10267000E0FE34480C38026823210F2007F0D9FE11
:1026800030480838026824210F2007F0D2FE2D4878
:10269000001D026825210F2007F0CBFE29483438A1
:1026A000026826210F2007F0C4FE2648143802686D
:1026B00027210F2007F0BDFEFEF777F802463021F4
:1026C0000F2007F0B6FEFEE710B5012807D002285C
:1026D0000ED0032805D0042805D0042109E00121EB
:1026E00007E0032105E00021032007F08AFEFEE752
:1026F0000221BDE81040032007F083BE10B5044658
:102700000146042007F07DFE012C00D1FEE710BD3C
:102710000146082007F075BE0146062007F071BE8D
:1027200010B504460146072007F06BFE012C04D0CB
:10273000022C03D0032C02D1FEE7FEE7FEE710BD1A
:102740000320EDE738ED00E000F078BE70477047F9
:10275000364810B5016821F00401016000F06EFEFA
:10276000BDE81040FEF77DBA314810B50078012869
:102770000DD0032811D1FEF75EF90EF03AFBFEF7FB
:10278000E8F9002809D0BDE8104007F07ABFFEF74D
:1027900052F9BDE810400EF02CBB10BD00F04EBE4B
:1027A00010B500F04BFEBDE8104008F088B810B539
:1027B00000F044FEBDE810404FF0005001F028B892
:1027C0007047704710B500F039FE1A4800780128AC
:1027D00003D0BDE8104007F0ECBCBDE8104001F0AC
:1027E000A9BD704710B500F029FEBDE810404FF0BC
:1027F000805001F00DB870477047704770477047C0
:10280000704710B500F01AFEBDE81040FEF789B918
:1028100010B500F013FE07480078012803D1BDE889
:10282000104001F063BD10BD7047704710ED00E02F
:10283000A20110008C01100010B556219E4810F026
:1028400034F89D489D499E4A018082809D4941807F
:102850009D4BC3809D4C04819D4C44819D4C848143
:102860009D4CC4819D4C04829D4C44829D4C84822D
:102870009D4CC4829D4C04839D4C44869D4C848613
:102880009D4CC4869D4C0487C387418782879C49A1
:10289000A0F84E109B49A0F850109B49A0F8521088
:1028A0009A49A0F854109A49A0F84010994909682B
:1028B000B1F86220A0F84220B1F8C621A0F8442067
:1028C000B1F8A120A0F84620B1F8F021A0F84820E6
:1028D000B1F85421A0F84A20B1F85221A0F84C20B8
:1028E0008B48B1F84E274280B1F85C27C280B1F81E
:1028F0006417018110BD88481322894903788748ED
:10290000552B02D0027019200CE0824B1B6893F803
:102910001131DB0702D0804A521C127802707E48C7
:10292000801C0078087070472DE9F0418AB0FF22C2
:10293000242168460FF0B1FF6846FEF7A0FA01991E
:102940000E240126072545F2AA50814202D00299A1
:10295000814237D1009980460F0E0299414508D136
:10296000032F02D10098C0F301360098C0F303256D
:1029700002E00120FFF7D0FE0199414503D1009804
:1029800000F01F0402E00220FFF7C6FE032F1FD154
:10299000049A40466349824201D1039A00E0624AA8
:1029A0000A60069A6149824201D1059A00E0604AB4
:1029B0000A60089A5F49424501D1079800E05E48E5
:1029C000086005E00120FFF7A7FE0220FFF7A4FE44
:1029D0005A4906F0030040EA051081F86000012022
:1029E00088761120C8765648017864F30401017096
:1029F0000AB0BDE8F08170B5FDF757FFFEF700F9AA
:102A0000444C20680078A52802D00120FFF776FE0C
:102A10004FF008500125C0F898532068494A90F8B3
:102A2000281101F00101116090F82801111DC0F377
:102A300040000860FEF722FAFDF74EFFFEF7DEFBCE
:102A4000042801D1FFF740FEFEF746F9FEF792F9A0
:102A50003A48802180F86010042181761121C176E6
:102A6000FFF762FFFFF747FF36480C38056070BD7F
:102A700010B54FF0005141F286204881FFF7BBFFAF
:102A8000FFF7DAFE30495F20086030490020086017
:102A900030482F49016001F508602F4908602F4830
:102AA00000F0CEFAFDF7F0FB00F05AF8FDF7EAFB74
:102AB000FDF76EFC012010BD000001200080012008
:102AC00048A70120C89F012056000120A8870120A7
:102AD000462E0120822E0120283001206430012062
:102AE0001C35012058350120E22901201E2A012031
:102AF0003A2E0120F0970120FC970120D6290120D1
:102B0000C82E0120F02E0120402F0120182F012077
:102B10008023100038011000F2FF01009001100026
:102B20008F0110009401100040A5AE029801100022
:102B3000008793039C01100000366E0100100020F6
:102B40002000002088040022C42E012080011000F3
:102B50006811100064011000680110006822100064
:102B60007FB5FDF7EDFB1F4D002400BF05EB4410C2
:102B700000F11002017F4CCACDE90261CDE90023CA
:102B80000FC8FDF7AFFD10B10220FFF7C9FD641CAF
:102B9000082CEBDB144D002404EB440005EB800112
:102BA000091D55F8200006C9FDF71CFD10B10220D3
:102BB000FFF7B6FD641C082CEEDB0B4D00246035DE
:102BC00005EBC400416855F83400FDF737FC10B13F
:102BD0000220FFF7A5FD641C072CF1DB7FBD4068D8
:102BE000FFF7AEBDE82A0100E82B010070B50346EF
:102BF00000200246F74C09E09D5C521C05F00F06D0
:102C000004EB1515A65D2D78304428448A42F3DB89
:102C100070BD884200D308467047884200D80846F5
:102C20007047884200D30846904200D31046704750
:102C30002DE9F047D0F810C00568046A85FB0C1236
:102C4000A1FB041242694368914683FB02628269D8
:102C5000E246A6FB02677618D0E9021781FB07C897
:102C6000C069ACFB00C81CEB060682FB0A2CA2FB69
:102C7000011280FB0902A0FB0502401884FB071229
:102C8000A1FB03120818301A4FEAE071BDE8F08783
:102C90002DE9F04389B00446006800906068019017
:102CA000206902906068039020690490A0690590F3
:102CB00020690690A0690790E06908900D46684673
:102CC000FFF7B6FF8046A0680190E0680490606955
:102CD000079089466846FFF7ABFF0646606801909B
:102CE000A068029020690490E0680590A0690790B0
:102CF000606908900F466846FFF79AFFC5E904012E
:102D0000C5E90267C5E9008909B0BDE8F0832DE98E
:102D1000FF4F4FF0000A89B09B465746D146D04638
:102D2000564655465446202168460FF0E0FD0B9864
:102D300010E00999824431F9102000FB00F102FBF8
:102D400001668844414302FB009901FB004417449B
:102D50000D44401C5845ECDD0B99ABEB0100401CC9
:102D6000CDE9000ACDE90654CDE90486CDE9027922
:102D700068460A99FFF78CFF0DB0BDE8F08F9648C2
:102D80000068017B427B41EA0221827BC07B41EAF1
:102D9000024141EA0060400070478F4800680179B5
:102DA000427941EA02218279C07941EA024141EA4D
:102DB0000060704788480021006800F212700278B5
:102DC00041EA02214278807841EA024141EA00600A
:102DD0004000704780480021006890F8102790F864
:102DE000110741EA024141EA0060704700B5FFF770
:102DF000C6FF4008400000BDF8B50E460446FFF788
:102E0000F5FF0090FFF7BBFF054604216846FFF77A
:102E1000EDFE04EB40070024DDF8001020462346B9
:102E20004FF0010C0CFA03F20A4207D02A4204D0F8
:102E300037F8102026F81420641C401C5B1C1E2B45
:102E4000F0DBF8BDA9E7FCB50E460746FFF7CEFF5D
:102E50000190FFF7A2FF0090FFF79FFF05460421B6
:102E600001A8FFF7C3FE044604216846FFF7BEFE33
:102E700000EB440007EB400700200099044603469E
:102E80004FF0010C0CFA03F20A4207D02A4204D098
:102E900037F8142026F81020401C641C5B1C202BE3
:102EA000F0DBFCBD70B54C490020096801F5F574F4
:102EB00091F8E8518DB191F8E6214FF00103D20766
:102EC0000DD0002203FA02F6354203D0A65C03FAC5
:102ED00006F10843521C062AF4DB400070BD91F84D
:102EE000E91103FA01F0F8E770B53B4900200968E1
:102EF00001F5F57491F8E851002D09D091F8E6211B
:102F00004FF00103D20704D091F8E91103FA01F060
:102F100070BD03FA02F6354203D0A65C03FA06F14F
:102F20000843521C062AF4DB70BD70B500222A4CFF
:102F3000012303FA02F6256895F8E851354203D0DB
:102F400030F8125021F81250521C062AF1DB70BDE5
:102F500000B5FFF714FF40F0010000BD1DE71F4A58
:102F6000520102EB810101F108510860704701EB49
:102F70008010801001EB41014900182291FBF2F30F
:102F800000EB400000F5F83002FB1311006820F060
:102F90007F40C84000F03F00704701EB8010801078
:102FA00010B501EB41014900182391FBF3F403FB39
:102FB000141300EB400000F5F8303F2401689C40FA
:102FC000A1439A400A430270110A4170110C8170AA
:102FD00010BD0000802C010038011000C42E01201B
:102FE000821002EB4202114400EB40004000182224
:102FF00090FBF2F301F5F83102FB1302086820F0B0
:103000007F40D04000F03F007047831003EB430344
:103010001A4410B500EB40004000182390FBF3F475
:1030200003FB140302F5F8323F2410689C40A043D0
:10303000994001431170080A5070080C9070C7E75E
:103040002DE9F14F782100980FF051FCFFF780FF38
:103050004FEA5008FFF7A1FE4FF0000C814666468C
:103060004FF0010A0AFA06F111EA090F1ED00024F6
:10307000012725460AFA0CFB0AFA05F010EA080FA8
:103080000FD031462846FFF772FFA04207D00099C3
:10309000009A51F8271041EA0B0142F82710044624
:1030A0007F1C6D1C272DE7DB0CF1010C761C202EFC
:1030B000D8DBBDE8F88F2DE9F04F8346F9480024AE
:1030C0002246D0F800A001219AF81450A5F101067B
:1030D00021E003200123DFF8D0E303FA01F99AF895
:1030E000157015E05EF820C01CEA090F0FD0A0F1A2
:1030F000010300FB051C03FB05183BF91CC03BF951
:103100001830BCEB030300D55B421C44521C401C2E
:103110008742E7DC491C8E42DBDC02B9012294FBCA
:10312000F2F02AE62DE9FF4F85B0002103910291CC
:1031300001910091DB49012B0C6894F8775005F060
:103140000F0700D10027667D94F87A30C7F1100B85
:10315000B34200D21E4600230493012381E000BF46
:103160004FF00009C84603241FE0CF4951F824C09E
:10317000012199401CEA010F04FB053130F911C00F
:10318000A4F1010101FB053130F91110ACEB010193
:1031900006D0002900DA4942DDF818C0A1EB0C0185
:1031A000002900DA49428944641CB442DDDB31461F
:1031B0009EF815A01FE0BC4C54F821C001249C408F
:1031C0001CEA040F01FB053430F914C0A1F101041D
:1031D00004FB053430F91440ACEB040406D0002C99
:1031E00000DA6442DDF818C0A4EB0C04002C00DA0D
:1031F0006442A044491C8A45DDDC0499012910D1B0
:103200000199B1EB090101D5C1F10001039C2144F1
:1032100003910099B1EB080100D54942029C214479
:103220000291CDE900899EF87B10994216D1116870
:10323000039D79430BFB0511CC1701EB14710911A8
:1032400011609168029D79430BFB0511CC1701EBCE
:1032500014710911916000210391029101215B1CFD
:1032600004919049D1F800E09EF81450691E9942EB
:103270003FF776AF5068039978430BFB0100C11705
:1032800000EB117000115060D068029B78430BFB7B
:103290000300C11700EB11700011D06009B06CE59C
:1032A00004E000BF11F8013B00F8013B521EF9D2C7
:1032B00070477CB50D460446FFF798FD0090FFF778
:1032C0006CFD019000980421400800906846FFF7CB
:1032D0008DFC0646042101A8FFF788FC30448200DB
:1032E00021462846FFF7DCFF7CBD0B466D49096887
:1032F0004A7D097D521C4A43014652001846CFE7D9
:103300002DE9F04104465C210FF0F1FA0025654EED
:1033100025806580306890F8C50700F0010045EA17
:1033200040106080316891F84517C90940EA0110E2
:1033300060806560FFF70CFEA060FFF72EFD5B4F1D
:10334000E0607888E082306800F24670C27A817A64
:1033500002F03F0241EA022121834178E17490F8B2
:103360007A1021740178A17481782175017BA1768E
:103370004F49407B097800F0F00001F00F0108434D
:10338000E076FFF78FFD2062FFF7AEFD6062FFF78A
:1033900011FDA062FFF71EFDE062FFF727FD20632D
:1033A000FFF7FBFC6063F88820876087306800F2D5
:1033B000C170017884F83E10817884F83F10C1789C
:1033C00084F8401010F8BF1C84F84110012184F8E3
:1033D000421084F84350417884F8441010F85F1C80
:1033E00084F8451010F8571C84F8461010F86B1C30
:1033F000A17710F8550C84F84B0084F83D5084F800
:103400003C50BDE8F08110B50446FCF73DFF012CAF
:103410000BD12448006890F81001800705D5FDF70E
:103420004CFA38B1FDF745FA04E0FDF746FA08B961
:10343000FDF73BFABDE81040FCF724BF0020E2E7AF
:10344000184B10B51A68947E640704D5D28A0468B4
:10345000A2EB040202601A68947EA40703D5128BC3
:103460000C68121B0A600268002A00DA002202605F
:103470001C68E48AA24200DD224602600A68002A33
:1034800000DA00220A601C68248BA24200DD22467A
:103490000A601B689B7EDB0702D003680B6002603A
:1034A00096E500003801100068221000802310000B
:1034B000F6FF0100F0B500252C4608E031F9146054
:1034C00030F91470F61B964200DD6D1C641C9C42A2
:1034D000F4DB012D01D90120F0BD0020F0BD2DE964
:1034E000F04F9246DDE909B7012547F6F8725642DA
:1034F0009946AC46002416E030F8143031F81480B8
:10350000A8EB03031BB29A4200DD1A469E4200DA82
:103510001E46002B02DA4FF0000502E001DD4FF0FD
:10352000000C04F10104BC42E6DB55EA0C0306D0B2
:10353000012D01D02DB108E0BCF1010F05D1002211
:1035400003E0BCF1010F00D1324600252C462B468A
:1035500011E000BF30F8136031F813C01644ACEB33
:10356000060636B24E4505DACBF1000C664501DDA4
:103570003544641C5B1CBB42ECDB95FBF4F10A4454
:10358000002105E030F8113013442AF81130491CAD
:10359000B942F7DBC5E5F0B506460020044605460E
:1035A000521C059F0AE000BF36F911C09C4504DD9E
:1035B000A44502DD64460D460120491C9142F3DB1F
:1035C0003D60F0BD30B50268002513460AE000BF3B
:1035D00050F82540944201DD224602E09C4200DA88
:1035E00023466D1C8D42F3DBD01800EBD0704010E9
:1035F00030BD2DE9F8438E4C0D462368597D1B7D67
:10360000491C5943002307E032F8136030F8137067
:10361000F61B25F813605B1C8B42F5DB2068417DAF
:10362000007D4143420005EB41018248FFF738FE2F
:10363000206890F81C07400720D514217E480FF021
:1036400034F914217D480FF030F97B4E7B4FDFF8C1
:10365000F081DFF8F091002407EB4400009004EBC8
:10366000840006EB440308EB840209EB840105EBBC
:1036700040000AF0F9FC641C052CEDDBBDE8F88382
:10368000714901200860810270480FF00EB92DE9E0
:10369000F041064615460F46302801D1FFF7F0FFEE
:1036A000694C20682844401CB0F5806F01D2206826
:1036B00001E001202060654908700E542DB10844D6
:1036C000401C2A463946FFF7EBFD20682844401C81
:1036D000206096E65E4800210122017042708170F0
:1036E00070475B480078704730B5514A126892F8CD
:1036F0000A27D3070BD0D506564A4FF000034FF0E8
:10370000010407D5151F2860012901D1136030BDC0
:10371000146030BD4F4D083D28600129F8D0F5E711
:103720002DE9F84F424C00264FF00057206890F8E2
:103730000A07450997F8510000D101250720FCF739
:103740007CFFFDF732F8DFF80881C8F80400206834
:103750004FF0010490F80A07C00603D5062087F849
:10376000510001E087F8514000210120FFF7BCFF24
:103770004FF41670FCF78EFD4FF0E02A4FF480599D
:103780004FF0000BCAF880924FF040514446D8F8F1
:103790000400FCF7A2FEDFF8C080012088F80000DA
:1037A000E8B2FDF75FF9CAF800916B4600224FF0CE
:1037B00040516068FCF7A1FE4FF040516068FCF793
:1037C0008CFE0098C00000D501262078B04202D1BE
:1037D000607801280BD197F851009EB140EA05228C
:1037E000DD20616806F025FE84F801B02670002116
:1037F0000846FFF779FF88F800B00720FCF738FF8C
:10380000207856E440EA0521092006F0FAFDEBE7AE
:1038100010B5044611484FF480510160FDF72FF9AF
:103820000B4821464068BDE81040FCF727BE000069
:1038300038011000E82F0120A0231000B42310004D
:10384000182F0120C82E01203C011000D625012090
:10385000A4011000280A00228D01100080E100E080
:1038600010B501461822FE48FFF71AFDBDE81040CA
:103870004FF400610120FCF701BE2DE9F04198B042
:1038800080460E4614466846FFF73AFDE0074FF0C3
:10389000010701D0ADF80070A00705D5BDF8000004
:1038A00040F00800ADF80000EE4DA0060ED5BDF8C2
:1038B000000040F40070ADF80000296891F81C1772
:1038C000490703D540F00100ADF80000600733D58B
:1038D000286890F80A07C00711D0FFF721FF0128D8
:1038E0000BD0BDF8020040F00200ADF8020020202D
:1038F000ADF80000A00707D018E00620F8E7BDF8F3
:10390000000040F02000F3E7BDF8000040F00100A7
:10391000ADF80000286800F2211041788DF81310EE
:1039200001788DF81A1080788DF81E00CE48007846
:10393000800601D58DF84370ADF83A60ADF8168079
:10394000ADF83860AFF2E700C54E03244FF40065D0
:1039500001906846FDF71FFF17AB002229460120A2
:10396000FCF7CBFD29460120FCF7B7FD3078002895
:1039700004D0FEF7A9FE641E002CEADC18B0BDE8F6
:10398000F0812DE9F041B74901260024096810F4BF
:10399000D17F91F82110C1F3011106FA01F600D090
:1039A000042410F0050F01D044F00104C00601D535
:1039B00044F00204002CE2D00025AC4F05E0F98869
:1039C00078882246FFF759FF6D1CB542F7DBD6E732
:1039D0002DE9F35FA3488B4601260068447D017DF5
:1039E00090F82100641C4C4300F00707BE404FF4E0
:1039F00088519F480EF07BFF0025DFF87482DFF8C6
:103A00006C92DFF85CA21AE0B9F806100122009867
:103A1000FFF733FF9749DAF8040005F0F8FD954AFF
:103A20000020414608E000BF51F8203032F910C0B4
:103A3000634441F82030401CA042F5DB6D1CB542C8
:103A4000E2DB0020414605E051F820203A412BF806
:103A50001020401CA042F7DBBDE8FC9F2DE9F35F7E
:103A6000DFF8009201274E46D9F8000090F816477B
:103A700090F8151790F821004C4300F00705AF406F
:103A8000A1007B480EF033FF3068DFF8E4A190F826
:103A90001C17490705D5007D81000AEB84000EF054
:103AA00026FF0026DFF8B8B13BE070482022C1882D
:103AB0000098FFF7E2FED9F8000090F81C074007D5
:103AC00004D56C49DBF8040005F0A1FD6A49DBF878
:103AD000080005F0ACFC684A0021504608E000BF31
:103AE00050F8213032F911C0634440F82130491CAC
:103AF000A142F5DBD9F8002092F81C1749070FD531
:103B00000021DFF878E108E063183EF911C050F8B1
:103B10002380491CC44440F823C0137D8B42F3DC4E
:103B2000761CBE42C1DB0020514606E051F8202041
:103B3000019B2A4123F81020401CA042F6DBD9F853
:103B4000002092F81C07400786D500204C4E06E066
:103B5000231851F823302B4126F81030401C137DD8
:103B60008342F5DC78E72DE9F34FDFF8F89087B072
:103B70000124D9F80000182190F8210000F007076F
:103B800004FA07F668460EF0B2FE0025DFF8DCB056
:103B9000DFF8F0A0E84618E0BBF80610022207980C
:103BA000FFF76BFE2E4837490069FFF7BEF900208A
:103BB0005246414632F910C051F82030634441F872
:103BC0002030401C0628F5DB6D1CB542E4DB0020EC
:103BD000494643460A6804FA00F592F8E8212A4269
:103BE00005D053F82020089D3A4125F81020401CAC
:103BF0000628EFDB09B0BDE8F08F2DE9F74FDFF8BD
:103C0000649084B09346D9F800004E4630F83B1FCC
:103C1000039140880290FFF7E9F80090FFF712F94E
:103C2000019004216846FEF7E1FF8246042101A8C5
:103C3000FEF7DCFF504445003068012490F8210075
:103C400000F00707BC40A90009480EF050FE31689B
:103C500091F8F002C2071CD080071AD414E00000CB
:103C6000A43E10003801100048011000802310000D
:103C700068111000E8091000C82E0120682F0120EB
:103C8000A82F01203A2E012091F8F102044405F0FA
:103C9000E1F9002631E0F848042205994088FFF751
:103CA000ECFDD9F80010F54891F8C517D0F80C8054
:103CB000C90704D041694246404605F073FAD9F875
:103CC000000090F8F002C10708D0800706D4EC4944
:103CD000404605F0D6F978B1DFF8A4830020E94921
:103CE00008E000BF51F8203038F910201A4441F89C
:103CF0002020401CA842F5DB761CA642CBDBE14C21
:103D000000211DE0DF48D9F8003050F8210093F879
:103D1000F02240FA07F0D60708D0920706D593F8AC
:103D2000F122521C4243B3F8F202101AB1EB4A0FCF
:103D300001DA039A00E0029A104424F81100491CA9
:103D4000A942DFDB049810F0220F09D02046DBF8EF
:103D50000010FFF751F82046DBF80410FFF773F866
:103D600007B048E72DE9F0479A46C74B894600213E
:103D70000125C64E1C681AE032F8113030F8117077
:103D8000DB1B1FB200230AE0C3EB031C06EB8C0C09
:103D90005B1C3CF811801BB2B8442CF8118094F8DD
:103DA00080C305EB9C1C9C45EEDC491C09B2637D7D
:103DB0008B42E1DC0020B64A19E000BF3AF810302F
:103DC00039F81010591A0BB2002108E002EB8116E5
:103DD000491C36F8107009B21F4426F8107094F888
:103DE000806305EB96168E42F0DC401C00B2217D0C
:103DF0008142E3DCBDE8F08770B5A34DA54E0024F9
:103E00002868C4EB041100EB440006EBC111B0F8C4
:103E1000EF00FFF7DDFD641C042CF1DB70BD2DE924
:103E2000FE4F00258246984C2F46DFF86082DFF86F
:103E30006092012612E000BF00EB4500C5EB0512C1
:103E4000B0F8B21308EB8200009009EB8510CDE9C1
:103E500001076A465046FFF7D0FE6D1C206890F8B7
:103E6000801306EB9111A942E6DC90F85011C907C6
:103E700010D090F8911109060CD5407D834942007D
:103E80008548FFF70DFA20688149007D420083488C
:103E9000FFF706FABDE8FE8FFEB57B4A764900249F
:103EA0001268012300F4907592F88063C98803EBCF
:103EB000961306E002EB4406B6F8B263B14202D0B4
:103EC000641CA342F6DCA34219DDC5B192F850018F
:103ED000C00703D192F8B001C0070FD06B49C4EB03
:103EE000041001EB80013C226D48FFF7D9F96848C6
:103EF000402200EB84116B48FFF7D2F9FEBD00228F
:103F00000292674A0092674A01926A46FFF775FE7D
:103F1000FEBD70B504460020FCF78FFB0320FCF7C4
:103F20008CFB594D286890F82010490701D424F4DF
:103F3000006490F85011C90705D190F8B011C90775
:103F400001D124F0620490F88013490701D424F4CD
:103F5000B07490F8D010490701D424F0040490F80C
:103F6000E81109B924F0100490F8040308B924F406
:103F7000C07460060BD541483C2249497C38FFF7A4
:103F80008FF93E48402247494038FFF789F94649B2
:103F90000020401C8842FCD3200502D52046FFF7B4
:103FA000F0FC600701D5FFF727FF14F4907F02D0E3
:103FB0002046FFF734FF304EE0071FD070883B49A2
:103FC000FFF706FD70883A49FFF748FD286890F82A
:103FD000200000070AD53548FFF76DF83549012361
:103FE000354A086001463148FFF79CF8286890F888
:103FF0004904C00702D0204602F0F4FBE00603D5D6
:1040000070882E49FFF7AFFD14F0820F0AD02046CA
:10401000FFF742FF286890F84904800702D5204640
:1040200002F098FC600607D514491E4B40391C4A23
:10403000A1F13C00FFF796FE2149012008702149BB
:1040400008702149087006F090F80020FCF710FB7A
:10405000BDE870400320FCF70BBBF0B40A49002216
:104060000C4C0B68B3F8EF1081423ED2B3F8F51058
:1040700081422BD8032238E080231000A43E100098
:10408000048E01206811100038011000562B012009
:10409000822C0120D6070120462C0120822D0120F0
:1040A000E22901201E2A012020A10700560001203C
:1040B000182F01206C011000E0221000D6290120E9
:1040C0004E01100061011000780110005FF0010145
:1040D00003EB4105B5F8EF50A84201D10A4602E0D2
:1040E0000DD2A1F101028A420DD1C2EB021004EB04
:1040F000C011F0BC4FF4F062B648FFF7D1B8491CCC
:104100000429E5DBF1E703EB4103B24D33F8ED2F72
:10411000C1EB01115B88801A00029A1A90FBF2F33E
:1041200000204FF4707604EBC11100BF01EB400298
:10413000A2F5F06231F91040B2F90020A41A5C43F4
:1041400002EB242225F81020401CB042EEDBF0BC2C
:1041500070472DE9F041A0490025A04A0968A04E0A
:10416000B1F8B23383421AD291F880339C0901EB43
:104170004407B7F8B27387420AD9012404EB9313BA
:1041800013E000BF01EB4407B7F8B273B84201D1A6
:10419000254602E008D2A4F10105A5421CD191F800
:1041A0005001C00708D103E0641CA342EADCF6E733
:1041B00091F8B001C0074CD0C5EB051002EB8001AF
:1041C0003C228848FFF76CF806EB8511BDE8F0410A
:1041D00040228548FFF764B801EB4405B5F8B033D9
:1041E000B5F8B253C01A0002EB1A90FBF3F391F842
:1041F0005001C00703D191F8B001C00729D0794D13
:10420000C4EB0411002002EB810100BF01EB40026E
:1042100031F9107032F93C2CBF1A5F4302EB2722B0
:1042200025F81020401C1E28F0DB6F4D002006EB07
:10423000841100BF01EB400231F9104032F9402CEB
:10424000A41A5C4302EB242225F81020401C2028ED
:10425000F0DBBDE8F0812DE9F04164480124644EB3
:10426000047000253560192000F0A8F8192000F02E
:104270008DF8604F052038724FF41670FCF70AF87D
:104280005B4844380560FF21397034600460E0E722
:1042900070B55648584C01250570207F40F0040049
:1042A00020774D48006890F81101C00705D00A201A
:1042B00000F084F80A2000F069F8002184F860100A
:1042C0005B22A2761120E07684F860505723A37613
:1042D000E076474B443B1960464EFF213170042184
:1042E00084F86010A276E0761D6070BD70B540481D
:1042F0000024443804603F4D08352E79192000F021
:1043000051F8C6F1FB002978C0B2491CB0FBF1F0AE
:104310003A490870354804702F48006890F8110138
:10432000C00702D0BDE87040B2E734495520891E6D
:10433000087070BD10B5304C207F40F0040020772D
:104340002548006890F81101C00702D00A2000F04B
:1043500029F828490A7B264B0020443B186084F842
:1043600060005B23A3761123E3760978891A89B26A
:104370004FF4FA42B2FBF1F1204A0909521E1170C2
:104380005521521E11701949087010BD00F01F020E
:104390000121914040094FF0E02202EB8000C0F87B
:1043A0000011704700F01F020121914040094FF0B9
:1043B000E02202EB8000C0F88011704700F01F027D
:1043C0000121914040094FF0E02202EB8000C0F84B
:1043D000801270475600012038011000562B012032
:1043E000822C0120E22901201E2A01208C011000CC
:1043F000480500222E00002000100020F4FF0100DC
:1044000010B501461822FD48FEF74AFF8021BDE89D
:1044100010400120FCF732B830B599B00446684628
:10442000FEF76EFF0020012C04D0022C04D0032CD8
:104430000AD00DE0012100E008218DF81200ADF84E
:1044400000108DF8100003E04FF40070ADF800008C
:10445000BDF80200AFF2570140F4A670E74D01919C
:10446000ADF8020003246846FDF795F917AB00226A
:1044700080210120FCF741F880210120FCF72DF874
:104480002878002804D0FEF71FF9641E002CEADC0F
:1044900019B030BD2DE9F84F4FF0000BFEF78AFC44
:1044A0000446FEF797FC80464FEA54092821D44879
:1044B0000EF0FBF92821D3480EF0F7F900274FF052
:1044C000010A0320FFF7A8FFCC4800242646806895
:1044D000CDF800000AFA06F010EA090F2FD00025E7
:1044E0000AFA05F010EA080F26D029463046FEF7F2
:1044F0003EFDC549DFF808C309683CF91430B1F83E
:104500002427991A009B33F91430A3EB020200D53B
:104510004942002A00DA5242914204DBB9492CF8A0
:10452000143021F814003F2805D2401CC2B229469D
:104530003046FEF732FD641C6D1C202DD0DB761C4E
:10454000272EC7DBFDF756FC7F1C402FB9DB01206F
:1045500000900320FFF760FF00273E464FEA0A0461
:1045600004FA06F010EA090F17D0002504FA05F046
:1045700010EA080F0ED0A348294610F8170082460B
:1045800002463046FEF709FDBAF13F0F01D3002085
:1045900000907F1C6D1C202DE8DB761C272EDFDBB6
:1045A000009810B90520FEF7B3F8FDF723FC0320AF
:1045B000FFF732FF9449914809688368002091F819
:1045C000E82100BF04FA00F52A421CD033F910504C
:1045D000002D02DC4BF4007005E040F6FF76B5429A
:1045E00003DB4BF48070834610E0B1F82477B1F818
:1045F000BE6107EB060CAC4505DABF1BAF4202DD1E
:104600000EB14BF4806B401C0628DBDB5846BDE83E
:10461000F88F2DE9F0477C4E306890F821177B48E1
:104620000A0604D401F00F010170BDE8F0870021F3
:10463000724F01700C460D4681460320FFF7ECFED9
:1046400032680020BB6892F8151792F816C701FB74
:104650000CF106E033F910C0B2F82287C445E4DB60
:10466000401C8142F6DC0F2C06D2641CE4B26D1CA7
:1046700089F80040102DE0DBBDE8F0470620FEF78A
:1046800047B82DE9FC5F4FF0000BFEF70BFC04462A
:10469000FEF72AFC5E4907460020086048608860F3
:1046A0005C494FEA540980460860486088604FF0D2
:1046B000010A0220FFF7B0FE504800242646006998
:1046C000CDF800000AFA06F010EA090F38D00025EC
:1046D0000AFA05F1394230D04B490AFA04F0096868
:1046E00091F8E811014228D029463046FEF73FFCF8
:1046F0004549474A096832F91430B1F80AC2B3EBA8
:104700000C01009B33F91430A3EB0C0C00D549428B
:10471000BCF1000F01DACCF1000C614504DB3D492E
:1047200022F8143021F814003F2805D2401CC2B2F0
:1047300029463046FEF731FC641C6D1C202DC7DB7A
:10474000761C272EBEDBFDF755FB08F10108B8F1FA
:10475000400FAEDB012000900220FFF75DFED04647
:104760000026DFF8A4A0354608FA05F010EA090F84
:104770001ED0002408FA04F1394216D0DAF80010ED
:1047800008FA06F091F8E81101420ED021482146BE
:1047900010F81600019002462846FEF7FEFB01982D
:1047A0003F2801D300200090761C641C202CE1DB04
:1047B0006D1C272DD8DB009810B90520FDF7A8FF48
:1047C000FDF718FB0220FFF727FE0C48124900698D
:1047D000FEF7ABFBDAF800400F4D002094F8E8310B
:1047E000424600BF02FA00F10B422DD035F91010FD
:1047F000002913DC4BF0020016E00000BC3E100064
:10480000F02E0120402F012038011000F0FF0100A0
:10481000F0970120FC9701203A2E012040F6FF7608
:10482000B14203DB4BF00100834610E0B4F80A729A
:10483000B4F8BE6107EB060C8C4505DABF1B8F424E
:1048400002DD0EB14BF0040B401C0628CADB5846B3
:10485000BDE8FC9F2DE9F05FE2490A6892F830015B
:104860000506E148037803F00F0407D492F83E11DF
:1048700021F00F0121430170BDE8F09F0025DFF812
:104880006CA3834604702E46012789460220FFF759
:10489000C3FDD749DAF81000FEF747FBD9F800202E
:1048A000D34B002092F8E81107FA00FC11EA0C0F34
:1048B00005D033F910C0B2F80882C445DCDB401CD7
:1048C0000628F1DB0F2D08D26D1CEDB244EA05106D
:1048D000761C8BF80000102ED8DBBDE8F05F0420BA
:1048E000FDF716BFF0B5C14900204D68BD490A6803
:1048F000537D117D5B1C01FB03F41CE035F9113085
:10490000002B02DC40F0200014E040F6FF76B342BA
:1049100002DB40F010000DE0B2F83471B2F8BE6175
:1049200007EB060C9C4505DABF1B9F4202DD0EB16A
:1049300040F04000491C8C42E0DCF0BD02461821EA
:104940005FF0010000FA01F3134201D1491EF9D5CD
:10495000491C8840104370472DE9FE4FFEF7F8FAD6
:104960000446FEF7FBFA9F4D0746286890F8450776
:10497000000603D52046FFF7E1FF04464FEA540B3B
:104980004FF4F0619B480DF090FF98484FF02709D5
:10499000802118300DF0ABFF002001900120FFF7BF
:1049A0003BFD9248D0F804A08E480068057D0120A8
:1049B000002402905FE0012000FA04F111EA0B0FDD
:1049C00058D00026012000FA06F818EA070F46D052
:1049D0008648183050F8240010EA080F3ED13146BE
:1049E0002046FEF7C4FA00907E483AF91510006898
:1049F000B0F83401814225DC7E4B33F91520121AC0
:104A0000A1EB000000D55242002800DA4042824269
:104A100009DC00983146401EC0B202460090204694
:104A2000FEF7BBFA01E023F815107349009821F84E
:104A300015006E48183050F8241041EA080140F87B
:104A400024100BE000983146401CC2B22046FEF70D
:104A5000A4FA68483AF8151020F815106D1C761C59
:104A6000202EAFDB6148183050F82400B84201D046
:104A700000200290641C4C459DDB029830B9FDF784
:104A8000B9F90198401C0190402887DB55484FF048
:104A9000010A00250068067D1DE0012202FA05F0EA
:104AA00010EA0B0F16D000240120A04038420ED08F
:104AB0005148214610F81600804602462846FEF767
:104AC0006CFAB8F13F0F01D34FF0000A761C641C5A
:104AD000202CE9DB6D1C4D45DFDBBAF1000F02D164
:104AE0000320FDF715FEFDF785F90120FFF794FC83
:104AF000BDE8FE4FF6E62DE9F05F3A4A116891F8FD
:104B00003001C4073848037803F0F00514D005706D
:104B100000264B7D0C7DDFF8D4A05B1CB04691468F
:104B200004FB03F783460120FFF776FC2046DAF802
:104B30000420D9F800100EE091F83E1101F00F01A9
:104B40002943017098E600BF32F91030B1F832C144
:104B50006345F7DB401C8742F6DC0F2E0AD2761C39
:104B6000F6B245EA060108F101088BF80010B8F129
:104B7000100FD8DBBDE8F05F0220FDF7C9BD70B5AE
:104B800001244FF404614FF4F8300DF0B0FEFDF74E
:104B900031F9FFF7B0FFFFF7DFFE124D44EA006482
:104BA000286890F8E80128B1FFF754FEFFF769FD87
:104BB00044EA0044FFF72DFDFFF76CFC0A482A6821
:104BC000401D017892F8FB2701F0F00102F00F027E
:104BD000114301700948FEF733FA2046BDE87040E2
:104BE00005F0E9BC38011000F6FF0100BC3E1000E2
:104BF0003A2E0120C89F012048A7012068221000FA
:104C00002DE9F04F0020FF4D04460246012140F6F9
:104C1000FF7BFD4BD5F814906E681B6801FA02F714
:104C200037421CD039F914A0BAF1000F02DC40F071
:104C3000200013E0DA4502DB40F010000EE0B3F88C
:104C400036C1B3F84171E6460CEB0708D04503DBEB
:104C5000AEEB070CD44501DD40F04000641C521C53
:104C6000202ADBD30024AF69AE68224601FA02F5A0
:104C700035421AD037F91450002D02DC40F02000E4
:104C800012E05D4502DB40F010000DE0B3F83A8120
:104C9000B3F8439108EB090CAC4503DBA8EB090C16
:104CA000AC4501DD40F04000641C521C202ADDD3DD
:104CB000BDE8F08F10B501461822D448FEF7F0FA8F
:104CC0008021BDE810400120FBF7D8BB30B599B07A
:104CD0006846FEF715FBCC484FF02004006890F8BA
:104CE0000A07C00709D0FEF71BFD012834D0BDF824
:104CF000020040F00200ADF80200ADF800400020D4
:104D00008DF840008DF83F00BE48416849000C9185
:104D100080680D90BDF80200AFF2670140F4A67004
:104D2000BA4D0191ADF8020003246846FCF733FD4B
:104D300017AB002280210120FBF7DFFB802101203F
:104D4000FBF7CBFB2878002804D0FDF7BDFC641EE0
:104D5000002CEADC19B030BD0620ADF80000CEE72B
:104D60002DE9F84F2121AA480DF0C1FDA8483021B6
:104D700021300DF09AFDFDF708F9FDF7A7F80420A2
:104D800003254FF000084FF001099E4CDFF878A290
:104D9000CDF80000FFF79AFFE8072BD04FF0000B8B
:104DA0005F465E46616809FA06F008421AD040F68E
:104DB000AC013046FEF714F9616931F91720DAF8D1
:104DC0000010B1F845118A420BDA3F2809D2009948
:104DD0004FF0010B0844C1B240F6AC023046FEF77A
:104DE00014F97F1C761C202EDCD3BBF1000F01D1FF
:104DF00025F00105A8072BD54FF0000B5F465E4656
:104E0000A16809FA06F008421AD040F6CD013046F2
:104E1000FEF7E6F8A16931F91720DAF80010B1F8C9
:104E200047118A420BDA3F2809D200994FF0010B53
:104E30000844C1B240F6CD023046FEF7E6F87F1CCA
:104E4000761C202EDCD3BBF1000F01D125F002052A
:104E500045B1FDF79AF8FDF739F808F10108B8F106
:104E6000640F97DB03254FF0000800BFFFF72EFF0C
:104E7000E80729D04FF0000B5F465E46616809FAEB
:104E800006F0084218D040F6AC013046FEF7A8F80C
:104E9000616931F91720DAF80010B1F845118A423A
:104EA00009DD40B1401EC1B24FF0010B40F6AC022B
:104EB0003046FEF7AAF87F1C761C202EDED3BBF10D
:104EC000000F01D125F00105A80729D54FF0000BEF
:104ED0005F465E46A16809FA06F0084218D040F61F
:104EE000CD013046FEF77CF8A16931F91720DAF8D8
:104EF0000010B1F847118A4209DD40B1401EC1B22D
:104F00004FF0010B40F6CD023046FEF77EF87F1CD5
:104F1000761C202EDED3BBF1000F01D125F0020557
:104F2000002D08D0FDF731F8FCF7D0FF08F101089B
:104F3000B8F1640F9ADBBDE8F88F2DE9F041354DEB
:104F400000202121287032480DF0D1FC304830215A
:104F500021300DF0AAFCFCF7B9FFFDF716F8294E39
:104F6000002700BFFFF7B2FED6E904320024204636
:104F700006E000BF32F91010A14200DD0C46401CD3
:104F80009842F7DB0020F368B26905E032F91010AF
:104F9000A14200DD0C46401C9842F7DB002C09DCE6
:104FA00028780F2803D8401C2870FCF7EEFF7F1CE0
:104FB000202FD7DB40F6FE70844206DD2878401EA5
:104FC0002870BDE8F041FCF7E0BFBDE8F0812DE9B5
:104FD000F05F0C4E00240E4FD6F804306C3F25468F
:104FE0002146012000FA01F21A4203D07A5CA24263
:104FF00000D91446491C2029F4D3054FB268403F1C
:10500000002109E0AC01100038011000543F1000ED
:10501000ACF80100F5FF010000FA01F3134203D0E0
:105020007B5CAB4200D91D46491C2029E9D3DFF83F
:1050300004A40AF1010B8AF800408BF80050FE4FDF
:10504000386890F80A07C10705D0800703D5FEF736
:1050500048FB012811D0F748F649801E491E007808
:10506000097820442944FF2288427AD2081A204431
:10507000FF2877D88AF8000099E0EF48006800F22E
:1050800059700279C17802F03F0201EB0226827961
:10509000417902F03F0201EB0228027BC17A02F063
:1050A0003F0201EB0227827B417B007802F03F0246
:1050B00001EB022940060FD5DE48801E017806EB81
:1050C000080004EB40000844DA49491E0A7807EB5F
:1050D000090105EB410110E006EB0800400000EB80
:1050E0004401D448801E0078084407EB09014900B8
:1050F00001EB4502CF49491E09781144FDF78DFDAA
:10510000CD49096801F20B72B1F80B37834201D225
:10511000A1F80B0791F80A07400720D591F8590725
:10512000400620D570004342C8F1000091F80B17EB
:1051300003EB40000144BF48801E0078091A8AF83A
:10514000001078004142C9F1000001EB40001178E5
:105150000144B848401E0078081A8BF80000BDE8EA
:10516000F09F27E01DE0B348B1F80B17801E0378CD
:1051700006EB08001844404201EB4000C0F3470131
:10518000AC488AF80010401E017807EB090008447B
:105190001188404201EB4000C0F347018BF800103A
:1051A000DDE78AF80020306840F0800030608BF83E
:1051B0000050D4E781420FD2401A2844FF2802D879
:1051C0008BF8000005E08BF80020306840F080008C
:1051D00030608AF80040C2E78AF80040E7E72DE92E
:1051E000F0410020954C964B934A01214FEA00056F
:1051F0005F6801FA00F63E4209D01768265C97F80E
:105200004A71BE4202D9F61B265400E02554401CC8
:105210002028EDD3894C2C345FF000009F6801FA00
:1052200000F63E4209D01768265C97F84A71BE42E4
:1052300002D9F61B265400E02554401C2028EDD34B
:10524000FFF7C5FEBDE8F041FCF77ABE2DE9F84F47
:105250007A487A4D06462C352C210DF048FB40212A
:1052600028460DF044FBFFF7B2FEFCF78EFEFCF77C
:1052700067FE0420032400274FF00109DFF8C0A1D6
:10528000DFF8B4B1CDF80000FFF720FDE00728D02B
:105290004FF0000C624660464FEA0A0309FA00F13B
:1052A000D3F8048011EA080F13D0596931F912803C
:1052B000DBF80010B1F83811884509DA315CDDF807
:1052C00000804FF0010C4144FF2900DDFF213154E3
:1052D000521C401C2028E1D3BCF1000F01D124F066
:1052E0000104A00727D54FF0000C624660465346E4
:1052F00009FA00F1D3F8088011EA080F13D0996970
:1053000031F91280DBF80010B1F83C11884509DA58
:10531000295CDDF800804FF0010C4144FF2900DDDD
:10532000FF212954521C401C2028E1D3BCF1000F5E
:1053300001D124F0020444B1FFF749FEFCF725FE39
:10534000FCF7FEFD7F1C642F9EDB03245FF000074B
:10535000FFF7BCFCE00724D04FF0000E714670460A
:105360005246DC46D2F8048009FA00F313EA080F2B
:105370000FD05369DCF8008033F91130B8F8388168
:10538000434505DD335C1BB15B1E4FF0010E33540A
:10539000491C401C2028E5D3BEF1000F01D124F0A8
:1053A0000104A00725D54FF0000E71467046524605
:1053B0004FEA0B0CD2F8088009FA00F313EA080F41
:1053C0000FD09369DCF8008033F91130B8F83C81D4
:1053D000434505DD2B5C1BB15B1E4FF0010E2B54CA
:1053E000491C401C2028E5D3BEF1000F01D124F058
:1053F0000204002C08D0FFF7EAFDFCF7C6FDFCF71D
:105400009FFD7F1C642FA3DB95E50B4930B4096831
:105410000020034691F83021920714D5054A91F8EF
:105420004941921E01201578A5420BD9A5EB040431
:10543000147008E0F9FF01003801100040F8010085
:10544000AC011000137091F8302152070BD58D4A32
:1054500091F8491140F0020014788C4202D9611A87
:10546000117000E01370002801D030BCAFE530BCF3
:1054700070472DE9F04784490024844D0868274689
:1054800090F83021920702D501242F7002E090F8A5
:105490003F212A70894690F830117A4E490703D58A
:1054A00044F00204377002E090F840013070002CA4
:1054B00074D02C2176480DF01AFA754840212C3012
:1054C0000DF015FA71482121801E077070486C306C
:1054D0000DF00DFA6E4830218D300DF0E6F9694976
:1054E000FF20891C0870491E0870FCF729FDFCF795
:1054F000EDFCFCF74AFD4FF0100A0027DFF894811D
:10550000FFF7E4FBE00723D0D8E9043C0020014684
:1055100006E000BF3CF91120824200DD1046491C24
:105520009942F7DBD9F80010B1F83621824202DA4D
:105530002878401E08E0B1F84B11814206DB28783C
:105540005044FF2800DDFF20287001E024F0010412
:10555000A00726D500200146D8F80CC0D8F818308E
:1055600006E000BF33F91120824200DD1046491CDD
:105570006145F7DBD9F80010B1F83A21824202DA2E
:105580003078401E08E0B1F84B11814207DB3078DB
:105590005044FF2800DDFF20307002E00AE024F0D4
:1055A0000204002C06D0FFF712FDFCF7EEFC7F1C76
:1055B000202FA5DBBDE8F08770B5364C00202060B9
:1055C000FDF714FC6060FDF73DFCA06060680421FD
:1055D00040086060201DFDF709FB2061042104F1F3
:1055E0000800FDF703FBE060FFF770FB2A4E21691E
:1055F000F06800EB41026261E26802EB410100EBFE
:105600004100A061FFF735FFFFF7FFFE1E4D286840
:1056100090F83001800603D5FFF718FEFFF7DFFD95
:10562000286890F83001000701D5FFF786FC28684C
:1056300090F83001C00601D5FFF792FBFCF7A5FCFE
:10564000FFF744FBF068216900EB41026261E26808
:1056500002EB410100EB4100A061FFF7D1FA2168A4
:105660000143084821602A68C01C037892F8FB2790
:1056700063F303020270BDE8704041F0020004F0E1
:105680009ABF0000F8FF010038011000F7FF010089
:1056900040F80100AC011000543F100010B5014665
:1056A00018229448FDF7FCFD8021BDE81040012040
:1056B000FAF7E4BEF0B5904D06460C4628684FF068
:1056C000FF3199B090F8B10000F00F00401C81400C
:1056D000CF436846FDF714FE0120ADF80000ADF899
:1056E0000240286810F8F91F8DF8131044F00501E6
:1056F000ADF802100297ADF81660AFF25F010191AC
:1057000041788DF8141080787A4D8DF81A000324B2
:105710006846FCF740F817AB002280210120FAF719
:10572000ECFE80210120FAF7D8FE2878002804D06A
:10573000FCF7CAFF641E002CEADC19B0F0BD2DE9AD
:10574000F0476D4D4FF00009DFF8A881286800F59B
:1057500070700478467887781AE049462046FFF74B
:10576000A9FFD8F8040008F003FE0146286890F865
:10577000F82012F00F0000D1012012094A43B2FBB9
:10578000F0F082B22146302004F058FFE01984B2D4
:10579000B442E2DDBDE8F0872DE9FF5F4FF6FF760A
:1057A0004FF0000A93460F46804634465546DFF8D0
:1057B00048911BE038F815005146FFF77BFF4D4834
:1057C000406808F0D5FDD9F8001091F8F82012F0E3
:1057D0000F0100D1012112094243B2FBF1F080B266
:1057E000A04202D238F8156004466D1CBD42E1DBD0
:1057F000ABF8006003980480BDE8FF9F2DE9F041FD
:105800003D4E05468846306888B090F8D12002F0B9
:105810000F01C2F30214491C641C0A2900DD0A218D
:10582000022C00DD0224D23006AB05AAFFF7B4FF3C
:10583000326892F8D00080071BD5BDF814600121B2
:10584000E632ADF8006000204FF4803C6F4607E080
:1058500013563344634502D227F81130491C401CCB
:10586000A042F5DB002904DD06AB05AA3846FFF7A8
:1058700093FFBDF814002880BDF81810A8F8001098
:1058800008B0BDE8F0817CB50020FAF7D6FE1B4CCD
:1058900001A968466588FFF7B1FF174E3068B0F878
:1058A000E810BDF80400814201D9218000E0208089
:1058B000BDF8000060800020FAF7DAFEBDF80000B5
:1058C000854207D0306890F8D000400702D5608844
:1058D000FEF7C3FB0A49012008700A4908700A490B
:1058E00008700A490870BDF800202946092004F014
:1058F00088FE7CBD6C3F1000380110008023100032
:105900004E011000610110007801100086011000A6
:105910002DE9F04706460078FE4D00B128701822A8
:105920003146FD48FDF7BCFCFC4C206890F8C517DB
:10593000CA07F94901D04A6900E0CA68417D686830
:10594000F74B4143002019E097F8F0C25FEACC78AA
:105950000DD05FEA8C7C0AD597F8F17232F810C04E
:105960007F1C0CFB07FC0F1823F817C005E001EBA8
:10597000000C32F8107023F81C70401C276897F850
:1059800015C08445E0DC686800F1010068607F7D37
:1059900007FB00FC4FF000001EE000BF91F8F08212
:1059A000C1465FEAC8780FD05FEA89780CD507EB6B
:1059B000000891F8F11232F81880491C08FB01F830
:1059C0000CEB000123F8118039180CEB000832F8B9
:1059D000111023F81810401C216891F8158080459B
:1059E000DCDC6B684FF0010803F101036B6091F898
:1059F000B10008EB101291F8F002C70705D0870735
:105A000003D491F8F1723A44D2B2934227DA91F872
:105A10000A07C00719D0FDF764FE012815D12168D7
:105A2000A88891F8BA1380B201F00F01B0FBF1F22F
:105A300001FB1201B8485C380029418802D041F0CE
:105A4000020101E021F002014180307808B1FCF749
:105A50003BFEBDE8F047B0485C38FBF79CBEC20790
:105A60002FD080072DD4B1F8F2A2002522E0417D8D
:105A7000AB48694300EB41018946002015E000BFB7
:105A800093F8F132012231F910605B1C06E000BF8F
:105A900002FB070C521C31F91CC066449342F7DC30
:105AA000A6EB0A0229F81020401C23685F7D87427C
:105AB000E6DC6D1C206890F8B11008EB1111A942CA
:105AC000D5DCBDE8F04780210120FAF7D7BC2DE9ED
:105AD000FF4FDFF844B24FF6FF74002681B08A46CC
